{
  "contractName": "EnlistmentToContract",
  "abi": [
    {
      "constant": true,
      "inputs": [],
      "name": "enlistment",
      "outputs": [
        {
          "name": "streetName",
          "type": "string"
        },
        {
          "name": "floorNr",
          "type": "int256"
        },
        {
          "name": "apartmentNr",
          "type": "int256"
        },
        {
          "name": "houseNr",
          "type": "int256"
        },
        {
          "name": "postalCode",
          "type": "int256"
        }
      ],
      "payable": false,
      "stateMutability": "view",
      "type": "function"
    },
    {
      "constant": true,
      "inputs": [],
      "name": "locked",
      "outputs": [
        {
          "name": "",
          "type": "bool"
        }
      ],
      "payable": false,
      "stateMutability": "view",
      "type": "function"
    },
    {
      "constant": true,
      "inputs": [],
      "name": "landlord",
      "outputs": [
        {
          "name": "",
          "type": "string"
        }
      ],
      "payable": false,
      "stateMutability": "view",
      "type": "function"
    },
    {
      "inputs": [
        {
          "name": "landlordEmail",
          "type": "string"
        },
        {
          "name": "streetName",
          "type": "string"
        },
        {
          "name": "floorNr",
          "type": "int256"
        },
        {
          "name": "apartmentNr",
          "type": "int256"
        },
        {
          "name": "houseNr",
          "type": "int256"
        },
        {
          "name": "postalCode",
          "type": "int256"
        }
      ],
      "payable": false,
      "stateMutability": "nonpayable",
      "type": "constructor"
    },
    {
      "anonymous": false,
      "inputs": [
        {
          "components": [
            {
              "name": "initialized",
              "type": "bool"
            },
            {
              "name": "amount",
              "type": "int256"
            },
            {
              "name": "tenantName",
              "type": "string"
            },
            {
              "name": "tenantEmail",
              "type": "string"
            },
            {
              "name": "status",
              "type": "uint8"
            }
          ],
          "indexed": false,
          "name": "offer",
          "type": "tuple"
        }
      ],
      "name": "OfferReceived",
      "type": "event"
    },
    {
      "anonymous": false,
      "inputs": [
        {
          "components": [
            {
              "name": "landlordName",
              "type": "string"
            },
            {
              "name": "tenantName",
              "type": "string"
            },
            {
              "name": "tenantEmail",
              "type": "string"
            },
            {
              "name": "amount",
              "type": "int256"
            },
            {
              "name": "leaseStart",
              "type": "uint256"
            },
            {
              "name": "handoverDate",
              "type": "uint256"
            },
            {
              "name": "leasePeriod",
              "type": "uint256"
            },
            {
              "name": "otherTerms",
              "type": "string"
            },
            {
              "name": "hash",
              "type": "string"
            },
            {
              "name": "landlordSignedHash",
              "type": "string"
            },
            {
              "name": "tenantSignedHash",
              "type": "string"
            },
            {
              "name": "status",
              "type": "uint8"
            }
          ],
          "indexed": false,
          "name": "agreement",
          "type": "tuple"
        }
      ],
      "name": "AgreementReceived",
      "type": "event"
    },
    {
      "anonymous": false,
      "inputs": [
        {
          "components": [
            {
              "name": "initialized",
              "type": "bool"
            },
            {
              "name": "amount",
              "type": "int256"
            },
            {
              "name": "tenantName",
              "type": "string"
            },
            {
              "name": "tenantEmail",
              "type": "string"
            },
            {
              "name": "status",
              "type": "uint8"
            }
          ],
          "indexed": false,
          "name": "offer",
          "type": "tuple"
        }
      ],
      "name": "OfferUpdated",
      "type": "event"
    },
    {
      "anonymous": false,
      "inputs": [
        {
          "components": [
            {
              "name": "landlordName",
              "type": "string"
            },
            {
              "name": "tenantName",
              "type": "string"
            },
            {
              "name": "tenantEmail",
              "type": "string"
            },
            {
              "name": "amount",
              "type": "int256"
            },
            {
              "name": "leaseStart",
              "type": "uint256"
            },
            {
              "name": "handoverDate",
              "type": "uint256"
            },
            {
              "name": "leasePeriod",
              "type": "uint256"
            },
            {
              "name": "otherTerms",
              "type": "string"
            },
            {
              "name": "hash",
              "type": "string"
            },
            {
              "name": "landlordSignedHash",
              "type": "string"
            },
            {
              "name": "tenantSignedHash",
              "type": "string"
            },
            {
              "name": "status",
              "type": "uint8"
            }
          ],
          "indexed": false,
          "name": "agreement",
          "type": "tuple"
        }
      ],
      "name": "AgreementReviewed",
      "type": "event"
    },
    {
      "anonymous": false,
      "inputs": [
        {
          "components": [
            {
              "name": "landlordName",
              "type": "string"
            },
            {
              "name": "tenantName",
              "type": "string"
            },
            {
              "name": "tenantEmail",
              "type": "string"
            },
            {
              "name": "amount",
              "type": "int256"
            },
            {
              "name": "leaseStart",
              "type": "uint256"
            },
            {
              "name": "handoverDate",
              "type": "uint256"
            },
            {
              "name": "leasePeriod",
              "type": "uint256"
            },
            {
              "name": "otherTerms",
              "type": "string"
            },
            {
              "name": "hash",
              "type": "string"
            },
            {
              "name": "landlordSignedHash",
              "type": "string"
            },
            {
              "name": "tenantSignedHash",
              "type": "string"
            },
            {
              "name": "status",
              "type": "uint8"
            }
          ],
          "indexed": false,
          "name": "agreement",
          "type": "tuple"
        }
      ],
      "name": "AgreementLandlordSigned",
      "type": "event"
    },
    {
      "anonymous": false,
      "inputs": [
        {
          "components": [
            {
              "name": "landlordName",
              "type": "string"
            },
            {
              "name": "tenantName",
              "type": "string"
            },
            {
              "name": "tenantEmail",
              "type": "string"
            },
            {
              "name": "amount",
              "type": "int256"
            },
            {
              "name": "leaseStart",
              "type": "uint256"
            },
            {
              "name": "handoverDate",
              "type": "uint256"
            },
            {
              "name": "leasePeriod",
              "type": "uint256"
            },
            {
              "name": "otherTerms",
              "type": "string"
            },
            {
              "name": "hash",
              "type": "string"
            },
            {
              "name": "landlordSignedHash",
              "type": "string"
            },
            {
              "name": "tenantSignedHash",
              "type": "string"
            },
            {
              "name": "status",
              "type": "uint8"
            }
          ],
          "indexed": false,
          "name": "agreement",
          "type": "tuple"
        }
      ],
      "name": "AgreementTenantSigned",
      "type": "event"
    },
    {
      "anonymous": false,
      "inputs": [
        {
          "components": [
            {
              "name": "landlordName",
              "type": "string"
            },
            {
              "name": "tenantName",
              "type": "string"
            },
            {
              "name": "tenantEmail",
              "type": "string"
            },
            {
              "name": "amount",
              "type": "int256"
            },
            {
              "name": "leaseStart",
              "type": "uint256"
            },
            {
              "name": "handoverDate",
              "type": "uint256"
            },
            {
              "name": "leasePeriod",
              "type": "uint256"
            },
            {
              "name": "otherTerms",
              "type": "string"
            },
            {
              "name": "hash",
              "type": "string"
            },
            {
              "name": "landlordSignedHash",
              "type": "string"
            },
            {
              "name": "tenantSignedHash",
              "type": "string"
            },
            {
              "name": "status",
              "type": "uint8"
            }
          ],
          "indexed": false,
          "name": "agreement",
          "type": "tuple"
        }
      ],
      "name": "AgreementCompleted",
      "type": "event"
    },
    {
      "constant": false,
      "inputs": [
        {
          "name": "amount",
          "type": "int256"
        },
        {
          "name": "tenantName",
          "type": "string"
        },
        {
          "name": "tenantEmail",
          "type": "string"
        }
      ],
      "name": "sendOffer",
      "outputs": [],
      "payable": true,
      "stateMutability": "payable",
      "type": "function"
    },
    {
      "constant": false,
      "inputs": [
        {
          "name": "tenantEmail",
          "type": "string"
        }
      ],
      "name": "cancelOffer",
      "outputs": [],
      "payable": true,
      "stateMutability": "payable",
      "type": "function"
    },
    {
      "constant": true,
      "inputs": [
        {
          "name": "tenantEmail",
          "type": "string"
        }
      ],
      "name": "getOffer",
      "outputs": [
        {
          "name": "",
          "type": "bool"
        },
        {
          "name": "",
          "type": "int256"
        },
        {
          "name": "",
          "type": "string"
        },
        {
          "name": "",
          "type": "string"
        },
        {
          "name": "",
          "type": "uint8"
        }
      ],
      "payable": false,
      "stateMutability": "view",
      "type": "function"
    },
    {
      "constant": false,
      "inputs": [
        {
          "name": "result",
          "type": "bool"
        },
        {
          "name": "tenantEmail",
          "type": "string"
        }
      ],
      "name": "reviewOffer",
      "outputs": [],
      "payable": true,
      "stateMutability": "payable",
      "type": "function"
    },
    {
      "constant": false,
      "inputs": [
        {
          "name": "tenantEmail",
          "type": "string"
        },
        {
          "name": "landlordName",
          "type": "string"
        },
        {
          "name": "agreementTenantName",
          "type": "string"
        },
        {
          "name": "agreementTenantEmail",
          "type": "string"
        },
        {
          "name": "leaseStart",
          "type": "uint256"
        },
        {
          "name": "handoverDate",
          "type": "uint256"
        },
        {
          "name": "leasePeriod",
          "type": "uint256"
        },
        {
          "name": "otherTerms",
          "type": "string"
        },
        {
          "name": "hash",
          "type": "string"
        }
      ],
      "name": "submitDraft",
      "outputs": [],
      "payable": true,
      "stateMutability": "payable",
      "type": "function"
    },
    {
      "constant": true,
      "inputs": [
        {
          "name": "tenantEmail",
          "type": "string"
        }
      ],
      "name": "getAgreementParticipants",
      "outputs": [
        {
          "name": "",
          "type": "string"
        },
        {
          "name": "",
          "type": "string"
        },
        {
          "name": "",
          "type": "string"
        }
      ],
      "payable": false,
      "stateMutability": "view",
      "type": "function"
    },
    {
      "constant": true,
      "inputs": [
        {
          "name": "tenantEmail",
          "type": "string"
        }
      ],
      "name": "getAgreementDetails",
      "outputs": [
        {
          "name": "",
          "type": "int256"
        },
        {
          "name": "",
          "type": "uint256"
        },
        {
          "name": "",
          "type": "uint256"
        },
        {
          "name": "",
          "type": "uint256"
        },
        {
          "name": "",
          "type": "string"
        }
      ],
      "payable": false,
      "stateMutability": "view",
      "type": "function"
    },
    {
      "constant": true,
      "inputs": [
        {
          "name": "tenantEmail",
          "type": "string"
        }
      ],
      "name": "getAgreementHashes",
      "outputs": [
        {
          "name": "",
          "type": "string"
        },
        {
          "name": "",
          "type": "string"
        },
        {
          "name": "",
          "type": "string"
        }
      ],
      "payable": false,
      "stateMutability": "view",
      "type": "function"
    },
    {
      "constant": true,
      "inputs": [
        {
          "name": "tenantEmail",
          "type": "string"
        }
      ],
      "name": "getAgreementStatus",
      "outputs": [
        {
          "name": "",
          "type": "uint8"
        }
      ],
      "payable": false,
      "stateMutability": "view",
      "type": "function"
    },
    {
      "constant": false,
      "inputs": [
        {
          "name": "tenantEmail",
          "type": "string"
        },
        {
          "name": "result",
          "type": "bool"
        }
      ],
      "name": "reviewAgreement",
      "outputs": [],
      "payable": true,
      "stateMutability": "payable",
      "type": "function"
    },
    {
      "constant": false,
      "inputs": [
        {
          "name": "tenantEmail",
          "type": "string"
        },
        {
          "name": "landlordSignedHash",
          "type": "string"
        }
      ],
      "name": "landlordSignAgreement",
      "outputs": [],
      "payable": true,
      "stateMutability": "payable",
      "type": "function"
    },
    {
      "constant": false,
      "inputs": [
        {
          "name": "tenantEmail",
          "type": "string"
        },
        {
          "name": "tenantSignedHash",
          "type": "string"
        }
      ],
      "name": "tenantSignAgreement",
      "outputs": [],
      "payable": true,
      "stateMutability": "payable",
      "type": "function"
    },
    {
      "constant": false,
      "inputs": [
        {
          "name": "tenantEmail",
          "type": "string"
        }
      ],
      "name": "cancelAgreement",
      "outputs": [],
      "payable": true,
      "stateMutability": "payable",
      "type": "function"
    },
    {
      "constant": false,
      "inputs": [
        {
          "name": "tenantEmail",
          "type": "string"
        }
      ],
      "name": "receiveFirstMonthRent",
      "outputs": [],
      "payable": true,
      "stateMutability": "payable",
      "type": "function"
    }
  ],
  "bytecode": "0x60606040526000600260006101000a81548160ff02191690831515021790555034156200002b57600080fd5b604051620052e9380380620052e98339810160405280805182019190602001805182019190602001805190602001909190805190602001909190805190602001909190805190602001909190505060a0604051908101604052808681526020018581526020018481526020018381526020018281525060036000820151816000019080519060200190620000c192919062000152565b5060208201518160010155604082015181600201556060820151816003015560808201518160040155905050856001908051906020019062000105929190620001d9565b50336000806101000a81548173ffffffffffffffffffffffffffffffffffffffff021916908373ffffffffffffffffffffffffffffffffffffffff16021790555050505050505062000288565b828054600181600116156101000203166002900490600052602060002090601f016020900481019282601f106200019557805160ff1916838001178555620001c6565b82800160010185558215620001c6579182015b82811115620001c5578251825591602001919060010190620001a8565b5b509050620001d5919062000260565b5090565b828054600181600116156101000203166002900490600052602060002090601f016020900481019282601f106200021c57805160ff19168380011785556200024d565b828001600101855582156200024d579182015b828111156200024c5782518255916020019190600101906200022f565b5b5090506200025c919062000260565b5090565b6200028591905b808211156200028157600081600090555060010162000267565b5090565b90565b61505180620002986000396000f3006060604052600436106100f0576000357c0100000000000000000000000000000000000000000000000000000000900463ffffffff168062ff22c6146100f557806303746e061461018a578063222a7af91461021f578063265adc33146103db5780632c863d84146104cd5780632d63ce271461056b5780632fcc176d146105bd5780634d45780e1461061a578063673a95ef1461066c57806371ca1587146106c95780637a5101161461087757806382e1d381146109e0578063cf30901214610aa7578063d441a15214610ad4578063dc1997ea14610c82578063ec2b2a1214610d10578063f278f78414610d8f575b600080fd5b610188600480803590602001908201803590602001908080601f0160208091040260200160405190810160405280939291908181526020018383808284378201915050505050509190803590602001908201803590602001908080601f01602080910402602001604051908101604052809392919081815260200183838082843782019150505050505091905050610de1565b005b61021d600480803590602001908201803590602001908080601f0160208091040260200160405190810160405280939291908181526020018383808284378201915050505050509190803590602001908201803590602001908080601f01602080910402602001604051908101604052809392919081815260200183838082843782019150505050505091905050611645565b005b6103d9600480803590602001908201803590602001908080601f0160208091040260200160405190810160405280939291908181526020018383808284378201915050505050509190803590602001908201803590602001908080601f0160208091040260200160405190810160405280939291908181526020018383808284378201915050505050509190803590602001908201803590602001908080601f0160208091040260200160405190810160405280939291908181526020018383808284378201915050505050509190803590602001908201803590602001908080601f0160208091040260200160405190810160405280939291908181526020018383808284378201915050505050509190803590602001909190803590602001909190803590602001909190803590602001908201803590602001908080601f0160208091040260200160405190810160405280939291908181526020018383808284378201915050505050509190803590602001908201803590602001908080601f01602080910402602001604051908101604052809392919081815260200183838082843782019150505050505091905050611ee0565b005b34156103e657600080fd5b610436600480803590602001908201803590602001908080601f0160208091040260200160405190810160405280939291908181526020018383808284378201915050505050509190505061252f565b6040518086815260200185815260200184815260200183815260200180602001828103825283818151815260200191508051906020019080838360005b8381101561048e578082015181840152602081019050610473565b50505050905090810190601f1680156104bb5780820380516001836020036101000a031916815260200191505b50965050505050505060405180910390f35b610569600480803590602001909190803590602001908201803590602001908080601f0160208091040260200160405190810160405280939291908181526020018383808284378201915050505050509190803590602001908201803590602001908080601f01602080910402602001604051908101604052809392919081815260200183838082843782019150505050505091905050612674565b005b6105bb600480803590602001908201803590602001908080601f016020809104026020016040519081016040528093929190818152602001838380828437820191505050505050919050506129d2565b005b6106186004808035151590602001909190803590602001908201803590602001908080601f01602080910402602001604051908101604052809392919081815260200183838082843782019150505050505091905050613030565b005b61066a600480803590602001908201803590602001908080601f0160208091040260200160405190810160405280939291908181526020018383808284378201915050505050509190505061344a565b005b6106c7600480803590602001908201803590602001908080601f016020809104026020016040519081016040528093929190818152602001838380828437820191505050505050919080351515906020019091905050613c2a565b005b34156106d457600080fd5b610724600480803590602001908201803590602001908080601f01602080910402602001604051908101604052809392919081815260200183838082843782019150505050505091905050614418565b60405180806020018060200180602001848103845287818151815260200191508051906020019080838360005b8381101561076c578082015181840152602081019050610751565b50505050905090810190601f1680156107995780820380516001836020036101000a031916815260200191505b50848103835286818151815260200191508051906020019080838360005b838110156107d25780820151818401526020810190506107b7565b50505050905090810190601f1680156107ff5780820380516001836020036101000a031916815260200191505b50848103825285818151815260200191508051906020019080838360005b8381101561083857808201518184015260208101905061081d565b50505050905090810190601f1680156108655780820380516001836020036101000a031916815260200191505b50965050505050505060405180910390f35b341561088257600080fd5b6108d2600480803590602001908201803590602001908080601f0160208091040260200160405190810160405280939291908181526020018383808284378201915050505050509190505061468d565b604051808615151515815260200185815260200180602001806020018460038111156108fa57fe5b60ff168152602001838103835286818151815260200191508051906020019080838360005b8381101561093a57808201518184015260208101905061091f565b50505050905090810190601f1680156109675780820380516001836020036101000a031916815260200191505b50838103825285818151815260200191508051906020019080838360005b838110156109a0578082015181840152602081019050610985565b50505050905090810190601f1680156109cd5780820380516001836020036101000a031916815260200191505b5097505050505050505060405180910390f35b34156109eb57600080fd5b6109f361488d565b6040518080602001868152602001858152602001848152602001838152602001828103825287818154600181600116156101000203166002900481526020019150805460018160011615610100020316600290048015610a945780601f10610a6957610100808354040283529160200191610a94565b820191906000526020600020905b815481529060010190602001808311610a7757829003601f168201915b5050965050505050505060405180910390f35b3415610ab257600080fd5b610aba6148b0565b604051808215151515815260200191505060405180910390f35b3415610adf57600080fd5b610b2f600480803590602001908201803590602001908080601f016020809104026020016040519081016040528093929190818152602001838380828437820191505050505050919050506148c3565b60405180806020018060200180602001848103845287818151815260200191508051906020019080838360005b83811015610b77578082015181840152602081019050610b5c565b50505050905090810190601f168015610ba45780820380516001836020036101000a031916815260200191505b50848103835286818151815260200191508051906020019080838360005b83811015610bdd578082015181840152602081019050610bc2565b50505050905090810190601f168015610c0a5780820380516001836020036101000a031916815260200191505b50848103825285818151815260200191508051906020019080838360005b83811015610c43578082015181840152602081019050610c28565b50505050905090810190601f168015610c705780820380516001836020036101000a031916815260200191505b50965050505050505060405180910390f35b3415610c8d57600080fd5b610c95614b38565b6040518080602001828103825283818151815260200191508051906020019080838360005b83811015610cd5578082015181840152602081019050610cba565b50505050905090810190601f168015610d025780820380516001836020036101000a031916815260200191505b509250505060405180910390f35b3415610d1b57600080fd5b610d6b600480803590602001908201803590602001908080601f01602080910402602001604051908101604052809392919081815260200183838082843782019150505050505091905050614bd6565b60405180826007811115610d7b57fe5b60ff16815260200191505060405180910390f35b610ddf600480803590602001908201803590602001908080601f01602080910402602001604051908101604052809392919081815260200183838082843782019150505050505091905050614c60565b005b6000610deb614df8565b83600115156008826040518082805190602001908083835b602083101515610e285780518252602082019150602081019050602083039250610e03565b6001836020036101000a038019825116818451168082178552505050505050905001915050908152602001604051809103902060000160009054906101000a900460ff161515141515610e7a57600080fd5b600385816003811115610e8957fe5b6008826040518082805190602001908083835b602083101515610ec15780518252602082019150602081019050602083039250610e9c565b6001836020036101000a038019825116818451168082178552505050505050905001915050908152602001604051809103902060040160009054906101000a900460ff166003811115610f1057fe5b141515610f1c57600080fd5b600587816007811115610f2b57fe5b6009826040518082805190602001908083835b602083101515610f635780518252602082019150602081019050602083039250610f3e565b6001836020036101000a0380198251168184511680821785525050505050509050019150509081526020016040518091039020600b0160009054906101000a900460ff166007811115610fb257fe5b141515610fbe57600080fd5b8760098a6040518082805190602001908083835b602083101515610ff75780518252602082019150602081019050602083039250610fd2565b6001836020036101000a0380198251168184511680821785525050505050509050019150509081526020016040518091039020600a019080519060200190611040929190614e8f565b50600660098a6040518082805190602001908083835b60208310151561107b5780518252602082019150602081019050602083039250611056565b6001836020036101000a0380198251168184511680821785525050505050509050019150509081526020016040518091039020600b0160006101000a81548160ff021916908360078111156110cc57fe5b02179055506009896040518082805190602001908083835b60208310151561110957805182526020820191506020810190506020830392506110e4565b6001836020036101000a0380198251168184511680821785525050505050509050019150509081526020016040518091039020965061018060405190810160405280886000018054600181600116156101000203166002900480601f0160208091040260200160405190810160405280929190818152602001828054600181600116156101000203166002900480156111e35780601f106111b8576101008083540402835291602001916111e3565b820191906000526020600020905b8154815290600101906020018083116111c657829003601f168201915b50505050508152602001886001018054600181600116156101000203166002900480601f0160208091040260200160405190810160405280929190818152602001828054600181600116156101000203166002900480156112855780601f1061125a57610100808354040283529160200191611285565b820191906000526020600020905b81548152906001019060200180831161126857829003601f168201915b50505050508152602001886002018054600181600116156101000203166002900480601f0160208091040260200160405190810160405280929190818152602001828054600181600116156101000203166002900480156113275780601f106112fc57610100808354040283529160200191611327565b820191906000526020600020905b81548152906001019060200180831161130a57829003601f168201915b5050505050815260200188600301548152602001886004015481526020018860050154815260200188600601548152602001886007018054600181600116156101000203166002900480601f0160208091040260200160405190810160405280929190818152602001828054600181600116156101000203166002900480156113f15780601f106113c6576101008083540402835291602001916113f1565b820191906000526020600020905b8154815290600101906020018083116113d457829003601f168201915b50505050508152602001886008018054600181600116156101000203166002900480601f0160208091040260200160405190810160405280929190818152602001828054600181600116156101000203166002900480156114935780601f1061146857610100808354040283529160200191611493565b820191906000526020600020905b81548152906001019060200180831161147657829003601f168201915b50505050508152602001886009018054600181600116156101000203166002900480601f0160208091040260200160405190810160405280929190818152602001828054600181600116156101000203166002900480156115355780601f1061150a57610100808354040283529160200191611535565b820191906000526020600020905b81548152906001019060200180831161151857829003601f168201915b5050505050815260200188600a018054600181600116156101000203166002900480601f0160208091040260200160405190810160405280929190818152602001828054600181600116156101000203166002900480156115d75780601f106115ac576101008083540402835291602001916115d7565b820191906000526020600020905b8154815290600101906020018083116115ba57829003601f168201915b5050505050815260200188600b0160009054906101000a900460ff1660078111156115fe57fe5b81525095507f4e1b89552d19258ac8149b571e4f45a50fe09a287b38a77f832a047c6bcc68d5866040518082815260200191505060405180910390a1505050505050505050565b600061164f614df8565b600260009054906101000a900460ff1615151561166b57600080fd5b83600115156008826040518082805190602001908083835b6020831015156116a85780518252602082019150602081019050602083039250611683565b6001836020036101000a038019825116818451168082178552505050505050905001915050908152602001604051809103902060000160009054906101000a900460ff1615151415156116fa57600080fd5b60038581600381111561170957fe5b6008826040518082805190602001908083835b602083101515611741578051825260208201915060208101905060208303925061171c565b6001836020036101000a038019825116818451168082178552505050505050905001915050908152602001604051809103902060040160009054906101000a900460ff16600381111561179057fe5b14151561179c57600080fd5b6003878160078111156117ab57fe5b6009826040518082805190602001908083835b6020831015156117e357805182526020820191506020810190506020830392506117be565b6001836020036101000a0380198251168184511680821785525050505050509050019150509081526020016040518091039020600b0160009054906101000a900460ff16600781111561183257fe5b14151561183e57600080fd5b8760098a6040518082805190602001908083835b6020831015156118775780518252602082019150602081019050602083039250611852565b6001836020036101000a038019825116818451168082178552505050505050905001915050908152602001604051809103902060090190805190602001906118c0929190614e8f565b50600560098a6040518082805190602001908083835b6020831015156118fb57805182526020820191506020810190506020830392506118d6565b6001836020036101000a0380198251168184511680821785525050505050509050019150509081526020016040518091039020600b0160006101000a81548160ff0219169083600781111561194c57fe5b02179055506001600260006101000a81548160ff0219169083151502179055506009896040518082805190602001908083835b6020831015156119a4578051825260208201915060208101905060208303925061197f565b6001836020036101000a0380198251168184511680821785525050505050509050019150509081526020016040518091039020965061018060405190810160405280886000018054600181600116156101000203166002900480601f016020809104026020016040519081016040528092919081815260200182805460018160011615610100020316600290048015611a7e5780601f10611a5357610100808354040283529160200191611a7e565b820191906000526020600020905b815481529060010190602001808311611a6157829003601f168201915b50505050508152602001886001018054600181600116156101000203166002900480601f016020809104026020016040519081016040528092919081815260200182805460018160011615610100020316600290048015611b205780601f10611af557610100808354040283529160200191611b20565b820191906000526020600020905b815481529060010190602001808311611b0357829003601f168201915b50505050508152602001886002018054600181600116156101000203166002900480601f016020809104026020016040519081016040528092919081815260200182805460018160011615610100020316600290048015611bc25780601f10611b9757610100808354040283529160200191611bc2565b820191906000526020600020905b815481529060010190602001808311611ba557829003601f168201915b5050505050815260200188600301548152602001886004015481526020018860050154815260200188600601548152602001886007018054600181600116156101000203166002900480601f016020809104026020016040519081016040528092919081815260200182805460018160011615610100020316600290048015611c8c5780601f10611c6157610100808354040283529160200191611c8c565b820191906000526020600020905b815481529060010190602001808311611c6f57829003601f168201915b50505050508152602001886008018054600181600116156101000203166002900480601f016020809104026020016040519081016040528092919081815260200182805460018160011615610100020316600290048015611d2e5780601f10611d0357610100808354040283529160200191611d2e565b820191906000526020600020905b815481529060010190602001808311611d1157829003601f168201915b50505050508152602001886009018054600181600116156101000203166002900480601f016020809104026020016040519081016040528092919081815260200182805460018160011615610100020316600290048015611dd05780601f10611da557610100808354040283529160200191611dd0565b820191906000526020600020905b815481529060010190602001808311611db357829003601f168201915b5050505050815260200188600a018054600181600116156101000203166002900480601f016020809104026020016040519081016040528092919081815260200182805460018160011615610100020316600290048015611e725780601f10611e4757610100808354040283529160200191611e72565b820191906000526020600020905b815481529060010190602001808311611e5557829003601f168201915b5050505050815260200188600b0160009054906101000a900460ff166007811115611e9957fe5b81525095507f10cdb42fdf76ad0b5346e1b5a8377b063a1414721180ce02e75ad89baf742155866040518082815260200191505060405180910390a1505050505050505050565b600089600115156008826040518082805190602001908083835b602083101515611f1f5780518252602082019150602081019050602083039250611efa565b6001836020036101000a038019825116818451168082178552505050505050905001915050908152602001604051809103902060000160009054906101000a900460ff161515141515611f7157600080fd5b60038b816003811115611f8057fe5b6008826040518082805190602001908083835b602083101515611fb85780518252602082019150602081019050602083039250611f93565b6001836020036101000a038019825116818451168082178552505050505050905001915050908152602001604051809103902060040160009054906101000a900460ff16600381111561200757fe5b14151561201357600080fd5b8c6000600781111561202157fe5b6009826040518082805190602001908083835b6020831015156120595780518252602082019150602081019050602083039250612034565b6001836020036101000a0380198251168184511680821785525050505050509050019150509081526020016040518091039020600b0160009054906101000a900460ff1660078111156120a857fe5b14806121455750600260078111156120bc57fe5b6009826040518082805190602001908083835b6020831015156120f457805182526020820191506020810190506020830392506120cf565b6001836020036101000a0380198251168184511680821785525050505050509050019150509081526020016040518091039020600b0160009054906101000a900460ff16600781111561214357fe5b145b806121e157506004600781111561215857fe5b6009826040518082805190602001908083835b602083101515612190578051825260208201915060208101905060208303925061216b565b6001836020036101000a0380198251168184511680821785525050505050509050019150509081526020016040518091039020600b0160009054906101000a900460ff1660078111156121df57fe5b145b15156121ec57600080fd5b60088e6040518082805190602001908083835b60208310151561222457805182526020820191506020810190506020830392506121ff565b6001836020036101000a0380198251168184511680821785525050505050509050019150509081526020016040518091039020600101549450610180604051908101604052808e81526020018d81526020018c81526020018681526020018b81526020018a81526020018981526020018881526020018781526020016020604051908101604052806000815250815260200160206040519081016040528060008152508152602001600160078111156122d957fe5b81525060098f6040518082805190602001908083835b60208310151561231457805182526020820191506020810190506020830392506122ef565b6001836020036101000a03801982511681845116808217855250505050505090500191505090815260200160405180910390206000820151816000019080519060200190612363929190614f0f565b506020820151816001019080519060200190612380929190614f0f565b50604082015181600201908051906020019061239d929190614f0f565b50606082015181600301556080820151816004015560a0820151816005015560c0820151816006015560e08201518160070190805190602001906123e2929190614f0f565b50610100820151816008019080519060200190612400929190614f0f565b5061012082015181600901908051906020019061241e929190614f0f565b5061014082015181600a01908051906020019061243c929190614f0f565b5061016082015181600b0160006101000a81548160ff0219169083600781111561246257fe5b02179055509050507fe6f59a77070e9893091d18e67f6954731239059d44d8b79f5a10bb818110ef58610180604051908101604052808f81526020018e81526020018d81526020018781526020018c81526020018b81526020018a815260200189815260200188815260200160206040519081016040528060008152508152602001602060405190810160405280600081525081526020016001600781111561250757fe5b8152506040518082815260200191505060405180910390a15050505050505050505050505050565b60008060008061253d614f8f565b60006009876040518082805190602001908083835b6020831015156125775780518252602082019150602081019050602083039250612552565b6001836020036101000a03801982511681845116808217855250505050505090500191505090815260200160405180910390209050806003015481600401548260050154836006015484600701808054600181600116156101000203166002900480601f0160208091040260200160405190810160405280929190818152602001828054600181600116156101000203166002900480156126595780601f1061262e57610100808354040283529160200191612659565b820191906000526020600020905b81548152906001019060200180831161263c57829003601f168201915b50505050509050955095509550955095505091939590929450565b61267c614fa3565b81600015156008826040518082805190602001908083835b6020831015156126b95780518252602082019150602081019050602083039250612694565b6001836020036101000a038019825116818451168082178552505050505050905001915050908152602001604051809103902060000160009054906101000a900460ff161515148061279c57506001600381111561271357fe5b6008826040518082805190602001908083835b60208310151561274b5780518252602082019150602081019050602083039250612726565b6001836020036101000a038019825116818451168082178552505050505050905001915050908152602001604051809103902060040160009054906101000a900460ff16600381111561279a57fe5b145b806128385750600260038111156127af57fe5b6008826040518082805190602001908083835b6020831015156127e757805182526020820191506020810190506020830392506127c2565b6001836020036101000a038019825116818451168082178552505050505050905001915050908152602001604051809103902060040160009054906101000a900460ff16600381111561283657fe5b145b151561284357600080fd5b600260009054906101000a900460ff1615151561285f57600080fd5b60a0604051908101604052806001151581526020018681526020018581526020018481526020016000600381111561289357fe5b8152509150816008846040518082805190602001908083835b6020831015156128d157805182526020820191506020810190506020830392506128ac565b6001836020036101000a038019825116818451168082178552505050505050905001915050908152602001604051809103902060008201518160000160006101000a81548160ff02191690831515021790555060208201518160010155604082015181600201908051906020019061294a929190614f0f565b506060820151816003019080519060200190612967929190614f0f565b5060808201518160040160006101000a81548160ff0219169083600381111561298c57fe5b02179055509050507f22fd37b1fe46286ffd22c0d41ae3c05e1fdcbc2cb9d88bb64f71e2275fd9852b826040518082815260200191505060405180910390a15050505050565b60006129dc614fa3565b82600115156008826040518082805190602001908083835b602083101515612a1957805182526020820191506020810190506020830392506129f4565b6001836020036101000a038019825116818451168082178552505050505050905001915050908152602001604051809103902060000160009054906101000a900460ff161515141515612a6b57600080fd5b836000806008836040518082805190602001908083835b602083101515612aa75780518252602082019150602081019050602083039250612a82565b6001836020036101000a038019825116818451168082178552505050505050905001915050908152602001604051809103902060040160009054906101000a900460ff16915060006003811115612afa57fe5b826003811115612b0657fe5b1480612b275750600380811115612b1957fe5b826003811115612b2557fe5b145b1515612b3257600080fd5b6009836040518082805190602001908083835b602083101515612b6a5780518252602082019150602081019050602083039250612b45565b6001836020036101000a0380198251168184511680821785525050505050509050019150509081526020016040518091039020600b0160009054906101000a900460ff16905060046007811115612bbd57fe5b816007811115612bc957fe5b1480612beb575060066007811115612bdd57fe5b816007811115612be957fe5b145b80612c0b5750600780811115612bfd57fe5b816007811115612c0957fe5b145b151515612c1757600080fd5b60026008886040518082805190602001908083835b602083101515612c515780518252602082019150602081019050602083039250612c2c565b6001836020036101000a038019825116818451168082178552505050505050905001915050908152602001604051809103902060040160006101000a81548160ff02191690836003811115612ca257fe5b021790555060006007811115612cb457fe5b6009886040518082805190602001908083835b602083101515612cec5780518252602082019150602081019050602083039250612cc7565b6001836020036101000a0380198251168184511680821785525050505050509050019150509081526020016040518091039020600b0160009054906101000a900460ff166007811115612d3b57fe5b141515612dd35760046009886040518082805190602001908083835b602083101515612d7c5780518252602082019150602081019050602083039250612d57565b6001836020036101000a0380198251168184511680821785525050505050509050019150509081526020016040518091039020600b0160006101000a81548160ff02191690836007811115612dcd57fe5b02179055505b6000600260006101000a81548160ff0219169083151502179055506008876040518082805190602001908083835b602083101515612e265780518252602082019150602081019050602083039250612e01565b6001836020036101000a0380198251168184511680821785525050505050509050019150509081526020016040518091039020955060a0604051908101604052808760000160009054906101000a900460ff161515815260200187600101548152602001876002018054600181600116156101000203166002900480601f016020809104026020016040519081016040528092919081815260200182805460018160011615610100020316600290048015612f225780601f10612ef757610100808354040283529160200191612f22565b820191906000526020600020905b815481529060010190602001808311612f0557829003601f168201915b50505050508152602001876003018054600181600116156101000203166002900480601f016020809104026020016040519081016040528092919081815260200182805460018160011615610100020316600290048015612fc45780601f10612f9957610100808354040283529160200191612fc4565b820191906000526020600020905b815481529060010190602001808311612fa757829003601f168201915b505050505081526020018760040160009054906101000a900460ff166003811115612feb57fe5b81525094507fa4630ff3cecd92e1e262df0c2301ac6ac7ea65fc9557ef8034e2ea58f7e42970856040518082815260200191505060405180910390a150505050505050565b600061303a614fa3565b82600115156008826040518082805190602001908083835b6020831015156130775780518252602082019150602081019050602083039250613052565b6001836020036101000a038019825116818451168082178552505050505050905001915050908152602001604051809103902060000160009054906101000a900460ff1615151415156130c957600080fd5b6000848160038111156130d857fe5b6008826040518082805190602001908083835b60208310151561311057805182526020820191506020810190506020830392506130eb565b6001836020036101000a038019825116818451168082178552505050505050905001915050908152602001604051809103902060040160009054906101000a900460ff16600381111561315f57fe5b14151561316b57600080fd5b8661317757600161317a565b60035b6008876040518082805190602001908083835b6020831015156131b2578051825260208201915060208101905060208303925061318d565b6001836020036101000a038019825116818451168082178552505050505050905001915050908152602001604051809103902060040160006101000a81548160ff0219169083600381111561320357fe5b02179055506008866040518082805190602001908083835b602083101515613240578051825260208201915060208101905060208303925061321b565b6001836020036101000a0380198251168184511680821785525050505050509050019150509081526020016040518091039020945060a0604051908101604052808660000160009054906101000a900460ff161515815260200186600101548152602001866002018054600181600116156101000203166002900480601f01602080910402602001604051908101604052809291908181526020018280546001816001161561010002031660029004801561333c5780601f106133115761010080835404028352916020019161333c565b820191906000526020600020905b81548152906001019060200180831161331f57829003601f168201915b50505050508152602001866003018054600181600116156101000203166002900480601f0160208091040260200160405190810160405280929190818152602001828054600181600116156101000203166002900480156133de5780601f106133b3576101008083540402835291602001916133de565b820191906000526020600020905b8154815290600101906020018083116133c157829003601f168201915b505050505081526020018660040160009054906101000a900460ff16600381111561340557fe5b81525093507fa4630ff3cecd92e1e262df0c2301ac6ac7ea65fc9557ef8034e2ea58f7e42970846040518082815260200191505060405180910390a150505050505050565b6000613454614df8565b82600115156008826040518082805190602001908083835b602083101515613491578051825260208201915060208101905060208303925061346c565b6001836020036101000a038019825116818451168082178552505050505050905001915050908152602001604051809103902060000160009054906101000a900460ff1615151415156134e357600080fd5b6003848160038111156134f257fe5b6008826040518082805190602001908083835b60208310151561352a5780518252602082019150602081019050602083039250613505565b6001836020036101000a038019825116818451168082178552505050505050905001915050908152602001604051809103902060040160009054906101000a900460ff16600381111561357957fe5b14151561358557600080fd5b60068681600781111561359457fe5b6009826040518082805190602001908083835b6020831015156135cc57805182526020820191506020810190506020830392506135a7565b6001836020036101000a0380198251168184511680821785525050505050509050019150509081526020016040518091039020600b0160009054906101000a900460ff16600781111561361b57fe5b14151561362757600080fd5b60076009896040518082805190602001908083835b602083101515613661578051825260208201915060208101905060208303925061363c565b6001836020036101000a0380198251168184511680821785525050505050509050019150509081526020016040518091039020600b0160006101000a81548160ff021916908360078111156136b257fe5b02179055506009886040518082805190602001908083835b6020831015156136ef57805182526020820191506020810190506020830392506136ca565b6001836020036101000a0380198251168184511680821785525050505050509050019150509081526020016040518091039020965061018060405190810160405280886000018054600181600116156101000203166002900480601f0160208091040260200160405190810160405280929190818152602001828054600181600116156101000203166002900480156137c95780601f1061379e576101008083540402835291602001916137c9565b820191906000526020600020905b8154815290600101906020018083116137ac57829003601f168201915b50505050508152602001886001018054600181600116156101000203166002900480601f01602080910402602001604051908101604052809291908181526020018280546001816001161561010002031660029004801561386b5780601f106138405761010080835404028352916020019161386b565b820191906000526020600020905b81548152906001019060200180831161384e57829003601f168201915b50505050508152602001886002018054600181600116156101000203166002900480601f01602080910402602001604051908101604052809291908181526020018280546001816001161561010002031660029004801561390d5780601f106138e25761010080835404028352916020019161390d565b820191906000526020600020905b8154815290600101906020018083116138f057829003601f168201915b5050505050815260200188600301548152602001886004015481526020018860050154815260200188600601548152602001886007018054600181600116156101000203166002900480601f0160208091040260200160405190810160405280929190818152602001828054600181600116156101000203166002900480156139d75780601f106139ac576101008083540402835291602001916139d7565b820191906000526020600020905b8154815290600101906020018083116139ba57829003601f168201915b50505050508152602001886008018054600181600116156101000203166002900480601f016020809104026020016040519081016040528092919081815260200182805460018160011615610100020316600290048015613a795780601f10613a4e57610100808354040283529160200191613a79565b820191906000526020600020905b815481529060010190602001808311613a5c57829003601f168201915b50505050508152602001886009018054600181600116156101000203166002900480601f016020809104026020016040519081016040528092919081815260200182805460018160011615610100020316600290048015613b1b5780601f10613af057610100808354040283529160200191613b1b565b820191906000526020600020905b815481529060010190602001808311613afe57829003601f168201915b5050505050815260200188600a018054600181600116156101000203166002900480601f016020809104026020016040519081016040528092919081815260200182805460018160011615610100020316600290048015613bbd5780601f10613b9257610100808354040283529160200191613bbd565b820191906000526020600020905b815481529060010190602001808311613ba057829003601f168201915b5050505050815260200188600b0160009054906101000a900460ff166007811115613be457fe5b81525095507fa25cc4ca5e46d30f936f164ca512e7428f526e42689424e00ea728cde73a3418866040518082815260200191505060405180910390a15050505050505050565b6000613c34614df8565b83600115156008826040518082805190602001908083835b602083101515613c715780518252602082019150602081019050602083039250613c4c565b6001836020036101000a038019825116818451168082178552505050505050905001915050908152602001604051809103902060000160009054906101000a900460ff161515141515613cc357600080fd5b600385816003811115613cd257fe5b6008826040518082805190602001908083835b602083101515613d0a5780518252602082019150602081019050602083039250613ce5565b6001836020036101000a038019825116818451168082178552505050505050905001915050908152602001604051809103902060040160009054906101000a900460ff166003811115613d5957fe5b141515613d6557600080fd5b600187816007811115613d7457fe5b6009826040518082805190602001908083835b602083101515613dac5780518252602082019150602081019050602083039250613d87565b6001836020036101000a0380198251168184511680821785525050505050509050019150509081526020016040518091039020600b0160009054906101000a900460ff166007811115613dfb57fe5b141515613e0757600080fd5b87613e13576002613e16565b60035b60098a6040518082805190602001908083835b602083101515613e4e5780518252602082019150602081019050602083039250613e29565b6001836020036101000a0380198251168184511680821785525050505050509050019150509081526020016040518091039020600b0160006101000a81548160ff02191690836007811115613e9f57fe5b02179055506009896040518082805190602001908083835b602083101515613edc5780518252602082019150602081019050602083039250613eb7565b6001836020036101000a0380198251168184511680821785525050505050509050019150509081526020016040518091039020965061018060405190810160405280886000018054600181600116156101000203166002900480601f016020809104026020016040519081016040528092919081815260200182805460018160011615610100020316600290048015613fb65780601f10613f8b57610100808354040283529160200191613fb6565b820191906000526020600020905b815481529060010190602001808311613f9957829003601f168201915b50505050508152602001886001018054600181600116156101000203166002900480601f0160208091040260200160405190810160405280929190818152602001828054600181600116156101000203166002900480156140585780601f1061402d57610100808354040283529160200191614058565b820191906000526020600020905b81548152906001019060200180831161403b57829003601f168201915b50505050508152602001886002018054600181600116156101000203166002900480601f0160208091040260200160405190810160405280929190818152602001828054600181600116156101000203166002900480156140fa5780601f106140cf576101008083540402835291602001916140fa565b820191906000526020600020905b8154815290600101906020018083116140dd57829003601f168201915b5050505050815260200188600301548152602001886004015481526020018860050154815260200188600601548152602001886007018054600181600116156101000203166002900480601f0160208091040260200160405190810160405280929190818152602001828054600181600116156101000203166002900480156141c45780601f10614199576101008083540402835291602001916141c4565b820191906000526020600020905b8154815290600101906020018083116141a757829003601f168201915b50505050508152602001886008018054600181600116156101000203166002900480601f0160208091040260200160405190810160405280929190818152602001828054600181600116156101000203166002900480156142665780601f1061423b57610100808354040283529160200191614266565b820191906000526020600020905b81548152906001019060200180831161424957829003601f168201915b50505050508152602001886009018054600181600116156101000203166002900480601f0160208091040260200160405190810160405280929190818152602001828054600181600116156101000203166002900480156143085780601f106142dd57610100808354040283529160200191614308565b820191906000526020600020905b8154815290600101906020018083116142eb57829003601f168201915b5050505050815260200188600a018054600181600116156101000203166002900480601f0160208091040260200160405190810160405280929190818152602001828054600181600116156101000203166002900480156143aa5780601f1061437f576101008083540402835291602001916143aa565b820191906000526020600020905b81548152906001019060200180831161438d57829003601f168201915b5050505050815260200188600b0160009054906101000a900460ff1660078111156143d157fe5b81525095507f44754d76561d0684cae6d57963a682ea8a3fc035c4b54cc0456ccd9f72215779866040518082815260200191505060405180910390a1505050505050505050565b614420614f8f565b614428614f8f565b614430614f8f565b60006009856040518082805190602001908083835b60208310151561446a5780518252602082019150602081019050602083039250614445565b6001836020036101000a03801982511681845116808217855250505050505090500191505090815260200160405180910390209050806000018160010182600201828054600181600116156101000203166002900480601f0160208091040260200160405190810160405280929190818152602001828054600181600116156101000203166002900480156145405780601f1061451557610100808354040283529160200191614540565b820191906000526020600020905b81548152906001019060200180831161452357829003601f168201915b50505050509250818054600181600116156101000203166002900480601f0160208091040260200160405190810160405280929190818152602001828054600181600116156101000203166002900480156145dc5780601f106145b1576101008083540402835291602001916145dc565b820191906000526020600020905b8154815290600101906020018083116145bf57829003601f168201915b50505050509150808054600181600116156101000203166002900480601f0160208091040260200160405190810160405280929190818152602001828054600181600116156101000203166002900480156146785780601f1061464d57610100808354040283529160200191614678565b820191906000526020600020905b81548152906001019060200180831161465b57829003601f168201915b50505050509050935093509350509193909250565b600080614698614f8f565b6146a0614f8f565b6000806008876040518082805190602001908083835b6020831015156146db57805182526020820191506020810190506020830392506146b6565b6001836020036101000a038019825116818451168082178552505050505050905001915050908152602001604051809103902090508060000160009054906101000a900460ff16816001015482600201836003018460040160009054906101000a900460ff16828054600181600116156101000203166002900480601f0160208091040260200160405190810160405280929190818152602001828054600181600116156101000203166002900480156147d65780601f106147ab576101008083540402835291602001916147d6565b820191906000526020600020905b8154815290600101906020018083116147b957829003601f168201915b50505050509250818054600181600116156101000203166002900480601f0160208091040260200160405190810160405280929190818152602001828054600181600116156101000203166002900480156148725780601f1061484757610100808354040283529160200191614872565b820191906000526020600020905b81548152906001019060200180831161485557829003601f168201915b50505050509150955095509550955095505091939590929450565b600380600001908060010154908060020154908060030154908060040154905085565b600260009054906101000a900460ff1681565b6148cb614f8f565b6148d3614f8f565b6148db614f8f565b60006009856040518082805190602001908083835b60208310151561491557805182526020820191506020810190506020830392506148f0565b6001836020036101000a03801982511681845116808217855250505050505090500191505090815260200160405180910390209050806008018160090182600a01828054600181600116156101000203166002900480601f0160208091040260200160405190810160405280929190818152602001828054600181600116156101000203166002900480156149eb5780601f106149c0576101008083540402835291602001916149eb565b820191906000526020600020905b8154815290600101906020018083116149ce57829003601f168201915b50505050509250818054600181600116156101000203166002900480601f016020809104026020016040519081016040528092919081815260200182805460018160011615610100020316600290048015614a875780601f10614a5c57610100808354040283529160200191614a87565b820191906000526020600020905b815481529060010190602001808311614a6a57829003601f168201915b50505050509150808054600181600116156101000203166002900480601f016020809104026020016040519081016040528092919081815260200182805460018160011615610100020316600290048015614b235780601f10614af857610100808354040283529160200191614b23565b820191906000526020600020905b815481529060010190602001808311614b0657829003601f168201915b50505050509050935093509350509193909250565b60018054600181600116156101000203166002900480601f016020809104026020016040519081016040528092919081815260200182805460018160011615610100020316600290048015614bce5780601f10614ba357610100808354040283529160200191614bce565b820191906000526020600020905b815481529060010190602001808311614bb157829003601f168201915b505050505081565b6000806009836040518082805190602001908083835b602083101515614c115780518252602082019150602081019050602083039250614bec565b6001836020036101000a0380198251168184511680821785525050505050509050019150509081526020016040518091039020905080600b0160009054906101000a900460ff16915050919050565b8060006009826040518082805190602001908083835b602083101515614c9b5780518252602082019150602081019050602083039250614c76565b6001836020036101000a0380198251168184511680821785525050505050509050019150509081526020016040518091039020600b0160009054906101000a900460ff16905060046007811115614cee57fe5b816007811115614cfa57fe5b1480614d1c575060066007811115614d0e57fe5b816007811115614d1a57fe5b145b80614d3c5750600780811115614d2e57fe5b816007811115614d3a57fe5b145b151515614d4857600080fd5b60046009846040518082805190602001908083835b602083101515614d825780518252602082019150602081019050602083039250614d5d565b6001836020036101000a0380198251168184511680821785525050505050509050019150509081526020016040518091039020600b0160006101000a81548160ff02191690836007811115614dd357fe5b02179055506000600260006101000a81548160ff021916908315150217905550505050565b61018060405190810160405280614e0d614fec565b8152602001614e1a614fec565b8152602001614e27614fec565b815260200160008152602001600081526020016000815260200160008152602001614e50614fec565b8152602001614e5d614fec565b8152602001614e6a614fec565b8152602001614e77614fec565b815260200160006007811115614e8957fe5b81525090565b828054600181600116156101000203166002900490600052602060002090601f016020900481019282601f10614ed057805160ff1916838001178555614efe565b82800160010185558215614efe579182015b82811115614efd578251825591602001919060010190614ee2565b5b509050614f0b9190615000565b5090565b828054600181600116156101000203166002900490600052602060002090601f016020900481019282601f10614f5057805160ff1916838001178555614f7e565b82800160010185558215614f7e579182015b82811115614f7d578251825591602001919060010190614f62565b5b509050614f8b9190615000565b5090565b602060405190810160405280600081525090565b60a06040519081016040528060001515815260200160008152602001614fc7614fec565b8152602001614fd4614fec565b815260200160006003811115614fe657fe5b81525090565b602060405190810160405280600081525090565b61502291905b8082111561501e576000816000905550600101615006565b5090565b905600a165627a7a7230582030af4882586424ebc5e39e57c715940b30bad8943c2327e951d6c0712418c2460029",
  "source": "pragma solidity ^0.4.18;\ncontract EnlistmentToContract {\n\n    // instanciated after the enlistment is approved by admins\n    // price and other params omitted from bc enlistment because they are subject to change\n\n    // compare this with another layer of nesting (all enlistments in one instance)\n\n    address owner;\n    string public landlord;\n    bool public locked = false;\n    Enlistment public enlistment;\n    mapping(string => Offer) tenantOfferMap;\n    mapping(string => AgreementDraft) tenantAgreementMap;\n\n    function EnlistmentToContract(\n        string landlordEmail, string streetName,\n        int floorNr, int apartmentNr, int houseNr,\n        int postalCode) public\n            {\n            enlistment = Enlistment(streetName, floorNr, apartmentNr,\n                houseNr, postalCode);\n            landlord = landlordEmail;\n            owner = msg.sender;\n    }\n\n    enum OfferStatus {\n        PENDING,\n        REJECTED,\n        CANCELLED,\n        ACCEPTED\n    }\n\n    enum AgreementStatus {\n        UNINITIALIZED, // internal\n        PENDING,\n        REJECTED,\n        CONFIRMED,\n        CANCELLED,\n        LANDLORD_SIGNED,\n        TENANT_SIGNED,\n        COMPLETED\n    }\n\n    struct Enlistment {\n        string streetName;\n        int floorNr;\n        int apartmentNr;\n        int houseNr;\n        int postalCode;\n    }\n\n    struct Offer {\n        bool initialized;\n        int amount;\n        string tenantName;\n        string tenantEmail;\n        OfferStatus status;\n    }\n\n    struct AgreementDraft {\n        string landlordName; // for simplicity, there is only one landlord\n        string tenantName; // for simplicity, there is only one tenant and occupants are omitted\n        string tenantEmail;\n        int amount;\n        uint leaseStart;\n        uint handoverDate;\n        uint leasePeriod;\n        string otherTerms;\n        string hash;\n        string landlordSignedHash;\n        string tenantSignedHash;\n        AgreementStatus status;\n    }\n\n    modifier noActiveOffer(string tenantEmail) {\n        require(tenantOfferMap[tenantEmail].initialized == false || tenantOfferMap[tenantEmail].status == OfferStatus.REJECTED || tenantOfferMap[tenantEmail].status == OfferStatus.CANCELLED);\n        _;\n    }\n\n    modifier offerExists(string tenantEmail) {\n        require(tenantOfferMap[tenantEmail].initialized == true);\n        _;\n    }\n\n    modifier offerInStatus(OfferStatus status, string tenantEmail) {\n        require(tenantOfferMap[tenantEmail].status == status);\n        _;\n    }\n\n    modifier offerCancellable(string tenantEmail) {\n        var offerStatus = tenantOfferMap[tenantEmail].status;\n        require(offerStatus == OfferStatus.PENDING || offerStatus == OfferStatus.ACCEPTED);\n        var agreementStatus = tenantAgreementMap[tenantEmail].status;\n        require(!(agreementStatus == AgreementStatus.CANCELLED || agreementStatus == AgreementStatus.TENANT_SIGNED || agreementStatus == AgreementStatus.COMPLETED));\n        _;\n    }\n\n    modifier agreementCanBeSubmitted(string tenantEmail) {\n        require(tenantAgreementMap[tenantEmail].status == AgreementStatus.UNINITIALIZED\n        || tenantAgreementMap[tenantEmail].status == AgreementStatus.REJECTED\n        || tenantAgreementMap[tenantEmail].status == AgreementStatus.CANCELLED);\n        _;\n    }\n\n    modifier agreementInStatus(AgreementStatus status, string tenantEmail) {\n        require(tenantAgreementMap[tenantEmail].status == status);\n        _;\n    }\n\n    modifier agreementCancellable(string tenantEmail) {\n        var agreementStatus = tenantAgreementMap[tenantEmail].status;\n        require(!(agreementStatus == AgreementStatus.CANCELLED ||agreementStatus == AgreementStatus.TENANT_SIGNED || agreementStatus == AgreementStatus.COMPLETED));\n        _;\n    }\n\n    modifier notLocked() {\n        require(!locked);\n        _;\n    }\n\n    modifier maintainerOnly() {\n        require(msg.sender == owner);\n        _;\n    }\n\n    event OfferReceived (Offer offer);\n\n    event AgreementReceived (AgreementDraft agreement);\n\n    event OfferUpdated(Offer offer);\n\n    event AgreementReviewed(AgreementDraft agreement); // vs single updated method? performance vs cost?\n\n    event AgreementLandlordSigned(AgreementDraft agreement);\n\n    event AgreementTenantSigned(AgreementDraft agreement);\n\n    event AgreementCompleted(AgreementDraft agreement);\n\n    // what if the offer is in status PENDING and the tenant wants to send a new one?\n    function sendOffer(int amount, string tenantName, string tenantEmail) payable public\n    noActiveOffer(tenantEmail)\n    notLocked()\n        {\n        var offer = Offer({\n            initialized: true,\n            amount: amount,\n            tenantName: tenantName,\n            tenantEmail: tenantEmail,\n            status: OfferStatus.PENDING\n        });\n        tenantOfferMap[tenantEmail] = offer;\n        OfferReceived(offer); // offer includes the email of the tenant to do event filtering\n    }\n\n    function cancelOffer(string tenantEmail) payable public\n        offerExists(tenantEmail)\n        offerCancellable(tenantEmail)\n    {\n            tenantOfferMap[tenantEmail].status = OfferStatus.CANCELLED;\n            if (tenantAgreementMap[tenantEmail].status != AgreementStatus.UNINITIALIZED) {\n                tenantAgreementMap[tenantEmail].status = AgreementStatus.CANCELLED;\n            }\n            locked = false;\n            var offer = tenantOfferMap[tenantEmail];\n                var typed = Offer(offer.initialized, offer.amount, offer.tenantName, offer.tenantEmail, offer.status);\n                OfferUpdated(typed);\n    }\n\n    function getOffer(string tenantEmail) view public returns (bool, int, string, string, OfferStatus) {\n        var o = tenantOfferMap[tenantEmail];\n        return (o.initialized, o.amount, o.tenantName, o.tenantEmail, o.status);\n    }\n\n    function reviewOffer(bool result, string tenantEmail) payable public\n        offerExists(tenantEmail)\n        offerInStatus(OfferStatus.PENDING, tenantEmail)\n            {\n            tenantOfferMap[tenantEmail].status = result ? OfferStatus.ACCEPTED : OfferStatus.REJECTED;\n            var offer = tenantOfferMap[tenantEmail];\n            var typed = Offer(offer.initialized, offer.amount, offer.tenantName, offer.tenantEmail, offer.status);\n            OfferUpdated(typed);\n    }\n\n    function submitDraft(string tenantEmail, string landlordName, string agreementTenantName, string agreementTenantEmail,\n        uint leaseStart, uint handoverDate, uint leasePeriod, string otherTerms, string hash) payable public\n        offerExists(tenantEmail)\n        offerInStatus(OfferStatus.ACCEPTED, tenantEmail)\n        agreementCanBeSubmitted(tenantEmail)\n    {\n        var amount = tenantOfferMap[tenantEmail].amount;\n        tenantAgreementMap[tenantEmail] = AgreementDraft(landlordName,\n            agreementTenantName, agreementTenantEmail,\n            amount, leaseStart,\n            handoverDate, leasePeriod,\n            otherTerms, hash, \"\", \"\", AgreementStatus.PENDING);\n        // CompilerError: stack too deep, try removing local variables. Error only appears in local development, all good with browser one (remix.ethereum.org)\n        AgreementReceived(AgreementDraft(landlordName,\n            agreementTenantName, agreementTenantEmail,\n            amount, leaseStart,\n            handoverDate, leasePeriod,\n            otherTerms, hash, \"\", \"\", AgreementStatus.PENDING));\n    }\n\n    // getAgreement functions:\n    // can only return tuple of max 7 elements, otherwise throws \"Stack too geep\"\n    // solution: splitted into multiple functions\n\n    function getAgreementParticipants(string tenantEmail) view public returns (string, string, string) {\n        var a = tenantAgreementMap[tenantEmail];\n        return (a.landlordName, a.tenantName, a.tenantEmail);\n    }\n\n    function getAgreementDetails(string tenantEmail) view public returns (int, uint, uint, uint, string) {\n        var a = tenantAgreementMap[tenantEmail];\n        return (a.amount, a.leaseStart, a.handoverDate, a.leasePeriod, a.otherTerms);\n    }\n\n    function getAgreementHashes(string tenantEmail) view public returns (string, string, string) {\n        var a = tenantAgreementMap[tenantEmail];\n        return (a.hash, a.landlordSignedHash, a.tenantSignedHash);\n    }\n\n    function getAgreementStatus(string tenantEmail) view public returns (AgreementStatus) {\n        var a = tenantAgreementMap[tenantEmail];\n        return (a.status);\n    }\n\n    function reviewAgreement(string tenantEmail, bool result) payable public\n        offerExists(tenantEmail)\n        offerInStatus(OfferStatus.ACCEPTED, tenantEmail)\n        agreementInStatus(AgreementStatus.PENDING, tenantEmail)\n            {\n            tenantAgreementMap[tenantEmail].status = result ? AgreementStatus.CONFIRMED : AgreementStatus.REJECTED;\n            var agreement = tenantAgreementMap[tenantEmail];\n            var typed = AgreementDraft(agreement.landlordName, agreement.tenantName,\n                agreement.tenantEmail, agreement.amount, agreement.leaseStart, agreement.handoverDate,\n                agreement.leasePeriod, agreement.otherTerms, agreement.hash,\n                agreement.landlordSignedHash, agreement.tenantSignedHash, agreement.status);\n            AgreementReviewed(typed); // watch out for untyped nested struct\n        }\n\n    function landlordSignAgreement(string tenantEmail, string landlordSignedHash) payable public\n        notLocked()\n        offerExists(tenantEmail)\n        offerInStatus(OfferStatus.ACCEPTED, tenantEmail)\n        agreementInStatus(AgreementStatus.CONFIRMED, tenantEmail)\n        {\n            tenantAgreementMap[tenantEmail].landlordSignedHash = landlordSignedHash;\n            tenantAgreementMap[tenantEmail].status = AgreementStatus.LANDLORD_SIGNED;\n            locked = true;\n            var agreement = tenantAgreementMap[tenantEmail];\n            var typed = AgreementDraft(agreement.landlordName, agreement.tenantName,\n                agreement.tenantEmail, agreement.amount, agreement.leaseStart, agreement.handoverDate,\n                agreement.leasePeriod, agreement.otherTerms, agreement.hash,\n                agreement.landlordSignedHash, agreement.tenantSignedHash, agreement.status);\n            AgreementLandlordSigned(typed); // emitting a struct is more expensive\n    }\n\n    function tenantSignAgreement(string tenantEmail, string tenantSignedHash) payable public\n    offerExists(tenantEmail)\n    offerInStatus(OfferStatus.ACCEPTED, tenantEmail)\n    agreementInStatus(AgreementStatus.LANDLORD_SIGNED, tenantEmail)\n    {\n        tenantAgreementMap[tenantEmail].tenantSignedHash = tenantSignedHash;\n        tenantAgreementMap[tenantEmail].status = AgreementStatus.TENANT_SIGNED;\n        var agreement = tenantAgreementMap[tenantEmail];\n        var typed = AgreementDraft(agreement.landlordName, agreement.tenantName,\n            agreement.tenantEmail, agreement.amount, agreement.leaseStart, agreement.handoverDate,\n            agreement.leasePeriod, agreement.otherTerms, agreement.hash,\n            agreement.landlordSignedHash, agreement.tenantSignedHash, agreement.status);\n        AgreementTenantSigned(typed);\n    }\n\n    function cancelAgreement(string tenantEmail) payable public\n    agreementCancellable(tenantEmail)\n    {\n        tenantAgreementMap[tenantEmail].status = AgreementStatus.CANCELLED;\n        locked = false;\n    }\n\n    function receiveFirstMonthRent(string tenantEmail) payable public\n    offerExists(tenantEmail)\n    offerInStatus(OfferStatus.ACCEPTED, tenantEmail)\n    agreementInStatus(AgreementStatus.TENANT_SIGNED, tenantEmail)\n        {\n        tenantAgreementMap[tenantEmail].status = AgreementStatus.COMPLETED;\n        var agreement = tenantAgreementMap[tenantEmail];\n        var typed = AgreementDraft(agreement.landlordName, agreement.tenantName,\n            agreement.tenantEmail, agreement.amount, agreement.leaseStart, agreement.handoverDate,\n            agreement.leasePeriod, agreement.otherTerms, agreement.hash,\n            agreement.landlordSignedHash, agreement.tenantSignedHash, agreement.status);\n        AgreementCompleted(typed);\n    }\n}\n",
  "sourcePath": "C:\\Users\\vkop\\Documents\\study\\master-thesis\\blockchain-real-estate-v1\\ethereum\\contracts\\EnlistmentToContract.sol",
  "compiler": {
    "name": "solc",
    "version": "0.4.19+commit.c4cbbb05.Emscripten.clang"
  },
  "schemaVersion": "1.0.1",
  "updatedAt": "2018-02-27T17:44:00.555Z"
}