{
  "contractName": "EnlistmentToContract",
  "abi": [
    {
      "constant": true,
      "inputs": [],
      "name": "locked",
      "outputs": [
        {
          "name": "",
          "type": "bool"
        }
      ],
      "payable": false,
      "stateMutability": "view",
      "type": "function"
    },
    {
      "inputs": [
        {
          "name": "landlordEmail",
          "type": "string"
        },
        {
          "name": "streetName",
          "type": "string"
        },
        {
          "name": "floorNr",
          "type": "int256"
        },
        {
          "name": "apartmentNr",
          "type": "int256"
        },
        {
          "name": "houseNr",
          "type": "int256"
        },
        {
          "name": "postalCode",
          "type": "int256"
        }
      ],
      "payable": false,
      "stateMutability": "nonpayable",
      "type": "constructor"
    },
    {
      "anonymous": false,
      "inputs": [
        {
          "components": [
            {
              "name": "initialized",
              "type": "bool"
            },
            {
              "name": "amount",
              "type": "int256"
            },
            {
              "name": "tenantName",
              "type": "string"
            },
            {
              "name": "tenantEmail",
              "type": "string"
            },
            {
              "name": "status",
              "type": "uint8"
            }
          ],
          "indexed": false,
          "name": "offer",
          "type": "tuple"
        }
      ],
      "name": "OfferReceived",
      "type": "event"
    },
    {
      "anonymous": false,
      "inputs": [
        {
          "components": [
            {
              "name": "landlordName",
              "type": "string"
            },
            {
              "name": "tenantName",
              "type": "string"
            },
            {
              "name": "tenantEmail",
              "type": "string"
            },
            {
              "name": "amount",
              "type": "int256"
            },
            {
              "name": "leaseStart",
              "type": "uint256"
            },
            {
              "name": "handoverDate",
              "type": "uint256"
            },
            {
              "name": "leasePeriod",
              "type": "uint256"
            },
            {
              "name": "otherTerms",
              "type": "string"
            },
            {
              "name": "hash",
              "type": "string"
            },
            {
              "name": "landlordSignedHash",
              "type": "string"
            },
            {
              "name": "tenantSignedHash",
              "type": "string"
            },
            {
              "name": "status",
              "type": "uint8"
            }
          ],
          "indexed": false,
          "name": "agreement",
          "type": "tuple"
        }
      ],
      "name": "AgreementReceived",
      "type": "event"
    },
    {
      "anonymous": false,
      "inputs": [
        {
          "components": [
            {
              "name": "initialized",
              "type": "bool"
            },
            {
              "name": "amount",
              "type": "int256"
            },
            {
              "name": "tenantName",
              "type": "string"
            },
            {
              "name": "tenantEmail",
              "type": "string"
            },
            {
              "name": "status",
              "type": "uint8"
            }
          ],
          "indexed": false,
          "name": "offer",
          "type": "tuple"
        }
      ],
      "name": "OfferUpdated",
      "type": "event"
    },
    {
      "anonymous": false,
      "inputs": [
        {
          "components": [
            {
              "name": "landlordName",
              "type": "string"
            },
            {
              "name": "tenantName",
              "type": "string"
            },
            {
              "name": "tenantEmail",
              "type": "string"
            },
            {
              "name": "amount",
              "type": "int256"
            },
            {
              "name": "leaseStart",
              "type": "uint256"
            },
            {
              "name": "handoverDate",
              "type": "uint256"
            },
            {
              "name": "leasePeriod",
              "type": "uint256"
            },
            {
              "name": "otherTerms",
              "type": "string"
            },
            {
              "name": "hash",
              "type": "string"
            },
            {
              "name": "landlordSignedHash",
              "type": "string"
            },
            {
              "name": "tenantSignedHash",
              "type": "string"
            },
            {
              "name": "status",
              "type": "uint8"
            }
          ],
          "indexed": false,
          "name": "agreement",
          "type": "tuple"
        }
      ],
      "name": "AgreementReviewed",
      "type": "event"
    },
    {
      "anonymous": false,
      "inputs": [
        {
          "components": [
            {
              "name": "landlordName",
              "type": "string"
            },
            {
              "name": "tenantName",
              "type": "string"
            },
            {
              "name": "tenantEmail",
              "type": "string"
            },
            {
              "name": "amount",
              "type": "int256"
            },
            {
              "name": "leaseStart",
              "type": "uint256"
            },
            {
              "name": "handoverDate",
              "type": "uint256"
            },
            {
              "name": "leasePeriod",
              "type": "uint256"
            },
            {
              "name": "otherTerms",
              "type": "string"
            },
            {
              "name": "hash",
              "type": "string"
            },
            {
              "name": "landlordSignedHash",
              "type": "string"
            },
            {
              "name": "tenantSignedHash",
              "type": "string"
            },
            {
              "name": "status",
              "type": "uint8"
            }
          ],
          "indexed": false,
          "name": "agreement",
          "type": "tuple"
        }
      ],
      "name": "AgreementLandlordSigned",
      "type": "event"
    },
    {
      "anonymous": false,
      "inputs": [
        {
          "components": [
            {
              "name": "landlordName",
              "type": "string"
            },
            {
              "name": "tenantName",
              "type": "string"
            },
            {
              "name": "tenantEmail",
              "type": "string"
            },
            {
              "name": "amount",
              "type": "int256"
            },
            {
              "name": "leaseStart",
              "type": "uint256"
            },
            {
              "name": "handoverDate",
              "type": "uint256"
            },
            {
              "name": "leasePeriod",
              "type": "uint256"
            },
            {
              "name": "otherTerms",
              "type": "string"
            },
            {
              "name": "hash",
              "type": "string"
            },
            {
              "name": "landlordSignedHash",
              "type": "string"
            },
            {
              "name": "tenantSignedHash",
              "type": "string"
            },
            {
              "name": "status",
              "type": "uint8"
            }
          ],
          "indexed": false,
          "name": "agreement",
          "type": "tuple"
        }
      ],
      "name": "AgreementTenantSigned",
      "type": "event"
    },
    {
      "anonymous": false,
      "inputs": [
        {
          "components": [
            {
              "name": "landlordName",
              "type": "string"
            },
            {
              "name": "tenantName",
              "type": "string"
            },
            {
              "name": "tenantEmail",
              "type": "string"
            },
            {
              "name": "amount",
              "type": "int256"
            },
            {
              "name": "leaseStart",
              "type": "uint256"
            },
            {
              "name": "handoverDate",
              "type": "uint256"
            },
            {
              "name": "leasePeriod",
              "type": "uint256"
            },
            {
              "name": "otherTerms",
              "type": "string"
            },
            {
              "name": "hash",
              "type": "string"
            },
            {
              "name": "landlordSignedHash",
              "type": "string"
            },
            {
              "name": "tenantSignedHash",
              "type": "string"
            },
            {
              "name": "status",
              "type": "uint8"
            }
          ],
          "indexed": false,
          "name": "agreement",
          "type": "tuple"
        }
      ],
      "name": "AgreementCompleted",
      "type": "event"
    },
    {
      "constant": true,
      "inputs": [],
      "name": "getOwner",
      "outputs": [
        {
          "name": "",
          "type": "address"
        }
      ],
      "payable": false,
      "stateMutability": "view",
      "type": "function"
    },
    {
      "constant": true,
      "inputs": [],
      "name": "getLandlord",
      "outputs": [
        {
          "name": "",
          "type": "string"
        }
      ],
      "payable": false,
      "stateMutability": "view",
      "type": "function"
    },
    {
      "constant": true,
      "inputs": [],
      "name": "getEnlistment",
      "outputs": [
        {
          "name": "",
          "type": "string"
        },
        {
          "name": "",
          "type": "int256"
        },
        {
          "name": "",
          "type": "int256"
        },
        {
          "name": "",
          "type": "int256"
        },
        {
          "name": "",
          "type": "int256"
        }
      ],
      "payable": false,
      "stateMutability": "view",
      "type": "function"
    },
    {
      "constant": false,
      "inputs": [
        {
          "name": "amount",
          "type": "int256"
        },
        {
          "name": "tenantName",
          "type": "string"
        },
        {
          "name": "tenantEmail",
          "type": "string"
        }
      ],
      "name": "sendOffer",
      "outputs": [],
      "payable": true,
      "stateMutability": "payable",
      "type": "function"
    },
    {
      "constant": false,
      "inputs": [
        {
          "name": "tenantEmail",
          "type": "string"
        }
      ],
      "name": "cancelOffer",
      "outputs": [],
      "payable": true,
      "stateMutability": "payable",
      "type": "function"
    },
    {
      "constant": true,
      "inputs": [
        {
          "name": "tenantEmail",
          "type": "string"
        }
      ],
      "name": "getOffer",
      "outputs": [
        {
          "name": "",
          "type": "bool"
        },
        {
          "name": "",
          "type": "int256"
        },
        {
          "name": "",
          "type": "string"
        },
        {
          "name": "",
          "type": "string"
        },
        {
          "name": "",
          "type": "uint8"
        }
      ],
      "payable": false,
      "stateMutability": "view",
      "type": "function"
    },
    {
      "constant": false,
      "inputs": [
        {
          "name": "result",
          "type": "bool"
        },
        {
          "name": "tenantEmail",
          "type": "string"
        }
      ],
      "name": "reviewOffer",
      "outputs": [],
      "payable": true,
      "stateMutability": "payable",
      "type": "function"
    },
    {
      "constant": false,
      "inputs": [
        {
          "name": "tenantEmail",
          "type": "string"
        },
        {
          "name": "landlordName",
          "type": "string"
        },
        {
          "name": "agreementTenantName",
          "type": "string"
        },
        {
          "name": "agreementTenantEmail",
          "type": "string"
        },
        {
          "name": "leaseStart",
          "type": "uint256"
        },
        {
          "name": "handoverDate",
          "type": "uint256"
        },
        {
          "name": "leasePeriod",
          "type": "uint256"
        },
        {
          "name": "otherTerms",
          "type": "string"
        },
        {
          "name": "hash",
          "type": "string"
        }
      ],
      "name": "submitDraft",
      "outputs": [],
      "payable": true,
      "stateMutability": "payable",
      "type": "function"
    },
    {
      "constant": true,
      "inputs": [
        {
          "name": "tenantEmail",
          "type": "string"
        }
      ],
      "name": "getAgreementParticipants",
      "outputs": [
        {
          "name": "",
          "type": "string"
        },
        {
          "name": "",
          "type": "string"
        },
        {
          "name": "",
          "type": "string"
        }
      ],
      "payable": false,
      "stateMutability": "view",
      "type": "function"
    },
    {
      "constant": true,
      "inputs": [
        {
          "name": "tenantEmail",
          "type": "string"
        }
      ],
      "name": "getAgreementDetails",
      "outputs": [
        {
          "name": "",
          "type": "int256"
        },
        {
          "name": "",
          "type": "uint256"
        },
        {
          "name": "",
          "type": "uint256"
        },
        {
          "name": "",
          "type": "uint256"
        },
        {
          "name": "",
          "type": "string"
        }
      ],
      "payable": false,
      "stateMutability": "view",
      "type": "function"
    },
    {
      "constant": true,
      "inputs": [
        {
          "name": "tenantEmail",
          "type": "string"
        }
      ],
      "name": "getAgreementHashes",
      "outputs": [
        {
          "name": "",
          "type": "string"
        },
        {
          "name": "",
          "type": "string"
        },
        {
          "name": "",
          "type": "string"
        }
      ],
      "payable": false,
      "stateMutability": "view",
      "type": "function"
    },
    {
      "constant": true,
      "inputs": [
        {
          "name": "tenantEmail",
          "type": "string"
        }
      ],
      "name": "getAgreementStatus",
      "outputs": [
        {
          "name": "",
          "type": "uint8"
        }
      ],
      "payable": false,
      "stateMutability": "view",
      "type": "function"
    },
    {
      "constant": false,
      "inputs": [
        {
          "name": "tenantEmail",
          "type": "string"
        },
        {
          "name": "result",
          "type": "bool"
        }
      ],
      "name": "reviewAgreement",
      "outputs": [],
      "payable": true,
      "stateMutability": "payable",
      "type": "function"
    },
    {
      "constant": false,
      "inputs": [
        {
          "name": "tenantEmail",
          "type": "string"
        },
        {
          "name": "landlordSignedHash",
          "type": "string"
        }
      ],
      "name": "landlordSignAgreement",
      "outputs": [],
      "payable": true,
      "stateMutability": "payable",
      "type": "function"
    },
    {
      "constant": false,
      "inputs": [
        {
          "name": "tenantEmail",
          "type": "string"
        },
        {
          "name": "tenantSignedHash",
          "type": "string"
        }
      ],
      "name": "tenantSignAgreement",
      "outputs": [],
      "payable": true,
      "stateMutability": "payable",
      "type": "function"
    },
    {
      "constant": false,
      "inputs": [
        {
          "name": "tenantEmail",
          "type": "string"
        }
      ],
      "name": "cancelAgreement",
      "outputs": [],
      "payable": true,
      "stateMutability": "payable",
      "type": "function"
    },
    {
      "constant": false,
      "inputs": [
        {
          "name": "tenantEmail",
          "type": "string"
        }
      ],
      "name": "receiveFirstMonthRent",
      "outputs": [],
      "payable": true,
      "stateMutability": "payable",
      "type": "function"
    }
  ],
  "bytecode": "0x60606040526000600260006101000a81548160ff02191690831515021790555034156200002b57600080fd5b60405162005a3f38038062005a3f8339810160405280805182019190602001805182019190602001805190602001909190805190602001909190805190602001909190805190602001909190505060a0604051908101604052808681526020018581526020018481526020018381526020018281525060036000820151816000019080519060200190620000c192919062000152565b5060208201518160010155604082015181600201556060820151816003015560808201518160040155905050856001908051906020019062000105929190620001d9565b50336000806101000a81548173ffffffffffffffffffffffffffffffffffffffff021916908373ffffffffffffffffffffffffffffffffffffffff16021790555050505050505062000288565b828054600181600116156101000203166002900490600052602060002090601f016020900481019282601f106200019557805160ff1916838001178555620001c6565b82800160010185558215620001c6579182015b82811115620001c5578251825591602001919060010190620001a8565b5b509050620001d5919062000260565b5090565b828054600181600116156101000203166002900490600052602060002090601f016020900481019282601f106200021c57805160ff19168380011785556200024d565b828001600101855582156200024d579182015b828111156200024c5782518255916020019190600101906200022f565b5b5090506200025c919062000260565b5090565b6200028591905b808211156200028157600081600090555060010162000267565b5090565b90565b6157a780620002986000396000f3006060604052600436106100fb576000357c0100000000000000000000000000000000000000000000000000000000900463ffffffff168062ff22c61461010057806303746e0614610195578063222a7af91461022a578063265adc33146103e65780632c863d84146104d85780632d63ce27146105765780632fcc176d146105c857806331ae8ed0146106255780634d45780e146106cf578063673a95ef1461072157806371ca15871461077e5780637a5101161461092c578063893d20e814610a95578063cf30901214610aea578063d441a15214610b17578063ec2b2a1214610cc5578063f278f78414610d44578063f502236d14610d96575b600080fd5b610193600480803590602001908201803590602001908080601f0160208091040260200160405190810160405280939291908181526020018383808284378201915050505050509190803590602001908201803590602001908080601f01602080910402602001604051908101604052809392919081815260200183838082843782019150505050505091905050610e24565b005b610228600480803590602001908201803590602001908080601f0160208091040260200160405190810160405280939291908181526020018383808284378201915050505050509190803590602001908201803590602001908080601f016020809104026020016040519081016040528093929190818152602001838380828437820191505050505050919050506116e3565b005b6103e4600480803590602001908201803590602001908080601f0160208091040260200160405190810160405280939291908181526020018383808284378201915050505050509190803590602001908201803590602001908080601f0160208091040260200160405190810160405280939291908181526020018383808284378201915050505050509190803590602001908201803590602001908080601f0160208091040260200160405190810160405280939291908181526020018383808284378201915050505050509190803590602001908201803590602001908080601f0160208091040260200160405190810160405280939291908181526020018383808284378201915050505050509190803590602001909190803590602001909190803590602001909190803590602001908201803590602001908080601f0160208091040260200160405190810160405280939291908181526020018383808284378201915050505050509190803590602001908201803590602001908080601f01602080910402602001604051908101604052809392919081815260200183838082843782019150505050505091905050611fd9565b005b34156103f157600080fd5b610441600480803590602001908201803590602001908080601f01602080910402602001604051908101604052809392919081815260200183838082843782019150505050505091905050612683565b6040518086815260200185815260200184815260200183815260200180602001828103825283818151815260200191508051906020019080838360005b8381101561049957808201518184015260208101905061047e565b50505050905090810190601f1680156104c65780820380516001836020036101000a031916815260200191505b50965050505050505060405180910390f35b610574600480803590602001909190803590602001908201803590602001908080601f0160208091040260200160405190810160405280939291908181526020018383808284378201915050505050509190803590602001908201803590602001908080601f01602080910402602001604051908101604052809392919081815260200183838082843782019150505050505091905050612823565b005b6105c6600480803590602001908201803590602001908080601f01602080910402602001604051908101604052809392919081815260200183838082843782019150505050505091905050612bdc565b005b6106236004808035151590602001909190803590602001908201803590602001908080601f01602080910402602001604051908101604052809392919081815260200183838082843782019150505050505091905050613295565b005b341561063057600080fd5b61063861370a565b6040518080602001868152602001858152602001848152602001838152602001828103825287818151815260200191508051906020019080838360005b83811015610690578082015181840152602081019050610675565b50505050905090810190601f1680156106bd5780820380516001836020036101000a031916815260200191505b50965050505050505060405180910390f35b61071f600480803590602001908201803590602001908080601f0160208091040260200160405190810160405280939291908181526020018383808284378201915050505050509190505061383c565b005b61077c600480803590602001908201803590602001908080601f016020809104026020016040519081016040528093929190818152602001838380828437820191505050505050919080351515906020019091905050614077565b005b341561078957600080fd5b6107d9600480803590602001908201803590602001908080601f016020809104026020016040519081016040528093929190818152602001838380828437820191505050505050919050506148c0565b60405180806020018060200180602001848103845287818151815260200191508051906020019080838360005b83811015610821578082015181840152602081019050610806565b50505050905090810190601f16801561084e5780820380516001836020036101000a031916815260200191505b50848103835286818151815260200191508051906020019080838360005b8381101561088757808201518184015260208101905061086c565b50505050905090810190601f1680156108b45780820380516001836020036101000a031916815260200191505b50848103825285818151815260200191508051906020019080838360005b838110156108ed5780820151818401526020810190506108d2565b50505050905090810190601f16801561091a5780820380516001836020036101000a031916815260200191505b50965050505050505060405180910390f35b341561093757600080fd5b610987600480803590602001908201803590602001908080601f01602080910402602001604051908101604052809392919081815260200183838082843782019150505050505091905050614b90565b604051808615151515815260200185815260200180602001806020018460038111156109af57fe5b60ff168152602001838103835286818151815260200191508051906020019080838360005b838110156109ef5780820151818401526020810190506109d4565b50505050905090810190601f168015610a1c5780820380516001836020036101000a031916815260200191505b50838103825285818151815260200191508051906020019080838360005b83811015610a55578082015181840152602081019050610a3a565b50505050905090810190601f168015610a825780820380516001836020036101000a031916815260200191505b5097505050505050505060405180910390f35b3415610aa057600080fd5b610aa8614deb565b604051808273ffffffffffffffffffffffffffffffffffffffff1673ffffffffffffffffffffffffffffffffffffffff16815260200191505060405180910390f35b3415610af557600080fd5b610afd614e6f565b604051808215151515815260200191505060405180910390f35b3415610b2257600080fd5b610b72600480803590602001908201803590602001908080601f01602080910402602001604051908101604052809392919081815260200183838082843782019150505050505091905050614e82565b60405180806020018060200180602001848103845287818151815260200191508051906020019080838360005b83811015610bba578082015181840152602081019050610b9f565b50505050905090810190601f168015610be75780820380516001836020036101000a031916815260200191505b50848103835286818151815260200191508051906020019080838360005b83811015610c20578082015181840152602081019050610c05565b50505050905090810190601f168015610c4d5780820380516001836020036101000a031916815260200191505b50848103825285818151815260200191508051906020019080838360005b83811015610c86578082015181840152602081019050610c6b565b50505050905090810190601f168015610cb35780820380516001836020036101000a031916815260200191505b50965050505050505060405180910390f35b3415610cd057600080fd5b610d20600480803590602001908201803590602001908080601f01602080910402602001604051908101604052809392919081815260200183838082843782019150505050505091905050615152565b60405180826007811115610d3057fe5b60ff16815260200191505060405180910390f35b610d94600480803590602001908201803590602001908080601f01602080910402602001604051908101604052809392919081815260200183838082843782019150505050505091905050615237565b005b3415610da157600080fd5b610da961544b565b6040518080602001828103825283818151815260200191508051906020019080838360005b83811015610de9578082015181840152602081019050610dce565b50505050905090810190601f168015610e165780820380516001836020036101000a031916815260200191505b509250505060405180910390f35b6000610e2e61554e565b6000809054906101000a900473ffffffffffffffffffffffffffffffffffffffff1673ffffffffffffffffffffffffffffffffffffffff163373ffffffffffffffffffffffffffffffffffffffff16141515610e8957600080fd5b83600115156008826040518082805190602001908083835b602083101515610ec65780518252602082019150602081019050602083039250610ea1565b6001836020036101000a038019825116818451168082178552505050505050905001915050908152602001604051809103902060000160009054906101000a900460ff161515141515610f1857600080fd5b600385816003811115610f2757fe5b6008826040518082805190602001908083835b602083101515610f5f5780518252602082019150602081019050602083039250610f3a565b6001836020036101000a038019825116818451168082178552505050505050905001915050908152602001604051809103902060040160009054906101000a900460ff166003811115610fae57fe5b141515610fba57600080fd5b600587816007811115610fc957fe5b6009826040518082805190602001908083835b6020831015156110015780518252602082019150602081019050602083039250610fdc565b6001836020036101000a0380198251168184511680821785525050505050509050019150509081526020016040518091039020600b0160009054906101000a900460ff16600781111561105057fe5b14151561105c57600080fd5b8760098a6040518082805190602001908083835b6020831015156110955780518252602082019150602081019050602083039250611070565b6001836020036101000a0380198251168184511680821785525050505050509050019150509081526020016040518091039020600a0190805190602001906110de9291906155e5565b50600660098a6040518082805190602001908083835b60208310151561111957805182526020820191506020810190506020830392506110f4565b6001836020036101000a0380198251168184511680821785525050505050509050019150509081526020016040518091039020600b0160006101000a81548160ff0219169083600781111561116a57fe5b02179055506009896040518082805190602001908083835b6020831015156111a75780518252602082019150602081019050602083039250611182565b6001836020036101000a0380198251168184511680821785525050505050509050019150509081526020016040518091039020965061018060405190810160405280886000018054600181600116156101000203166002900480601f0160208091040260200160405190810160405280929190818152602001828054600181600116156101000203166002900480156112815780601f1061125657610100808354040283529160200191611281565b820191906000526020600020905b81548152906001019060200180831161126457829003601f168201915b50505050508152602001886001018054600181600116156101000203166002900480601f0160208091040260200160405190810160405280929190818152602001828054600181600116156101000203166002900480156113235780601f106112f857610100808354040283529160200191611323565b820191906000526020600020905b81548152906001019060200180831161130657829003601f168201915b50505050508152602001886002018054600181600116156101000203166002900480601f0160208091040260200160405190810160405280929190818152602001828054600181600116156101000203166002900480156113c55780601f1061139a576101008083540402835291602001916113c5565b820191906000526020600020905b8154815290600101906020018083116113a857829003601f168201915b5050505050815260200188600301548152602001886004015481526020018860050154815260200188600601548152602001886007018054600181600116156101000203166002900480601f01602080910402602001604051908101604052809291908181526020018280546001816001161561010002031660029004801561148f5780601f106114645761010080835404028352916020019161148f565b820191906000526020600020905b81548152906001019060200180831161147257829003601f168201915b50505050508152602001886008018054600181600116156101000203166002900480601f0160208091040260200160405190810160405280929190818152602001828054600181600116156101000203166002900480156115315780601f1061150657610100808354040283529160200191611531565b820191906000526020600020905b81548152906001019060200180831161151457829003601f168201915b50505050508152602001886009018054600181600116156101000203166002900480601f0160208091040260200160405190810160405280929190818152602001828054600181600116156101000203166002900480156115d35780601f106115a8576101008083540402835291602001916115d3565b820191906000526020600020905b8154815290600101906020018083116115b657829003601f168201915b5050505050815260200188600a018054600181600116156101000203166002900480601f0160208091040260200160405190810160405280929190818152602001828054600181600116156101000203166002900480156116755780601f1061164a57610100808354040283529160200191611675565b820191906000526020600020905b81548152906001019060200180831161165857829003601f168201915b5050505050815260200188600b0160009054906101000a900460ff16600781111561169c57fe5b81525095507f4e1b89552d19258ac8149b571e4f45a50fe09a287b38a77f832a047c6bcc68d5866040518082815260200191505060405180910390a1505050505050505050565b60006116ed61554e565b6000809054906101000a900473ffffffffffffffffffffffffffffffffffffffff1673ffffffffffffffffffffffffffffffffffffffff163373ffffffffffffffffffffffffffffffffffffffff1614151561174857600080fd5b600260009054906101000a900460ff1615151561176457600080fd5b83600115156008826040518082805190602001908083835b6020831015156117a1578051825260208201915060208101905060208303925061177c565b6001836020036101000a038019825116818451168082178552505050505050905001915050908152602001604051809103902060000160009054906101000a900460ff1615151415156117f357600080fd5b60038581600381111561180257fe5b6008826040518082805190602001908083835b60208310151561183a5780518252602082019150602081019050602083039250611815565b6001836020036101000a038019825116818451168082178552505050505050905001915050908152602001604051809103902060040160009054906101000a900460ff16600381111561188957fe5b14151561189557600080fd5b6003878160078111156118a457fe5b6009826040518082805190602001908083835b6020831015156118dc57805182526020820191506020810190506020830392506118b7565b6001836020036101000a0380198251168184511680821785525050505050509050019150509081526020016040518091039020600b0160009054906101000a900460ff16600781111561192b57fe5b14151561193757600080fd5b8760098a6040518082805190602001908083835b602083101515611970578051825260208201915060208101905060208303925061194b565b6001836020036101000a038019825116818451168082178552505050505050905001915050908152602001604051809103902060090190805190602001906119b99291906155e5565b50600560098a6040518082805190602001908083835b6020831015156119f457805182526020820191506020810190506020830392506119cf565b6001836020036101000a0380198251168184511680821785525050505050509050019150509081526020016040518091039020600b0160006101000a81548160ff02191690836007811115611a4557fe5b02179055506001600260006101000a81548160ff0219169083151502179055506009896040518082805190602001908083835b602083101515611a9d5780518252602082019150602081019050602083039250611a78565b6001836020036101000a0380198251168184511680821785525050505050509050019150509081526020016040518091039020965061018060405190810160405280886000018054600181600116156101000203166002900480601f016020809104026020016040519081016040528092919081815260200182805460018160011615610100020316600290048015611b775780601f10611b4c57610100808354040283529160200191611b77565b820191906000526020600020905b815481529060010190602001808311611b5a57829003601f168201915b50505050508152602001886001018054600181600116156101000203166002900480601f016020809104026020016040519081016040528092919081815260200182805460018160011615610100020316600290048015611c195780601f10611bee57610100808354040283529160200191611c19565b820191906000526020600020905b815481529060010190602001808311611bfc57829003601f168201915b50505050508152602001886002018054600181600116156101000203166002900480601f016020809104026020016040519081016040528092919081815260200182805460018160011615610100020316600290048015611cbb5780601f10611c9057610100808354040283529160200191611cbb565b820191906000526020600020905b815481529060010190602001808311611c9e57829003601f168201915b5050505050815260200188600301548152602001886004015481526020018860050154815260200188600601548152602001886007018054600181600116156101000203166002900480601f016020809104026020016040519081016040528092919081815260200182805460018160011615610100020316600290048015611d855780601f10611d5a57610100808354040283529160200191611d85565b820191906000526020600020905b815481529060010190602001808311611d6857829003601f168201915b50505050508152602001886008018054600181600116156101000203166002900480601f016020809104026020016040519081016040528092919081815260200182805460018160011615610100020316600290048015611e275780601f10611dfc57610100808354040283529160200191611e27565b820191906000526020600020905b815481529060010190602001808311611e0a57829003601f168201915b50505050508152602001886009018054600181600116156101000203166002900480601f016020809104026020016040519081016040528092919081815260200182805460018160011615610100020316600290048015611ec95780601f10611e9e57610100808354040283529160200191611ec9565b820191906000526020600020905b815481529060010190602001808311611eac57829003601f168201915b5050505050815260200188600a018054600181600116156101000203166002900480601f016020809104026020016040519081016040528092919081815260200182805460018160011615610100020316600290048015611f6b5780601f10611f4057610100808354040283529160200191611f6b565b820191906000526020600020905b815481529060010190602001808311611f4e57829003601f168201915b5050505050815260200188600b0160009054906101000a900460ff166007811115611f9257fe5b81525095507f10cdb42fdf76ad0b5346e1b5a8377b063a1414721180ce02e75ad89baf742155866040518082815260200191505060405180910390a1505050505050505050565b60008060009054906101000a900473ffffffffffffffffffffffffffffffffffffffff1673ffffffffffffffffffffffffffffffffffffffff163373ffffffffffffffffffffffffffffffffffffffff1614151561203657600080fd5b89600115156008826040518082805190602001908083835b602083101515612073578051825260208201915060208101905060208303925061204e565b6001836020036101000a038019825116818451168082178552505050505050905001915050908152602001604051809103902060000160009054906101000a900460ff1615151415156120c557600080fd5b60038b8160038111156120d457fe5b6008826040518082805190602001908083835b60208310151561210c57805182526020820191506020810190506020830392506120e7565b6001836020036101000a038019825116818451168082178552505050505050905001915050908152602001604051809103902060040160009054906101000a900460ff16600381111561215b57fe5b14151561216757600080fd5b8c6000600781111561217557fe5b6009826040518082805190602001908083835b6020831015156121ad5780518252602082019150602081019050602083039250612188565b6001836020036101000a0380198251168184511680821785525050505050509050019150509081526020016040518091039020600b0160009054906101000a900460ff1660078111156121fc57fe5b148061229957506002600781111561221057fe5b6009826040518082805190602001908083835b6020831015156122485780518252602082019150602081019050602083039250612223565b6001836020036101000a0380198251168184511680821785525050505050509050019150509081526020016040518091039020600b0160009054906101000a900460ff16600781111561229757fe5b145b806123355750600460078111156122ac57fe5b6009826040518082805190602001908083835b6020831015156122e457805182526020820191506020810190506020830392506122bf565b6001836020036101000a0380198251168184511680821785525050505050509050019150509081526020016040518091039020600b0160009054906101000a900460ff16600781111561233357fe5b145b151561234057600080fd5b60088e6040518082805190602001908083835b6020831015156123785780518252602082019150602081019050602083039250612353565b6001836020036101000a0380198251168184511680821785525050505050509050019150509081526020016040518091039020600101549450610180604051908101604052808e81526020018d81526020018c81526020018681526020018b81526020018a815260200189815260200188815260200187815260200160206040519081016040528060008152508152602001602060405190810160405280600081525081526020016001600781111561242d57fe5b81525060098f6040518082805190602001908083835b6020831015156124685780518252602082019150602081019050602083039250612443565b6001836020036101000a038019825116818451168082178552505050505050905001915050908152602001604051809103902060008201518160000190805190602001906124b7929190615665565b5060208201518160010190805190602001906124d4929190615665565b5060408201518160020190805190602001906124f1929190615665565b50606082015181600301556080820151816004015560a0820151816005015560c0820151816006015560e0820151816007019080519060200190612536929190615665565b50610100820151816008019080519060200190612554929190615665565b50610120820151816009019080519060200190612572929190615665565b5061014082015181600a019080519060200190612590929190615665565b5061016082015181600b0160006101000a81548160ff021916908360078111156125b657fe5b02179055509050507fe6f59a77070e9893091d18e67f6954731239059d44d8b79f5a10bb818110ef58610180604051908101604052808f81526020018e81526020018d81526020018781526020018c81526020018b81526020018a815260200189815260200188815260200160206040519081016040528060008152508152602001602060405190810160405280600081525081526020016001600781111561265b57fe5b8152506040518082815260200191505060405180910390a15050505050505050505050505050565b6000806000806126916156e5565b60008060009054906101000a900473ffffffffffffffffffffffffffffffffffffffff1673ffffffffffffffffffffffffffffffffffffffff163373ffffffffffffffffffffffffffffffffffffffff161415156126ee57600080fd5b6009876040518082805190602001908083835b6020831015156127265780518252602082019150602081019050602083039250612701565b6001836020036101000a03801982511681845116808217855250505050505090500191505090815260200160405180910390209050806003015481600401548260050154836006015484600701808054600181600116156101000203166002900480601f0160208091040260200160405190810160405280929190818152602001828054600181600116156101000203166002900480156128085780601f106127dd57610100808354040283529160200191612808565b820191906000526020600020905b8154815290600101906020018083116127eb57829003601f168201915b50505050509050955095509550955095505091939590929450565b61282b6156f9565b6000809054906101000a900473ffffffffffffffffffffffffffffffffffffffff1673ffffffffffffffffffffffffffffffffffffffff163373ffffffffffffffffffffffffffffffffffffffff1614151561288657600080fd5b81600015156008826040518082805190602001908083835b6020831015156128c3578051825260208201915060208101905060208303925061289e565b6001836020036101000a038019825116818451168082178552505050505050905001915050908152602001604051809103902060000160009054906101000a900460ff16151514806129a657506001600381111561291d57fe5b6008826040518082805190602001908083835b6020831015156129555780518252602082019150602081019050602083039250612930565b6001836020036101000a038019825116818451168082178552505050505050905001915050908152602001604051809103902060040160009054906101000a900460ff1660038111156129a457fe5b145b80612a425750600260038111156129b957fe5b6008826040518082805190602001908083835b6020831015156129f157805182526020820191506020810190506020830392506129cc565b6001836020036101000a038019825116818451168082178552505050505050905001915050908152602001604051809103902060040160009054906101000a900460ff166003811115612a4057fe5b145b1515612a4d57600080fd5b600260009054906101000a900460ff16151515612a6957600080fd5b60a06040519081016040528060011515815260200186815260200185815260200184815260200160006003811115612a9d57fe5b8152509150816008846040518082805190602001908083835b602083101515612adb5780518252602082019150602081019050602083039250612ab6565b6001836020036101000a038019825116818451168082178552505050505050905001915050908152602001604051809103902060008201518160000160006101000a81548160ff021916908315150217905550602082015181600101556040820151816002019080519060200190612b54929190615665565b506060820151816003019080519060200190612b71929190615665565b5060808201518160040160006101000a81548160ff02191690836003811115612b9657fe5b02179055509050507f22fd37b1fe46286ffd22c0d41ae3c05e1fdcbc2cb9d88bb64f71e2275fd9852b826040518082815260200191505060405180910390a15050505050565b6000612be66156f9565b6000809054906101000a900473ffffffffffffffffffffffffffffffffffffffff1673ffffffffffffffffffffffffffffffffffffffff163373ffffffffffffffffffffffffffffffffffffffff16141515612c4157600080fd5b82600115156008826040518082805190602001908083835b602083101515612c7e5780518252602082019150602081019050602083039250612c59565b6001836020036101000a038019825116818451168082178552505050505050905001915050908152602001604051809103902060000160009054906101000a900460ff161515141515612cd057600080fd5b836000806008836040518082805190602001908083835b602083101515612d0c5780518252602082019150602081019050602083039250612ce7565b6001836020036101000a038019825116818451168082178552505050505050905001915050908152602001604051809103902060040160009054906101000a900460ff16915060006003811115612d5f57fe5b826003811115612d6b57fe5b1480612d8c5750600380811115612d7e57fe5b826003811115612d8a57fe5b145b1515612d9757600080fd5b6009836040518082805190602001908083835b602083101515612dcf5780518252602082019150602081019050602083039250612daa565b6001836020036101000a0380198251168184511680821785525050505050509050019150509081526020016040518091039020600b0160009054906101000a900460ff16905060046007811115612e2257fe5b816007811115612e2e57fe5b1480612e50575060066007811115612e4257fe5b816007811115612e4e57fe5b145b80612e705750600780811115612e6257fe5b816007811115612e6e57fe5b145b151515612e7c57600080fd5b60026008886040518082805190602001908083835b602083101515612eb65780518252602082019150602081019050602083039250612e91565b6001836020036101000a038019825116818451168082178552505050505050905001915050908152602001604051809103902060040160006101000a81548160ff02191690836003811115612f0757fe5b021790555060006007811115612f1957fe5b6009886040518082805190602001908083835b602083101515612f515780518252602082019150602081019050602083039250612f2c565b6001836020036101000a0380198251168184511680821785525050505050509050019150509081526020016040518091039020600b0160009054906101000a900460ff166007811115612fa057fe5b1415156130385760046009886040518082805190602001908083835b602083101515612fe15780518252602082019150602081019050602083039250612fbc565b6001836020036101000a0380198251168184511680821785525050505050509050019150509081526020016040518091039020600b0160006101000a81548160ff0219169083600781111561303257fe5b02179055505b6000600260006101000a81548160ff0219169083151502179055506008876040518082805190602001908083835b60208310151561308b5780518252602082019150602081019050602083039250613066565b6001836020036101000a0380198251168184511680821785525050505050509050019150509081526020016040518091039020955060a0604051908101604052808760000160009054906101000a900460ff161515815260200187600101548152602001876002018054600181600116156101000203166002900480601f0160208091040260200160405190810160405280929190818152602001828054600181600116156101000203166002900480156131875780601f1061315c57610100808354040283529160200191613187565b820191906000526020600020905b81548152906001019060200180831161316a57829003601f168201915b50505050508152602001876003018054600181600116156101000203166002900480601f0160208091040260200160405190810160405280929190818152602001828054600181600116156101000203166002900480156132295780601f106131fe57610100808354040283529160200191613229565b820191906000526020600020905b81548152906001019060200180831161320c57829003601f168201915b505050505081526020018760040160009054906101000a900460ff16600381111561325057fe5b81525094507fa4630ff3cecd92e1e262df0c2301ac6ac7ea65fc9557ef8034e2ea58f7e42970856040518082815260200191505060405180910390a150505050505050565b600061329f6156f9565b6000809054906101000a900473ffffffffffffffffffffffffffffffffffffffff1673ffffffffffffffffffffffffffffffffffffffff163373ffffffffffffffffffffffffffffffffffffffff161415156132fa57600080fd5b82600115156008826040518082805190602001908083835b6020831015156133375780518252602082019150602081019050602083039250613312565b6001836020036101000a038019825116818451168082178552505050505050905001915050908152602001604051809103902060000160009054906101000a900460ff16151514151561338957600080fd5b60008481600381111561339857fe5b6008826040518082805190602001908083835b6020831015156133d057805182526020820191506020810190506020830392506133ab565b6001836020036101000a038019825116818451168082178552505050505050905001915050908152602001604051809103902060040160009054906101000a900460ff16600381111561341f57fe5b14151561342b57600080fd5b8661343757600161343a565b60035b6008876040518082805190602001908083835b602083101515613472578051825260208201915060208101905060208303925061344d565b6001836020036101000a038019825116818451168082178552505050505050905001915050908152602001604051809103902060040160006101000a81548160ff021916908360038111156134c357fe5b02179055506008866040518082805190602001908083835b60208310151561350057805182526020820191506020810190506020830392506134db565b6001836020036101000a0380198251168184511680821785525050505050509050019150509081526020016040518091039020945060a0604051908101604052808660000160009054906101000a900460ff161515815260200186600101548152602001866002018054600181600116156101000203166002900480601f0160208091040260200160405190810160405280929190818152602001828054600181600116156101000203166002900480156135fc5780601f106135d1576101008083540402835291602001916135fc565b820191906000526020600020905b8154815290600101906020018083116135df57829003601f168201915b50505050508152602001866003018054600181600116156101000203166002900480601f01602080910402602001604051908101604052809291908181526020018280546001816001161561010002031660029004801561369e5780601f106136735761010080835404028352916020019161369e565b820191906000526020600020905b81548152906001019060200180831161368157829003601f168201915b505050505081526020018660040160009054906101000a900460ff1660038111156136c557fe5b81525093507fa4630ff3cecd92e1e262df0c2301ac6ac7ea65fc9557ef8034e2ea58f7e42970846040518082815260200191505060405180910390a150505050505050565b6137126156e5565b6000806000806000809054906101000a900473ffffffffffffffffffffffffffffffffffffffff1673ffffffffffffffffffffffffffffffffffffffff163373ffffffffffffffffffffffffffffffffffffffff1614151561377357600080fd5b60036000016003600101546003600201546003800154600360040154848054600181600116156101000203166002900480601f0160208091040260200160405190810160405280929190818152602001828054600181600116156101000203166002900480156138245780601f106137f957610100808354040283529160200191613824565b820191906000526020600020905b81548152906001019060200180831161380757829003601f168201915b50505050509450945094509450945094509091929394565b600061384661554e565b6000809054906101000a900473ffffffffffffffffffffffffffffffffffffffff1673ffffffffffffffffffffffffffffffffffffffff163373ffffffffffffffffffffffffffffffffffffffff161415156138a157600080fd5b82600115156008826040518082805190602001908083835b6020831015156138de57805182526020820191506020810190506020830392506138b9565b6001836020036101000a038019825116818451168082178552505050505050905001915050908152602001604051809103902060000160009054906101000a900460ff16151514151561393057600080fd5b60038481600381111561393f57fe5b6008826040518082805190602001908083835b6020831015156139775780518252602082019150602081019050602083039250613952565b6001836020036101000a038019825116818451168082178552505050505050905001915050908152602001604051809103902060040160009054906101000a900460ff1660038111156139c657fe5b1415156139d257600080fd5b6006868160078111156139e157fe5b6009826040518082805190602001908083835b602083101515613a1957805182526020820191506020810190506020830392506139f4565b6001836020036101000a0380198251168184511680821785525050505050509050019150509081526020016040518091039020600b0160009054906101000a900460ff166007811115613a6857fe5b141515613a7457600080fd5b60076009896040518082805190602001908083835b602083101515613aae5780518252602082019150602081019050602083039250613a89565b6001836020036101000a0380198251168184511680821785525050505050509050019150509081526020016040518091039020600b0160006101000a81548160ff02191690836007811115613aff57fe5b02179055506009886040518082805190602001908083835b602083101515613b3c5780518252602082019150602081019050602083039250613b17565b6001836020036101000a0380198251168184511680821785525050505050509050019150509081526020016040518091039020965061018060405190810160405280886000018054600181600116156101000203166002900480601f016020809104026020016040519081016040528092919081815260200182805460018160011615610100020316600290048015613c165780601f10613beb57610100808354040283529160200191613c16565b820191906000526020600020905b815481529060010190602001808311613bf957829003601f168201915b50505050508152602001886001018054600181600116156101000203166002900480601f016020809104026020016040519081016040528092919081815260200182805460018160011615610100020316600290048015613cb85780601f10613c8d57610100808354040283529160200191613cb8565b820191906000526020600020905b815481529060010190602001808311613c9b57829003601f168201915b50505050508152602001886002018054600181600116156101000203166002900480601f016020809104026020016040519081016040528092919081815260200182805460018160011615610100020316600290048015613d5a5780601f10613d2f57610100808354040283529160200191613d5a565b820191906000526020600020905b815481529060010190602001808311613d3d57829003601f168201915b5050505050815260200188600301548152602001886004015481526020018860050154815260200188600601548152602001886007018054600181600116156101000203166002900480601f016020809104026020016040519081016040528092919081815260200182805460018160011615610100020316600290048015613e245780601f10613df957610100808354040283529160200191613e24565b820191906000526020600020905b815481529060010190602001808311613e0757829003601f168201915b50505050508152602001886008018054600181600116156101000203166002900480601f016020809104026020016040519081016040528092919081815260200182805460018160011615610100020316600290048015613ec65780601f10613e9b57610100808354040283529160200191613ec6565b820191906000526020600020905b815481529060010190602001808311613ea957829003601f168201915b50505050508152602001886009018054600181600116156101000203166002900480601f016020809104026020016040519081016040528092919081815260200182805460018160011615610100020316600290048015613f685780601f10613f3d57610100808354040283529160200191613f68565b820191906000526020600020905b815481529060010190602001808311613f4b57829003601f168201915b5050505050815260200188600a018054600181600116156101000203166002900480601f01602080910402602001604051908101604052809291908181526020018280546001816001161561010002031660029004801561400a5780601f10613fdf5761010080835404028352916020019161400a565b820191906000526020600020905b815481529060010190602001808311613fed57829003601f168201915b5050505050815260200188600b0160009054906101000a900460ff16600781111561403157fe5b81525095507fa25cc4ca5e46d30f936f164ca512e7428f526e42689424e00ea728cde73a3418866040518082815260200191505060405180910390a15050505050505050565b600061408161554e565b6000809054906101000a900473ffffffffffffffffffffffffffffffffffffffff1673ffffffffffffffffffffffffffffffffffffffff163373ffffffffffffffffffffffffffffffffffffffff161415156140dc57600080fd5b83600115156008826040518082805190602001908083835b60208310151561411957805182526020820191506020810190506020830392506140f4565b6001836020036101000a038019825116818451168082178552505050505050905001915050908152602001604051809103902060000160009054906101000a900460ff16151514151561416b57600080fd5b60038581600381111561417a57fe5b6008826040518082805190602001908083835b6020831015156141b2578051825260208201915060208101905060208303925061418d565b6001836020036101000a038019825116818451168082178552505050505050905001915050908152602001604051809103902060040160009054906101000a900460ff16600381111561420157fe5b14151561420d57600080fd5b60018781600781111561421c57fe5b6009826040518082805190602001908083835b602083101515614254578051825260208201915060208101905060208303925061422f565b6001836020036101000a0380198251168184511680821785525050505050509050019150509081526020016040518091039020600b0160009054906101000a900460ff1660078111156142a357fe5b1415156142af57600080fd5b876142bb5760026142be565b60035b60098a6040518082805190602001908083835b6020831015156142f657805182526020820191506020810190506020830392506142d1565b6001836020036101000a0380198251168184511680821785525050505050509050019150509081526020016040518091039020600b0160006101000a81548160ff0219169083600781111561434757fe5b02179055506009896040518082805190602001908083835b602083101515614384578051825260208201915060208101905060208303925061435f565b6001836020036101000a0380198251168184511680821785525050505050509050019150509081526020016040518091039020965061018060405190810160405280886000018054600181600116156101000203166002900480601f01602080910402602001604051908101604052809291908181526020018280546001816001161561010002031660029004801561445e5780601f106144335761010080835404028352916020019161445e565b820191906000526020600020905b81548152906001019060200180831161444157829003601f168201915b50505050508152602001886001018054600181600116156101000203166002900480601f0160208091040260200160405190810160405280929190818152602001828054600181600116156101000203166002900480156145005780601f106144d557610100808354040283529160200191614500565b820191906000526020600020905b8154815290600101906020018083116144e357829003601f168201915b50505050508152602001886002018054600181600116156101000203166002900480601f0160208091040260200160405190810160405280929190818152602001828054600181600116156101000203166002900480156145a25780601f10614577576101008083540402835291602001916145a2565b820191906000526020600020905b81548152906001019060200180831161458557829003601f168201915b5050505050815260200188600301548152602001886004015481526020018860050154815260200188600601548152602001886007018054600181600116156101000203166002900480601f01602080910402602001604051908101604052809291908181526020018280546001816001161561010002031660029004801561466c5780601f106146415761010080835404028352916020019161466c565b820191906000526020600020905b81548152906001019060200180831161464f57829003601f168201915b50505050508152602001886008018054600181600116156101000203166002900480601f01602080910402602001604051908101604052809291908181526020018280546001816001161561010002031660029004801561470e5780601f106146e35761010080835404028352916020019161470e565b820191906000526020600020905b8154815290600101906020018083116146f157829003601f168201915b50505050508152602001886009018054600181600116156101000203166002900480601f0160208091040260200160405190810160405280929190818152602001828054600181600116156101000203166002900480156147b05780601f10614785576101008083540402835291602001916147b0565b820191906000526020600020905b81548152906001019060200180831161479357829003601f168201915b5050505050815260200188600a018054600181600116156101000203166002900480601f0160208091040260200160405190810160405280929190818152602001828054600181600116156101000203166002900480156148525780601f1061482757610100808354040283529160200191614852565b820191906000526020600020905b81548152906001019060200180831161483557829003601f168201915b5050505050815260200188600b0160009054906101000a900460ff16600781111561487957fe5b81525095507f44754d76561d0684cae6d57963a682ea8a3fc035c4b54cc0456ccd9f72215779866040518082815260200191505060405180910390a1505050505050505050565b6148c86156e5565b6148d06156e5565b6148d86156e5565b60008060009054906101000a900473ffffffffffffffffffffffffffffffffffffffff1673ffffffffffffffffffffffffffffffffffffffff163373ffffffffffffffffffffffffffffffffffffffff1614151561493557600080fd5b6009856040518082805190602001908083835b60208310151561496d5780518252602082019150602081019050602083039250614948565b6001836020036101000a03801982511681845116808217855250505050505090500191505090815260200160405180910390209050806000018160010182600201828054600181600116156101000203166002900480601f016020809104026020016040519081016040528092919081815260200182805460018160011615610100020316600290048015614a435780601f10614a1857610100808354040283529160200191614a43565b820191906000526020600020905b815481529060010190602001808311614a2657829003601f168201915b50505050509250818054600181600116156101000203166002900480601f016020809104026020016040519081016040528092919081815260200182805460018160011615610100020316600290048015614adf5780601f10614ab457610100808354040283529160200191614adf565b820191906000526020600020905b815481529060010190602001808311614ac257829003601f168201915b50505050509150808054600181600116156101000203166002900480601f016020809104026020016040519081016040528092919081815260200182805460018160011615610100020316600290048015614b7b5780601f10614b5057610100808354040283529160200191614b7b565b820191906000526020600020905b815481529060010190602001808311614b5e57829003601f168201915b50505050509050935093509350509193909250565b600080614b9b6156e5565b614ba36156e5565b6000806000809054906101000a900473ffffffffffffffffffffffffffffffffffffffff1673ffffffffffffffffffffffffffffffffffffffff163373ffffffffffffffffffffffffffffffffffffffff16141515614c0157600080fd5b6008876040518082805190602001908083835b602083101515614c395780518252602082019150602081019050602083039250614c14565b6001836020036101000a038019825116818451168082178552505050505050905001915050908152602001604051809103902090508060000160009054906101000a900460ff16816001015482600201836003018460040160009054906101000a900460ff16828054600181600116156101000203166002900480601f016020809104026020016040519081016040528092919081815260200182805460018160011615610100020316600290048015614d345780601f10614d0957610100808354040283529160200191614d34565b820191906000526020600020905b815481529060010190602001808311614d1757829003601f168201915b50505050509250818054600181600116156101000203166002900480601f016020809104026020016040519081016040528092919081815260200182805460018160011615610100020316600290048015614dd05780601f10614da557610100808354040283529160200191614dd0565b820191906000526020600020905b815481529060010190602001808311614db357829003601f168201915b50505050509150955095509550955095505091939590929450565b60008060009054906101000a900473ffffffffffffffffffffffffffffffffffffffff1673ffffffffffffffffffffffffffffffffffffffff163373ffffffffffffffffffffffffffffffffffffffff16141515614e4857600080fd5b6000809054906101000a900473ffffffffffffffffffffffffffffffffffffffff16905090565b600260009054906101000a900460ff1681565b614e8a6156e5565b614e926156e5565b614e9a6156e5565b60008060009054906101000a900473ffffffffffffffffffffffffffffffffffffffff1673ffffffffffffffffffffffffffffffffffffffff163373ffffffffffffffffffffffffffffffffffffffff16141515614ef757600080fd5b6009856040518082805190602001908083835b602083101515614f2f5780518252602082019150602081019050602083039250614f0a565b6001836020036101000a03801982511681845116808217855250505050505090500191505090815260200160405180910390209050806008018160090182600a01828054600181600116156101000203166002900480601f0160208091040260200160405190810160405280929190818152602001828054600181600116156101000203166002900480156150055780601f10614fda57610100808354040283529160200191615005565b820191906000526020600020905b815481529060010190602001808311614fe857829003601f168201915b50505050509250818054600181600116156101000203166002900480601f0160208091040260200160405190810160405280929190818152602001828054600181600116156101000203166002900480156150a15780601f10615076576101008083540402835291602001916150a1565b820191906000526020600020905b81548152906001019060200180831161508457829003601f168201915b50505050509150808054600181600116156101000203166002900480601f01602080910402602001604051908101604052809291908181526020018280546001816001161561010002031660029004801561513d5780601f106151125761010080835404028352916020019161513d565b820191906000526020600020905b81548152906001019060200180831161512057829003601f168201915b50505050509050935093509350509193909250565b6000806000809054906101000a900473ffffffffffffffffffffffffffffffffffffffff1673ffffffffffffffffffffffffffffffffffffffff163373ffffffffffffffffffffffffffffffffffffffff161415156151b057600080fd5b6009836040518082805190602001908083835b6020831015156151e857805182526020820191506020810190506020830392506151c3565b6001836020036101000a0380198251168184511680821785525050505050509050019150509081526020016040518091039020905080600b0160009054906101000a900460ff16915050919050565b6000809054906101000a900473ffffffffffffffffffffffffffffffffffffffff1673ffffffffffffffffffffffffffffffffffffffff163373ffffffffffffffffffffffffffffffffffffffff1614151561529257600080fd5b8060006009826040518082805190602001908083835b6020831015156152cd57805182526020820191506020810190506020830392506152a8565b6001836020036101000a0380198251168184511680821785525050505050509050019150509081526020016040518091039020600b0160009054906101000a900460ff1690506004600781111561532057fe5b81600781111561532c57fe5b148061534e57506006600781111561534057fe5b81600781111561534c57fe5b145b8061536e575060078081111561536057fe5b81600781111561536c57fe5b145b8061538f57506002600781111561538157fe5b81600781111561538d57fe5b145b15151561539b57600080fd5b60046009846040518082805190602001908083835b6020831015156153d557805182526020820191506020810190506020830392506153b0565b6001836020036101000a0380198251168184511680821785525050505050509050019150509081526020016040518091039020600b0160006101000a81548160ff0219169083600781111561542657fe5b02179055506000600260006101000a81548160ff021916908315150217905550505050565b6154536156e5565b6000809054906101000a900473ffffffffffffffffffffffffffffffffffffffff1673ffffffffffffffffffffffffffffffffffffffff163373ffffffffffffffffffffffffffffffffffffffff161415156154ae57600080fd5b60018054600181600116156101000203166002900480601f0160208091040260200160405190810160405280929190818152602001828054600181600116156101000203166002900480156155445780601f1061551957610100808354040283529160200191615544565b820191906000526020600020905b81548152906001019060200180831161552757829003601f168201915b5050505050905090565b61018060405190810160405280615563615742565b8152602001615570615742565b815260200161557d615742565b8152602001600081526020016000815260200160008152602001600081526020016155a6615742565b81526020016155b3615742565b81526020016155c0615742565b81526020016155cd615742565b8152602001600060078111156155df57fe5b81525090565b828054600181600116156101000203166002900490600052602060002090601f016020900481019282601f1061562657805160ff1916838001178555615654565b82800160010185558215615654579182015b82811115615653578251825591602001919060010190615638565b5b5090506156619190615756565b5090565b828054600181600116156101000203166002900490600052602060002090601f016020900481019282601f106156a657805160ff19168380011785556156d4565b828001600101855582156156d4579182015b828111156156d35782518255916020019190600101906156b8565b5b5090506156e19190615756565b5090565b602060405190810160405280600081525090565b60a0604051908101604052806000151581526020016000815260200161571d615742565b815260200161572a615742565b81526020016000600381111561573c57fe5b81525090565b602060405190810160405280600081525090565b61577891905b8082111561577457600081600090555060010161575c565b5090565b905600a165627a7a723058209c6475d26556e6693f457c35b6999173362143e063c0e035c5d400778ca2e3130029",
  "source": "pragma solidity ^0.4.18;\ncontract EnlistmentToContract {\n\n    address owner;\n    string landlord;\n    bool public locked = false;\n    Enlistment enlistment;\n    mapping(string => Offer) tenantOfferMap;\n    mapping(string => AgreementDraft) tenantAgreementMap;\n\n    function EnlistmentToContract(string landlordEmail, string streetName, int floorNr, int apartmentNr, int houseNr, int postalCode) public\n    {\n        enlistment = Enlistment(streetName, floorNr, apartmentNr, houseNr, postalCode);\n        landlord = landlordEmail;\n        owner = msg.sender;\n    }\n\n    function getOwner() view public ownerOnly() returns (address) {\n        return owner;\n    }\n\n    function getLandlord() view public ownerOnly() returns (string) {\n        return landlord;\n    }\n\n    function getEnlistment() view public ownerOnly() returns (string, int, int, int, int) {\n        return (enlistment.streetName, enlistment.floorNr, enlistment.apartmentNr, enlistment.houseNr, enlistment.postalCode);\n    }\n\n    enum OfferStatus {\n        PENDING,\n        REJECTED,\n        CANCELLED,\n        ACCEPTED\n    }\n\n    enum AgreementStatus {\n        UNINITIALIZED, // internal\n        PENDING,\n        REJECTED,\n        CONFIRMED,\n        CANCELLED,\n        LANDLORD_SIGNED,\n        TENANT_SIGNED,\n        COMPLETED\n    }\n\n    struct Enlistment {\n        string streetName;\n        int floorNr;\n        int apartmentNr;\n        int houseNr;\n        int postalCode;\n    }\n\n    struct Offer {\n        bool initialized;\n        int amount;\n        string tenantName;\n        string tenantEmail;\n        OfferStatus status;\n    }\n\n    struct AgreementDraft {\n        string landlordName; // for simplicity, there is only one landlord\n        string tenantName; // for simplicity, there is only one tenant and occupants are omitted\n        string tenantEmail;\n        int amount;\n        uint leaseStart;\n        uint handoverDate;\n        uint leasePeriod;\n        string otherTerms;\n        string hash;\n        string landlordSignedHash;\n        string tenantSignedHash;\n        AgreementStatus status;\n    }\n\n    modifier noActiveOffer(string tenantEmail) {\n        require(tenantOfferMap[tenantEmail].initialized == false || tenantOfferMap[tenantEmail].status == OfferStatus.REJECTED || tenantOfferMap[tenantEmail].status == OfferStatus.CANCELLED);\n        _;\n    }\n\n    modifier offerExists(string tenantEmail) {\n        require(tenantOfferMap[tenantEmail].initialized == true);\n        _;\n    }\n\n    modifier offerInStatus(OfferStatus status, string tenantEmail) {\n        require(tenantOfferMap[tenantEmail].status == status);\n        _;\n    }\n\n    modifier offerCancellable(string tenantEmail) {\n        var offerStatus = tenantOfferMap[tenantEmail].status;\n        require(offerStatus == OfferStatus.PENDING || offerStatus == OfferStatus.ACCEPTED);\n        var agreementStatus = tenantAgreementMap[tenantEmail].status;\n        require(!(agreementStatus == AgreementStatus.CANCELLED || agreementStatus == AgreementStatus.TENANT_SIGNED || agreementStatus == AgreementStatus.COMPLETED));\n        _;\n    }\n\n    modifier agreementCanBeSubmitted(string tenantEmail) {\n        require(tenantAgreementMap[tenantEmail].status == AgreementStatus.UNINITIALIZED ||\n        tenantAgreementMap[tenantEmail].status == AgreementStatus.REJECTED || tenantAgreementMap[tenantEmail].status == AgreementStatus.CANCELLED);\n        _;\n    }\n\n    modifier agreementInStatus(AgreementStatus status, string tenantEmail) {\n        require(tenantAgreementMap[tenantEmail].status == status);\n        _;\n    }\n\n    modifier agreementCancellable(string tenantEmail) {\n        var agreementStatus = tenantAgreementMap[tenantEmail].status;\n        require(!(agreementStatus == AgreementStatus.CANCELLED || agreementStatus == AgreementStatus.TENANT_SIGNED || agreementStatus == AgreementStatus.COMPLETED || agreementStatus == AgreementStatus.REJECTED));\n        _;\n    }\n\n    modifier notLocked() {\n        require(!locked);\n        _;\n    }\n\n    modifier ownerOnly() {\n        require(msg.sender == owner);\n        _;\n    }\n\n    event OfferReceived (Offer offer);\n\n    event AgreementReceived (AgreementDraft agreement);\n\n    event OfferUpdated(Offer offer);\n\n    event AgreementReviewed(AgreementDraft agreement); // vs single updated method? performance vs cost?\n\n    event AgreementLandlordSigned(AgreementDraft agreement);\n\n    event AgreementTenantSigned(AgreementDraft agreement);\n\n    event AgreementCompleted(AgreementDraft agreement);\n\n    // what if the offer is in status PENDING and the tenant wants to send a new one?\n    function sendOffer(int amount, string tenantName, string tenantEmail) payable public\n        ownerOnly()\n        noActiveOffer(tenantEmail)\n        notLocked()\n    {\n        var offer = Offer({\n            initialized: true,\n            amount: amount,\n            tenantName: tenantName,\n            tenantEmail: tenantEmail,\n            status: OfferStatus.PENDING\n        });\n        tenantOfferMap[tenantEmail] = offer;\n        OfferReceived(offer); // offer includes the email of the tenant to do event filtering\n    }\n\n    function cancelOffer(string tenantEmail) payable public\n        ownerOnly()\n        offerExists(tenantEmail)\n        offerCancellable(tenantEmail)\n    {\n        tenantOfferMap[tenantEmail].status = OfferStatus.CANCELLED;\n        if (tenantAgreementMap[tenantEmail].status != AgreementStatus.UNINITIALIZED) {\n            tenantAgreementMap[tenantEmail].status = AgreementStatus.CANCELLED;\n        }\n        locked = false;\n        var offer = tenantOfferMap[tenantEmail];\n        var typed = Offer(offer.initialized, offer.amount, offer.tenantName, offer.tenantEmail, offer.status);\n        OfferUpdated(typed);\n    }\n\n    function getOffer(string tenantEmail) view public ownerOnly() returns (bool, int, string, string, OfferStatus) {\n        var o = tenantOfferMap[tenantEmail];\n        return (o.initialized, o.amount, o.tenantName, o.tenantEmail, o.status);\n    }\n\n    function reviewOffer(bool result, string tenantEmail) payable public\n        ownerOnly()\n        offerExists(tenantEmail)\n        offerInStatus(OfferStatus.PENDING, tenantEmail)\n    {\n        tenantOfferMap[tenantEmail].status = result ? OfferStatus.ACCEPTED : OfferStatus.REJECTED;\n        var offer = tenantOfferMap[tenantEmail];\n        var typed = Offer(offer.initialized, offer.amount, offer.tenantName, offer.tenantEmail, offer.status);\n        OfferUpdated(typed);\n    }\n\n    function submitDraft(string tenantEmail, string landlordName, string agreementTenantName, string agreementTenantEmail,\n        uint leaseStart, uint handoverDate, uint leasePeriod, string otherTerms, string hash) payable public\n        ownerOnly()\n        offerExists(tenantEmail)\n        offerInStatus(OfferStatus.ACCEPTED, tenantEmail)\n        agreementCanBeSubmitted(tenantEmail)\n    {\n        var amount = tenantOfferMap[tenantEmail].amount;\n        tenantAgreementMap[tenantEmail] = AgreementDraft(landlordName,\n            agreementTenantName, agreementTenantEmail,\n            amount, leaseStart,\n            handoverDate, leasePeriod,\n            otherTerms, hash, \"\", \"\", AgreementStatus.PENDING);\n        // CompilerError: stack too deep, try removing local variables. Error only appears in local development, all good with browser one (remix.ethereum.org)\n        AgreementReceived(AgreementDraft(landlordName,\n            agreementTenantName, agreementTenantEmail,\n            amount, leaseStart,\n            handoverDate, leasePeriod,\n            otherTerms, hash, \"\", \"\", AgreementStatus.PENDING));\n    }\n\n    // getAgreement functions:\n    // can only return tuple of max 7 elements, otherwise throws \"Stack too geep\"\n    // solution: splitted into multiple functions\n\n    function getAgreementParticipants(string tenantEmail) view public ownerOnly() returns (string, string, string) {\n        var a = tenantAgreementMap[tenantEmail];\n        return (a.landlordName, a.tenantName, a.tenantEmail);\n    }\n\n    function getAgreementDetails(string tenantEmail) view public ownerOnly() returns (int, uint, uint, uint, string) {\n        var a = tenantAgreementMap[tenantEmail];\n        return (a.amount, a.leaseStart, a.handoverDate, a.leasePeriod, a.otherTerms);\n    }\n\n    function getAgreementHashes(string tenantEmail) view public ownerOnly() returns (string, string, string) {\n        var a = tenantAgreementMap[tenantEmail];\n        return (a.hash, a.landlordSignedHash, a.tenantSignedHash);\n    }\n\n    function getAgreementStatus(string tenantEmail) view public ownerOnly() returns (AgreementStatus) {\n        var a = tenantAgreementMap[tenantEmail];\n        return (a.status);\n    }\n\n    function reviewAgreement(string tenantEmail, bool result) payable public\n        ownerOnly()\n        offerExists(tenantEmail)\n        offerInStatus(OfferStatus.ACCEPTED, tenantEmail)\n        agreementInStatus(AgreementStatus.PENDING, tenantEmail)\n    {\n        tenantAgreementMap[tenantEmail].status = result ? AgreementStatus.CONFIRMED : AgreementStatus.REJECTED;\n        var agreement = tenantAgreementMap[tenantEmail];\n        var typed = AgreementDraft(agreement.landlordName, agreement.tenantName,\n            agreement.tenantEmail, agreement.amount, agreement.leaseStart, agreement.handoverDate,\n            agreement.leasePeriod, agreement.otherTerms, agreement.hash,\n            agreement.landlordSignedHash, agreement.tenantSignedHash, agreement.status);\n        AgreementReviewed(typed);\n        // watch out for untyped nested struct\n    }\n\n    function landlordSignAgreement(string tenantEmail, string landlordSignedHash) payable public\n        ownerOnly()\n        notLocked()\n        offerExists(tenantEmail)\n        offerInStatus(OfferStatus.ACCEPTED, tenantEmail)\n        agreementInStatus(AgreementStatus.CONFIRMED, tenantEmail)\n    {\n        tenantAgreementMap[tenantEmail].landlordSignedHash = landlordSignedHash;\n        tenantAgreementMap[tenantEmail].status = AgreementStatus.LANDLORD_SIGNED;\n        locked = true;\n        var agreement = tenantAgreementMap[tenantEmail];\n        var typed = AgreementDraft(agreement.landlordName, agreement.tenantName,\n            agreement.tenantEmail, agreement.amount, agreement.leaseStart, agreement.handoverDate,\n            agreement.leasePeriod, agreement.otherTerms, agreement.hash,\n            agreement.landlordSignedHash, agreement.tenantSignedHash, agreement.status);\n        AgreementLandlordSigned(typed);\n        // emitting a struct is more expensive\n    }\n\n    function tenantSignAgreement(string tenantEmail, string tenantSignedHash) payable public\n        ownerOnly()\n        offerExists(tenantEmail)\n        offerInStatus(OfferStatus.ACCEPTED, tenantEmail)\n        agreementInStatus(AgreementStatus.LANDLORD_SIGNED, tenantEmail)\n    {\n        tenantAgreementMap[tenantEmail].tenantSignedHash = tenantSignedHash;\n        tenantAgreementMap[tenantEmail].status = AgreementStatus.TENANT_SIGNED;\n        var agreement = tenantAgreementMap[tenantEmail];\n        var typed = AgreementDraft(agreement.landlordName, agreement.tenantName,\n            agreement.tenantEmail, agreement.amount, agreement.leaseStart, agreement.handoverDate,\n            agreement.leasePeriod, agreement.otherTerms, agreement.hash,\n            agreement.landlordSignedHash, agreement.tenantSignedHash, agreement.status);\n        AgreementTenantSigned(typed);\n    }\n\n    function cancelAgreement(string tenantEmail) payable public\n        ownerOnly()\n        agreementCancellable(tenantEmail)\n    {\n        tenantAgreementMap[tenantEmail].status = AgreementStatus.CANCELLED;\n        locked = false;\n    }\n\n    function receiveFirstMonthRent(string tenantEmail) payable public\n        ownerOnly()\n        offerExists(tenantEmail)\n        offerInStatus(OfferStatus.ACCEPTED, tenantEmail)\n        agreementInStatus(AgreementStatus.TENANT_SIGNED, tenantEmail)\n    {\n        tenantAgreementMap[tenantEmail].status = AgreementStatus.COMPLETED;\n        var agreement = tenantAgreementMap[tenantEmail];\n        var typed = AgreementDraft(agreement.landlordName, agreement.tenantName,\n            agreement.tenantEmail, agreement.amount, agreement.leaseStart, agreement.handoverDate,\n            agreement.leasePeriod, agreement.otherTerms, agreement.hash,\n            agreement.landlordSignedHash, agreement.tenantSignedHash, agreement.status);\n        AgreementCompleted(typed);\n    }\n}\n",
  "sourcePath": "/Users/Indrek/Ulikool/Thesis/blockchain-real-estate-v1/ethereum/contracts/EnlistmentToContract.sol",
  "compiler": {
    "name": "solc",
    "version": "0.4.19+commit.c4cbbb05.Emscripten.clang"
  },
  "schemaVersion": "1.0.1",
  "updatedAt": "2018-03-23T20:01:49.196Z"
}