{
  "contractName": "EnlistmentToContract",
  "abi": [
    {
      "constant": true,
      "inputs": [],
      "name": "enlistment",
      "outputs": [
        {
          "name": "streetName",
          "type": "string"
        },
        {
          "name": "floorNr",
          "type": "int256"
        },
        {
          "name": "apartmentNr",
          "type": "int256"
        },
        {
          "name": "houseNr",
          "type": "int256"
        },
        {
          "name": "postalCode",
          "type": "int256"
        }
      ],
      "payable": false,
      "stateMutability": "view",
      "type": "function"
    },
    {
      "constant": true,
      "inputs": [],
      "name": "landlord",
      "outputs": [
        {
          "name": "",
          "type": "string"
        }
      ],
      "payable": false,
      "stateMutability": "view",
      "type": "function"
    },
    {
      "inputs": [
        {
          "name": "landlordEmail",
          "type": "string"
        },
        {
          "name": "streetName",
          "type": "string"
        },
        {
          "name": "floorNr",
          "type": "int256"
        },
        {
          "name": "apartmentNr",
          "type": "int256"
        },
        {
          "name": "houseNr",
          "type": "int256"
        },
        {
          "name": "postalCode",
          "type": "int256"
        }
      ],
      "payable": false,
      "stateMutability": "nonpayable",
      "type": "constructor"
    },
    {
      "anonymous": false,
      "inputs": [
        {
          "components": [
            {
              "name": "initialized",
              "type": "bool"
            },
            {
              "name": "amount",
              "type": "int256"
            },
            {
              "name": "tenantName",
              "type": "string"
            },
            {
              "name": "tenantEmail",
              "type": "string"
            },
            {
              "name": "status",
              "type": "uint8"
            }
          ],
          "indexed": false,
          "name": "offer",
          "type": "tuple"
        }
      ],
      "name": "OfferReceived",
      "type": "event"
    },
    {
      "anonymous": false,
      "inputs": [
        {
          "components": [
            {
              "name": "landlordName",
              "type": "string"
            },
            {
              "name": "tenantName",
              "type": "string"
            },
            {
              "name": "tenantEmail",
              "type": "string"
            },
            {
              "name": "amount",
              "type": "int256"
            },
            {
              "name": "leaseStart",
              "type": "uint256"
            },
            {
              "name": "handoverDate",
              "type": "uint256"
            },
            {
              "name": "leasePeriod",
              "type": "uint256"
            },
            {
              "name": "otherTerms",
              "type": "string"
            },
            {
              "name": "hash",
              "type": "string"
            },
            {
              "name": "landlordSignedHash",
              "type": "string"
            },
            {
              "name": "tenantSignedHash",
              "type": "string"
            },
            {
              "name": "status",
              "type": "uint8"
            }
          ],
          "indexed": false,
          "name": "agreement",
          "type": "tuple"
        }
      ],
      "name": "AgreementReceived",
      "type": "event"
    },
    {
      "anonymous": false,
      "inputs": [
        {
          "components": [
            {
              "name": "initialized",
              "type": "bool"
            },
            {
              "name": "amount",
              "type": "int256"
            },
            {
              "name": "tenantName",
              "type": "string"
            },
            {
              "name": "tenantEmail",
              "type": "string"
            },
            {
              "name": "status",
              "type": "uint8"
            }
          ],
          "indexed": false,
          "name": "offer",
          "type": "tuple"
        }
      ],
      "name": "OfferUpdated",
      "type": "event"
    },
    {
      "anonymous": false,
      "inputs": [
        {
          "components": [
            {
              "name": "landlordName",
              "type": "string"
            },
            {
              "name": "tenantName",
              "type": "string"
            },
            {
              "name": "tenantEmail",
              "type": "string"
            },
            {
              "name": "amount",
              "type": "int256"
            },
            {
              "name": "leaseStart",
              "type": "uint256"
            },
            {
              "name": "handoverDate",
              "type": "uint256"
            },
            {
              "name": "leasePeriod",
              "type": "uint256"
            },
            {
              "name": "otherTerms",
              "type": "string"
            },
            {
              "name": "hash",
              "type": "string"
            },
            {
              "name": "landlordSignedHash",
              "type": "string"
            },
            {
              "name": "tenantSignedHash",
              "type": "string"
            },
            {
              "name": "status",
              "type": "uint8"
            }
          ],
          "indexed": false,
          "name": "agreement",
          "type": "tuple"
        }
      ],
      "name": "AgreementReviewed",
      "type": "event"
    },
    {
      "anonymous": false,
      "inputs": [
        {
          "components": [
            {
              "name": "landlordName",
              "type": "string"
            },
            {
              "name": "tenantName",
              "type": "string"
            },
            {
              "name": "tenantEmail",
              "type": "string"
            },
            {
              "name": "amount",
              "type": "int256"
            },
            {
              "name": "leaseStart",
              "type": "uint256"
            },
            {
              "name": "handoverDate",
              "type": "uint256"
            },
            {
              "name": "leasePeriod",
              "type": "uint256"
            },
            {
              "name": "otherTerms",
              "type": "string"
            },
            {
              "name": "hash",
              "type": "string"
            },
            {
              "name": "landlordSignedHash",
              "type": "string"
            },
            {
              "name": "tenantSignedHash",
              "type": "string"
            },
            {
              "name": "status",
              "type": "uint8"
            }
          ],
          "indexed": false,
          "name": "agreement",
          "type": "tuple"
        }
      ],
      "name": "AgreementLandlordSigned",
      "type": "event"
    },
    {
      "anonymous": false,
      "inputs": [
        {
          "components": [
            {
              "name": "landlordName",
              "type": "string"
            },
            {
              "name": "tenantName",
              "type": "string"
            },
            {
              "name": "tenantEmail",
              "type": "string"
            },
            {
              "name": "amount",
              "type": "int256"
            },
            {
              "name": "leaseStart",
              "type": "uint256"
            },
            {
              "name": "handoverDate",
              "type": "uint256"
            },
            {
              "name": "leasePeriod",
              "type": "uint256"
            },
            {
              "name": "otherTerms",
              "type": "string"
            },
            {
              "name": "hash",
              "type": "string"
            },
            {
              "name": "landlordSignedHash",
              "type": "string"
            },
            {
              "name": "tenantSignedHash",
              "type": "string"
            },
            {
              "name": "status",
              "type": "uint8"
            }
          ],
          "indexed": false,
          "name": "agreement",
          "type": "tuple"
        }
      ],
      "name": "AgreementTenantSigned",
      "type": "event"
    },
    {
      "anonymous": false,
      "inputs": [
        {
          "components": [
            {
              "name": "landlordName",
              "type": "string"
            },
            {
              "name": "tenantName",
              "type": "string"
            },
            {
              "name": "tenantEmail",
              "type": "string"
            },
            {
              "name": "amount",
              "type": "int256"
            },
            {
              "name": "leaseStart",
              "type": "uint256"
            },
            {
              "name": "handoverDate",
              "type": "uint256"
            },
            {
              "name": "leasePeriod",
              "type": "uint256"
            },
            {
              "name": "otherTerms",
              "type": "string"
            },
            {
              "name": "hash",
              "type": "string"
            },
            {
              "name": "landlordSignedHash",
              "type": "string"
            },
            {
              "name": "tenantSignedHash",
              "type": "string"
            },
            {
              "name": "status",
              "type": "uint8"
            }
          ],
          "indexed": false,
          "name": "agreement",
          "type": "tuple"
        }
      ],
      "name": "AgreementCompleted",
      "type": "event"
    },
    {
      "constant": false,
      "inputs": [
        {
          "name": "amount",
          "type": "int256"
        },
        {
          "name": "tenantName",
          "type": "string"
        },
        {
          "name": "tenantEmail",
          "type": "string"
        }
      ],
      "name": "sendOffer",
      "outputs": [],
      "payable": true,
      "stateMutability": "payable",
      "type": "function"
    },
    {
      "constant": true,
      "inputs": [
        {
          "name": "tenantEmail",
          "type": "string"
        }
      ],
      "name": "getOffer",
      "outputs": [
        {
          "name": "",
          "type": "bool"
        },
        {
          "name": "",
          "type": "int256"
        },
        {
          "name": "",
          "type": "string"
        },
        {
          "name": "",
          "type": "string"
        },
        {
          "name": "",
          "type": "uint8"
        }
      ],
      "payable": false,
      "stateMutability": "view",
      "type": "function"
    },
    {
      "constant": false,
      "inputs": [
        {
          "name": "result",
          "type": "bool"
        },
        {
          "name": "tenantEmail",
          "type": "string"
        }
      ],
      "name": "reviewOffer",
      "outputs": [],
      "payable": true,
      "stateMutability": "payable",
      "type": "function"
    },
    {
      "constant": false,
      "inputs": [
        {
          "name": "tenantEmail",
          "type": "string"
        },
        {
          "name": "landlordName",
          "type": "string"
        },
        {
          "name": "agreementTenantName",
          "type": "string"
        },
        {
          "name": "agreementTenantEmail",
          "type": "string"
        },
        {
          "name": "leaseStart",
          "type": "uint256"
        },
        {
          "name": "handoverDate",
          "type": "uint256"
        },
        {
          "name": "leasePeriod",
          "type": "uint256"
        },
        {
          "name": "otherTerms",
          "type": "string"
        },
        {
          "name": "hash",
          "type": "string"
        }
      ],
      "name": "submitDraft",
      "outputs": [],
      "payable": true,
      "stateMutability": "payable",
      "type": "function"
    },
    {
      "constant": true,
      "inputs": [
        {
          "name": "tenantEmail",
          "type": "string"
        }
      ],
      "name": "getAgreementParticipants",
      "outputs": [
        {
          "name": "",
          "type": "string"
        },
        {
          "name": "",
          "type": "string"
        },
        {
          "name": "",
          "type": "string"
        }
      ],
      "payable": false,
      "stateMutability": "view",
      "type": "function"
    },
    {
      "constant": true,
      "inputs": [
        {
          "name": "tenantEmail",
          "type": "string"
        }
      ],
      "name": "getAgreementDetails",
      "outputs": [
        {
          "name": "",
          "type": "int256"
        },
        {
          "name": "",
          "type": "uint256"
        },
        {
          "name": "",
          "type": "uint256"
        },
        {
          "name": "",
          "type": "uint256"
        },
        {
          "name": "",
          "type": "string"
        }
      ],
      "payable": false,
      "stateMutability": "view",
      "type": "function"
    },
    {
      "constant": true,
      "inputs": [
        {
          "name": "tenantEmail",
          "type": "string"
        }
      ],
      "name": "getAgreementHashes",
      "outputs": [
        {
          "name": "",
          "type": "string"
        },
        {
          "name": "",
          "type": "string"
        },
        {
          "name": "",
          "type": "string"
        }
      ],
      "payable": false,
      "stateMutability": "view",
      "type": "function"
    },
    {
      "constant": true,
      "inputs": [
        {
          "name": "tenantEmail",
          "type": "string"
        }
      ],
      "name": "getAgreementStatus",
      "outputs": [
        {
          "name": "",
          "type": "uint8"
        }
      ],
      "payable": false,
      "stateMutability": "view",
      "type": "function"
    },
    {
      "constant": false,
      "inputs": [
        {
          "name": "tenantEmail",
          "type": "string"
        },
        {
          "name": "result",
          "type": "bool"
        }
      ],
      "name": "reviewAgreement",
      "outputs": [],
      "payable": true,
      "stateMutability": "payable",
      "type": "function"
    },
    {
      "constant": false,
      "inputs": [
        {
          "name": "tenantEmail",
          "type": "string"
        },
        {
          "name": "landlordSignedHash",
          "type": "string"
        }
      ],
      "name": "landlordSignAgreement",
      "outputs": [],
      "payable": true,
      "stateMutability": "payable",
      "type": "function"
    },
    {
      "constant": false,
      "inputs": [
        {
          "name": "tenantEmail",
          "type": "string"
        },
        {
          "name": "tenantSignedHash",
          "type": "string"
        }
      ],
      "name": "tenantSignAgreement",
      "outputs": [],
      "payable": true,
      "stateMutability": "payable",
      "type": "function"
    },
    {
      "constant": false,
      "inputs": [
        {
          "name": "tenantEmail",
          "type": "string"
        }
      ],
      "name": "receiveFirstMonthRent",
      "outputs": [],
      "payable": true,
      "stateMutability": "payable",
      "type": "function"
    }
  ],
  "bytecode": "0x606060405234156200001057600080fd5b604051620047ac380380620047ac8339810160405280805182019190602001805182019190602001805190602001909190805190602001909190805190602001909190805190602001909190505060a0604051908101604052808681526020018581526020018481526020018381526020018281525060026000820151816000019080519060200190620000a692919062000137565b50602082015181600101556040820151816002015560608201518160030155608082015181600401559050508560019080519060200190620000ea929190620001be565b50336000806101000a81548173ffffffffffffffffffffffffffffffffffffffff021916908373ffffffffffffffffffffffffffffffffffffffff1602179055505050505050506200026d565b828054600181600116156101000203166002900490600052602060002090601f016020900481019282601f106200017a57805160ff1916838001178555620001ab565b82800160010185558215620001ab579182015b82811115620001aa5782518255916020019190600101906200018d565b5b509050620001ba919062000245565b5090565b828054600181600116156101000203166002900490600052602060002090601f016020900481019282601f106200020157805160ff191683800117855562000232565b8280016001018555821562000232579182015b828111156200023157825182559160200191906001019062000214565b5b50905062000241919062000245565b5090565b6200026a91905b80821115620002665760008160009055506001016200024c565b5090565b90565b61452f806200027d6000396000f3006060604052600436106100cf576000357c0100000000000000000000000000000000000000000000000000000000900463ffffffff168062ff22c6146100d457806303746e0614610169578063222a7af9146101fe578063265adc33146103ba5780632c863d84146104ac5780632fcc176d1461054a5780634d45780e146105a7578063673a95ef146105f957806371ca1587146106565780637a5101161461080457806382e1d3811461096d578063d441a15214610a34578063dc1997ea14610be2578063ec2b2a1214610c70575b600080fd5b610167600480803590602001908201803590602001908080601f0160208091040260200160405190810160405280939291908181526020018383808284378201915050505050509190803590602001908201803590602001908080601f01602080910402602001604051908101604052809392919081815260200183838082843782019150505050505091905050610cef565b005b6101fc600480803590602001908201803590602001908080601f0160208091040260200160405190810160405280939291908181526020018383808284378201915050505050509190803590602001908201803590602001908080601f01602080910402602001604051908101604052809392919081815260200183838082843782019150505050505091905050611553565b005b6103b8600480803590602001908201803590602001908080601f0160208091040260200160405190810160405280939291908181526020018383808284378201915050505050509190803590602001908201803590602001908080601f0160208091040260200160405190810160405280939291908181526020018383808284378201915050505050509190803590602001908201803590602001908080601f0160208091040260200160405190810160405280939291908181526020018383808284378201915050505050509190803590602001908201803590602001908080601f0160208091040260200160405190810160405280939291908181526020018383808284378201915050505050509190803590602001909190803590602001909190803590602001909190803590602001908201803590602001908080601f0160208091040260200160405190810160405280939291908181526020018383808284378201915050505050509190803590602001908201803590602001908080601f01602080910402602001604051908101604052809392919081815260200183838082843782019150505050505091905050611db7565b005b34156103c557600080fd5b610415600480803590602001908201803590602001908080601f0160208091040260200160405190810160405280939291908181526020018383808284378201915050505050509190505061236a565b6040518086815260200185815260200184815260200183815260200180602001828103825283818151815260200191508051906020019080838360005b8381101561046d578082015181840152602081019050610452565b50505050905090810190601f16801561049a5780820380516001836020036101000a031916815260200191505b50965050505050505060405180910390f35b610548600480803590602001909190803590602001908201803590602001908080601f0160208091040260200160405190810160405280939291908181526020018383808284378201915050505050509190803590602001908201803590602001908080601f016020809104026020016040519081016040528093929190818152602001838380828437820191505050505050919050506124af565b005b6105a56004808035151590602001909190803590602001908201803590602001908080601f016020809104026020016040519081016040528093929190818152602001838380828437820191505050505050919050506126b9565b005b6105f7600480803590602001908201803590602001908080601f01602080910402602001604051908101604052809392919081815260200183838082843782019150505050505091905050612ad3565b005b610654600480803590602001908201803590602001908080601f0160208091040260200160405190810160405280939291908181526020018383808284378201915050505050509190803515159060200190919050506132b3565b005b341561066157600080fd5b6106b1600480803590602001908201803590602001908080601f01602080910402602001604051908101604052809392919081815260200183838082843782019150505050505091905050613aa1565b60405180806020018060200180602001848103845287818151815260200191508051906020019080838360005b838110156106f95780820151818401526020810190506106de565b50505050905090810190601f1680156107265780820380516001836020036101000a031916815260200191505b50848103835286818151815260200191508051906020019080838360005b8381101561075f578082015181840152602081019050610744565b50505050905090810190601f16801561078c5780820380516001836020036101000a031916815260200191505b50848103825285818151815260200191508051906020019080838360005b838110156107c55780820151818401526020810190506107aa565b50505050905090810190601f1680156107f25780820380516001836020036101000a031916815260200191505b50965050505050505060405180910390f35b341561080f57600080fd5b61085f600480803590602001908201803590602001908080601f01602080910402602001604051908101604052809392919081815260200183838082843782019150505050505091905050613d16565b6040518086151515158152602001858152602001806020018060200184600381111561088757fe5b60ff168152602001838103835286818151815260200191508051906020019080838360005b838110156108c75780820151818401526020810190506108ac565b50505050905090810190601f1680156108f45780820380516001836020036101000a031916815260200191505b50838103825285818151815260200191508051906020019080838360005b8381101561092d578082015181840152602081019050610912565b50505050905090810190601f16801561095a5780820380516001836020036101000a031916815260200191505b5097505050505050505060405180910390f35b341561097857600080fd5b610980613f16565b6040518080602001868152602001858152602001848152602001838152602001828103825287818154600181600116156101000203166002900481526020019150805460018160011615610100020316600290048015610a215780601f106109f657610100808354040283529160200191610a21565b820191906000526020600020905b815481529060010190602001808311610a0457829003601f168201915b5050965050505050505060405180910390f35b3415610a3f57600080fd5b610a8f600480803590602001908201803590602001908080601f01602080910402602001604051908101604052809392919081815260200183838082843782019150505050505091905050613f39565b60405180806020018060200180602001848103845287818151815260200191508051906020019080838360005b83811015610ad7578082015181840152602081019050610abc565b50505050905090810190601f168015610b045780820380516001836020036101000a031916815260200191505b50848103835286818151815260200191508051906020019080838360005b83811015610b3d578082015181840152602081019050610b22565b50505050905090810190601f168015610b6a5780820380516001836020036101000a031916815260200191505b50848103825285818151815260200191508051906020019080838360005b83811015610ba3578082015181840152602081019050610b88565b50505050905090810190601f168015610bd05780820380516001836020036101000a031916815260200191505b50965050505050505060405180910390f35b3415610bed57600080fd5b610bf56141ae565b6040518080602001828103825283818151815260200191508051906020019080838360005b83811015610c35578082015181840152602081019050610c1a565b50505050905090810190601f168015610c625780820380516001836020036101000a031916815260200191505b509250505060405180910390f35b3415610c7b57600080fd5b610ccb600480803590602001908201803590602001908080601f0160208091040260200160405190810160405280939291908181526020018383808284378201915050505050509190505061424c565b60405180826007811115610cdb57fe5b60ff16815260200191505060405180910390f35b6000610cf96142d6565b83600115156007826040518082805190602001908083835b602083101515610d365780518252602082019150602081019050602083039250610d11565b6001836020036101000a038019825116818451168082178552505050505050905001915050908152602001604051809103902060000160009054906101000a900460ff161515141515610d8857600080fd5b600385816003811115610d9757fe5b6007826040518082805190602001908083835b602083101515610dcf5780518252602082019150602081019050602083039250610daa565b6001836020036101000a038019825116818451168082178552505050505050905001915050908152602001604051809103902060040160009054906101000a900460ff166003811115610e1e57fe5b141515610e2a57600080fd5b600587816007811115610e3957fe5b6008826040518082805190602001908083835b602083101515610e715780518252602082019150602081019050602083039250610e4c565b6001836020036101000a0380198251168184511680821785525050505050509050019150509081526020016040518091039020600b0160009054906101000a900460ff166007811115610ec057fe5b141515610ecc57600080fd5b8760088a6040518082805190602001908083835b602083101515610f055780518252602082019150602081019050602083039250610ee0565b6001836020036101000a0380198251168184511680821785525050505050509050019150509081526020016040518091039020600a019080519060200190610f4e92919061436d565b50600660088a6040518082805190602001908083835b602083101515610f895780518252602082019150602081019050602083039250610f64565b6001836020036101000a0380198251168184511680821785525050505050509050019150509081526020016040518091039020600b0160006101000a81548160ff02191690836007811115610fda57fe5b02179055506008896040518082805190602001908083835b6020831015156110175780518252602082019150602081019050602083039250610ff2565b6001836020036101000a0380198251168184511680821785525050505050509050019150509081526020016040518091039020965061018060405190810160405280886000018054600181600116156101000203166002900480601f0160208091040260200160405190810160405280929190818152602001828054600181600116156101000203166002900480156110f15780601f106110c6576101008083540402835291602001916110f1565b820191906000526020600020905b8154815290600101906020018083116110d457829003601f168201915b50505050508152602001886001018054600181600116156101000203166002900480601f0160208091040260200160405190810160405280929190818152602001828054600181600116156101000203166002900480156111935780601f1061116857610100808354040283529160200191611193565b820191906000526020600020905b81548152906001019060200180831161117657829003601f168201915b50505050508152602001886002018054600181600116156101000203166002900480601f0160208091040260200160405190810160405280929190818152602001828054600181600116156101000203166002900480156112355780601f1061120a57610100808354040283529160200191611235565b820191906000526020600020905b81548152906001019060200180831161121857829003601f168201915b5050505050815260200188600301548152602001886004015481526020018860050154815260200188600601548152602001886007018054600181600116156101000203166002900480601f0160208091040260200160405190810160405280929190818152602001828054600181600116156101000203166002900480156112ff5780601f106112d4576101008083540402835291602001916112ff565b820191906000526020600020905b8154815290600101906020018083116112e257829003601f168201915b50505050508152602001886008018054600181600116156101000203166002900480601f0160208091040260200160405190810160405280929190818152602001828054600181600116156101000203166002900480156113a15780601f10611376576101008083540402835291602001916113a1565b820191906000526020600020905b81548152906001019060200180831161138457829003601f168201915b50505050508152602001886009018054600181600116156101000203166002900480601f0160208091040260200160405190810160405280929190818152602001828054600181600116156101000203166002900480156114435780601f1061141857610100808354040283529160200191611443565b820191906000526020600020905b81548152906001019060200180831161142657829003601f168201915b5050505050815260200188600a018054600181600116156101000203166002900480601f0160208091040260200160405190810160405280929190818152602001828054600181600116156101000203166002900480156114e55780601f106114ba576101008083540402835291602001916114e5565b820191906000526020600020905b8154815290600101906020018083116114c857829003601f168201915b5050505050815260200188600b0160009054906101000a900460ff16600781111561150c57fe5b81525095507f4e1b89552d19258ac8149b571e4f45a50fe09a287b38a77f832a047c6bcc68d5866040518082815260200191505060405180910390a1505050505050505050565b600061155d6142d6565b83600115156007826040518082805190602001908083835b60208310151561159a5780518252602082019150602081019050602083039250611575565b6001836020036101000a038019825116818451168082178552505050505050905001915050908152602001604051809103902060000160009054906101000a900460ff1615151415156115ec57600080fd5b6003858160038111156115fb57fe5b6007826040518082805190602001908083835b602083101515611633578051825260208201915060208101905060208303925061160e565b6001836020036101000a038019825116818451168082178552505050505050905001915050908152602001604051809103902060040160009054906101000a900460ff16600381111561168257fe5b14151561168e57600080fd5b60038781600781111561169d57fe5b6008826040518082805190602001908083835b6020831015156116d557805182526020820191506020810190506020830392506116b0565b6001836020036101000a0380198251168184511680821785525050505050509050019150509081526020016040518091039020600b0160009054906101000a900460ff16600781111561172457fe5b14151561173057600080fd5b8760088a6040518082805190602001908083835b6020831015156117695780518252602082019150602081019050602083039250611744565b6001836020036101000a038019825116818451168082178552505050505050905001915050908152602001604051809103902060090190805190602001906117b292919061436d565b50600560088a6040518082805190602001908083835b6020831015156117ed57805182526020820191506020810190506020830392506117c8565b6001836020036101000a0380198251168184511680821785525050505050509050019150509081526020016040518091039020600b0160006101000a81548160ff0219169083600781111561183e57fe5b02179055506008896040518082805190602001908083835b60208310151561187b5780518252602082019150602081019050602083039250611856565b6001836020036101000a0380198251168184511680821785525050505050509050019150509081526020016040518091039020965061018060405190810160405280886000018054600181600116156101000203166002900480601f0160208091040260200160405190810160405280929190818152602001828054600181600116156101000203166002900480156119555780601f1061192a57610100808354040283529160200191611955565b820191906000526020600020905b81548152906001019060200180831161193857829003601f168201915b50505050508152602001886001018054600181600116156101000203166002900480601f0160208091040260200160405190810160405280929190818152602001828054600181600116156101000203166002900480156119f75780601f106119cc576101008083540402835291602001916119f7565b820191906000526020600020905b8154815290600101906020018083116119da57829003601f168201915b50505050508152602001886002018054600181600116156101000203166002900480601f016020809104026020016040519081016040528092919081815260200182805460018160011615610100020316600290048015611a995780601f10611a6e57610100808354040283529160200191611a99565b820191906000526020600020905b815481529060010190602001808311611a7c57829003601f168201915b5050505050815260200188600301548152602001886004015481526020018860050154815260200188600601548152602001886007018054600181600116156101000203166002900480601f016020809104026020016040519081016040528092919081815260200182805460018160011615610100020316600290048015611b635780601f10611b3857610100808354040283529160200191611b63565b820191906000526020600020905b815481529060010190602001808311611b4657829003601f168201915b50505050508152602001886008018054600181600116156101000203166002900480601f016020809104026020016040519081016040528092919081815260200182805460018160011615610100020316600290048015611c055780601f10611bda57610100808354040283529160200191611c05565b820191906000526020600020905b815481529060010190602001808311611be857829003601f168201915b50505050508152602001886009018054600181600116156101000203166002900480601f016020809104026020016040519081016040528092919081815260200182805460018160011615610100020316600290048015611ca75780601f10611c7c57610100808354040283529160200191611ca7565b820191906000526020600020905b815481529060010190602001808311611c8a57829003601f168201915b5050505050815260200188600a018054600181600116156101000203166002900480601f016020809104026020016040519081016040528092919081815260200182805460018160011615610100020316600290048015611d495780601f10611d1e57610100808354040283529160200191611d49565b820191906000526020600020905b815481529060010190602001808311611d2c57829003601f168201915b5050505050815260200188600b0160009054906101000a900460ff166007811115611d7057fe5b81525095507f10cdb42fdf76ad0b5346e1b5a8377b063a1414721180ce02e75ad89baf742155866040518082815260200191505060405180910390a1505050505050505050565b600089600115156007826040518082805190602001908083835b602083101515611df65780518252602082019150602081019050602083039250611dd1565b6001836020036101000a038019825116818451168082178552505050505050905001915050908152602001604051809103902060000160009054906101000a900460ff161515141515611e4857600080fd5b60038b816003811115611e5757fe5b6007826040518082805190602001908083835b602083101515611e8f5780518252602082019150602081019050602083039250611e6a565b6001836020036101000a038019825116818451168082178552505050505050905001915050908152602001604051809103902060040160009054906101000a900460ff166003811115611ede57fe5b141515611eea57600080fd5b8c60006007811115611ef857fe5b6008826040518082805190602001908083835b602083101515611f305780518252602082019150602081019050602083039250611f0b565b6001836020036101000a0380198251168184511680821785525050505050509050019150509081526020016040518091039020600b0160009054906101000a900460ff166007811115611f7f57fe5b148061201c575060026007811115611f9357fe5b6008826040518082805190602001908083835b602083101515611fcb5780518252602082019150602081019050602083039250611fa6565b6001836020036101000a0380198251168184511680821785525050505050509050019150509081526020016040518091039020600b0160009054906101000a900460ff16600781111561201a57fe5b145b151561202757600080fd5b60078e6040518082805190602001908083835b60208310151561205f578051825260208201915060208101905060208303925061203a565b6001836020036101000a0380198251168184511680821785525050505050509050019150509081526020016040518091039020600101549450610180604051908101604052808e81526020018d81526020018c81526020018681526020018b81526020018a815260200189815260200188815260200187815260200160206040519081016040528060008152508152602001602060405190810160405280600081525081526020016001600781111561211457fe5b81525060088f6040518082805190602001908083835b60208310151561214f578051825260208201915060208101905060208303925061212a565b6001836020036101000a0380198251168184511680821785525050505050509050019150509081526020016040518091039020600082015181600001908051906020019061219e9291906143ed565b5060208201518160010190805190602001906121bb9291906143ed565b5060408201518160020190805190602001906121d89291906143ed565b50606082015181600301556080820151816004015560a0820151816005015560c0820151816006015560e082015181600701908051906020019061221d9291906143ed565b5061010082015181600801908051906020019061223b9291906143ed565b506101208201518160090190805190602001906122599291906143ed565b5061014082015181600a0190805190602001906122779291906143ed565b5061016082015181600b0160006101000a81548160ff0219169083600781111561229d57fe5b02179055509050507fe6f59a77070e9893091d18e67f6954731239059d44d8b79f5a10bb818110ef58610180604051908101604052808f81526020018e81526020018d81526020018781526020018c81526020018b81526020018a815260200189815260200188815260200160206040519081016040528060008152508152602001602060405190810160405280600081525081526020016001600781111561234257fe5b8152506040518082815260200191505060405180910390a15050505050505050505050505050565b60008060008061237861446d565b60006008876040518082805190602001908083835b6020831015156123b2578051825260208201915060208101905060208303925061238d565b6001836020036101000a03801982511681845116808217855250505050505090500191505090815260200160405180910390209050806003015481600401548260050154836006015484600701808054600181600116156101000203166002900480601f0160208091040260200160405190810160405280929190818152602001828054600181600116156101000203166002900480156124945780601f1061246957610100808354040283529160200191612494565b820191906000526020600020905b81548152906001019060200180831161247757829003601f168201915b50505050509050955095509550955095505091939590929450565b6124b7614481565b81600015156007826040518082805190602001908083835b6020831015156124f457805182526020820191506020810190506020830392506124cf565b6001836020036101000a038019825116818451168082178552505050505050905001915050908152602001604051809103902060000160009054906101000a900460ff16151514151561254657600080fd5b60a0604051908101604052806001151581526020018681526020018581526020018481526020016000600381111561257a57fe5b8152509150816007846040518082805190602001908083835b6020831015156125b85780518252602082019150602081019050602083039250612593565b6001836020036101000a038019825116818451168082178552505050505050905001915050908152602001604051809103902060008201518160000160006101000a81548160ff0219169083151502179055506020820151816001015560408201518160020190805190602001906126319291906143ed565b50606082015181600301908051906020019061264e9291906143ed565b5060808201518160040160006101000a81548160ff0219169083600381111561267357fe5b02179055509050507f22fd37b1fe46286ffd22c0d41ae3c05e1fdcbc2cb9d88bb64f71e2275fd9852b826040518082815260200191505060405180910390a15050505050565b60006126c3614481565b82600115156007826040518082805190602001908083835b60208310151561270057805182526020820191506020810190506020830392506126db565b6001836020036101000a038019825116818451168082178552505050505050905001915050908152602001604051809103902060000160009054906101000a900460ff16151514151561275257600080fd5b60008481600381111561276157fe5b6007826040518082805190602001908083835b6020831015156127995780518252602082019150602081019050602083039250612774565b6001836020036101000a038019825116818451168082178552505050505050905001915050908152602001604051809103902060040160009054906101000a900460ff1660038111156127e857fe5b1415156127f457600080fd5b86612800576001612803565b60035b6007876040518082805190602001908083835b60208310151561283b5780518252602082019150602081019050602083039250612816565b6001836020036101000a038019825116818451168082178552505050505050905001915050908152602001604051809103902060040160006101000a81548160ff0219169083600381111561288c57fe5b02179055506007866040518082805190602001908083835b6020831015156128c957805182526020820191506020810190506020830392506128a4565b6001836020036101000a0380198251168184511680821785525050505050509050019150509081526020016040518091039020945060a0604051908101604052808660000160009054906101000a900460ff161515815260200186600101548152602001866002018054600181600116156101000203166002900480601f0160208091040260200160405190810160405280929190818152602001828054600181600116156101000203166002900480156129c55780601f1061299a576101008083540402835291602001916129c5565b820191906000526020600020905b8154815290600101906020018083116129a857829003601f168201915b50505050508152602001866003018054600181600116156101000203166002900480601f016020809104026020016040519081016040528092919081815260200182805460018160011615610100020316600290048015612a675780601f10612a3c57610100808354040283529160200191612a67565b820191906000526020600020905b815481529060010190602001808311612a4a57829003601f168201915b505050505081526020018660040160009054906101000a900460ff166003811115612a8e57fe5b81525093507fa4630ff3cecd92e1e262df0c2301ac6ac7ea65fc9557ef8034e2ea58f7e42970846040518082815260200191505060405180910390a150505050505050565b6000612add6142d6565b82600115156007826040518082805190602001908083835b602083101515612b1a5780518252602082019150602081019050602083039250612af5565b6001836020036101000a038019825116818451168082178552505050505050905001915050908152602001604051809103902060000160009054906101000a900460ff161515141515612b6c57600080fd5b600384816003811115612b7b57fe5b6007826040518082805190602001908083835b602083101515612bb35780518252602082019150602081019050602083039250612b8e565b6001836020036101000a038019825116818451168082178552505050505050905001915050908152602001604051809103902060040160009054906101000a900460ff166003811115612c0257fe5b141515612c0e57600080fd5b600686816007811115612c1d57fe5b6008826040518082805190602001908083835b602083101515612c555780518252602082019150602081019050602083039250612c30565b6001836020036101000a0380198251168184511680821785525050505050509050019150509081526020016040518091039020600b0160009054906101000a900460ff166007811115612ca457fe5b141515612cb057600080fd5b60076008896040518082805190602001908083835b602083101515612cea5780518252602082019150602081019050602083039250612cc5565b6001836020036101000a0380198251168184511680821785525050505050509050019150509081526020016040518091039020600b0160006101000a81548160ff02191690836007811115612d3b57fe5b02179055506008886040518082805190602001908083835b602083101515612d785780518252602082019150602081019050602083039250612d53565b6001836020036101000a0380198251168184511680821785525050505050509050019150509081526020016040518091039020965061018060405190810160405280886000018054600181600116156101000203166002900480601f016020809104026020016040519081016040528092919081815260200182805460018160011615610100020316600290048015612e525780601f10612e2757610100808354040283529160200191612e52565b820191906000526020600020905b815481529060010190602001808311612e3557829003601f168201915b50505050508152602001886001018054600181600116156101000203166002900480601f016020809104026020016040519081016040528092919081815260200182805460018160011615610100020316600290048015612ef45780601f10612ec957610100808354040283529160200191612ef4565b820191906000526020600020905b815481529060010190602001808311612ed757829003601f168201915b50505050508152602001886002018054600181600116156101000203166002900480601f016020809104026020016040519081016040528092919081815260200182805460018160011615610100020316600290048015612f965780601f10612f6b57610100808354040283529160200191612f96565b820191906000526020600020905b815481529060010190602001808311612f7957829003601f168201915b5050505050815260200188600301548152602001886004015481526020018860050154815260200188600601548152602001886007018054600181600116156101000203166002900480601f0160208091040260200160405190810160405280929190818152602001828054600181600116156101000203166002900480156130605780601f1061303557610100808354040283529160200191613060565b820191906000526020600020905b81548152906001019060200180831161304357829003601f168201915b50505050508152602001886008018054600181600116156101000203166002900480601f0160208091040260200160405190810160405280929190818152602001828054600181600116156101000203166002900480156131025780601f106130d757610100808354040283529160200191613102565b820191906000526020600020905b8154815290600101906020018083116130e557829003601f168201915b50505050508152602001886009018054600181600116156101000203166002900480601f0160208091040260200160405190810160405280929190818152602001828054600181600116156101000203166002900480156131a45780601f10613179576101008083540402835291602001916131a4565b820191906000526020600020905b81548152906001019060200180831161318757829003601f168201915b5050505050815260200188600a018054600181600116156101000203166002900480601f0160208091040260200160405190810160405280929190818152602001828054600181600116156101000203166002900480156132465780601f1061321b57610100808354040283529160200191613246565b820191906000526020600020905b81548152906001019060200180831161322957829003601f168201915b5050505050815260200188600b0160009054906101000a900460ff16600781111561326d57fe5b81525095507fa25cc4ca5e46d30f936f164ca512e7428f526e42689424e00ea728cde73a3418866040518082815260200191505060405180910390a15050505050505050565b60006132bd6142d6565b83600115156007826040518082805190602001908083835b6020831015156132fa57805182526020820191506020810190506020830392506132d5565b6001836020036101000a038019825116818451168082178552505050505050905001915050908152602001604051809103902060000160009054906101000a900460ff16151514151561334c57600080fd5b60038581600381111561335b57fe5b6007826040518082805190602001908083835b602083101515613393578051825260208201915060208101905060208303925061336e565b6001836020036101000a038019825116818451168082178552505050505050905001915050908152602001604051809103902060040160009054906101000a900460ff1660038111156133e257fe5b1415156133ee57600080fd5b6001878160078111156133fd57fe5b6008826040518082805190602001908083835b6020831015156134355780518252602082019150602081019050602083039250613410565b6001836020036101000a0380198251168184511680821785525050505050509050019150509081526020016040518091039020600b0160009054906101000a900460ff16600781111561348457fe5b14151561349057600080fd5b8761349c57600261349f565b60035b60088a6040518082805190602001908083835b6020831015156134d757805182526020820191506020810190506020830392506134b2565b6001836020036101000a0380198251168184511680821785525050505050509050019150509081526020016040518091039020600b0160006101000a81548160ff0219169083600781111561352857fe5b02179055506008896040518082805190602001908083835b6020831015156135655780518252602082019150602081019050602083039250613540565b6001836020036101000a0380198251168184511680821785525050505050509050019150509081526020016040518091039020965061018060405190810160405280886000018054600181600116156101000203166002900480601f01602080910402602001604051908101604052809291908181526020018280546001816001161561010002031660029004801561363f5780601f106136145761010080835404028352916020019161363f565b820191906000526020600020905b81548152906001019060200180831161362257829003601f168201915b50505050508152602001886001018054600181600116156101000203166002900480601f0160208091040260200160405190810160405280929190818152602001828054600181600116156101000203166002900480156136e15780601f106136b6576101008083540402835291602001916136e1565b820191906000526020600020905b8154815290600101906020018083116136c457829003601f168201915b50505050508152602001886002018054600181600116156101000203166002900480601f0160208091040260200160405190810160405280929190818152602001828054600181600116156101000203166002900480156137835780601f1061375857610100808354040283529160200191613783565b820191906000526020600020905b81548152906001019060200180831161376657829003601f168201915b5050505050815260200188600301548152602001886004015481526020018860050154815260200188600601548152602001886007018054600181600116156101000203166002900480601f01602080910402602001604051908101604052809291908181526020018280546001816001161561010002031660029004801561384d5780601f106138225761010080835404028352916020019161384d565b820191906000526020600020905b81548152906001019060200180831161383057829003601f168201915b50505050508152602001886008018054600181600116156101000203166002900480601f0160208091040260200160405190810160405280929190818152602001828054600181600116156101000203166002900480156138ef5780601f106138c4576101008083540402835291602001916138ef565b820191906000526020600020905b8154815290600101906020018083116138d257829003601f168201915b50505050508152602001886009018054600181600116156101000203166002900480601f0160208091040260200160405190810160405280929190818152602001828054600181600116156101000203166002900480156139915780601f1061396657610100808354040283529160200191613991565b820191906000526020600020905b81548152906001019060200180831161397457829003601f168201915b5050505050815260200188600a018054600181600116156101000203166002900480601f016020809104026020016040519081016040528092919081815260200182805460018160011615610100020316600290048015613a335780601f10613a0857610100808354040283529160200191613a33565b820191906000526020600020905b815481529060010190602001808311613a1657829003601f168201915b5050505050815260200188600b0160009054906101000a900460ff166007811115613a5a57fe5b81525095507f44754d76561d0684cae6d57963a682ea8a3fc035c4b54cc0456ccd9f72215779866040518082815260200191505060405180910390a1505050505050505050565b613aa961446d565b613ab161446d565b613ab961446d565b60006008856040518082805190602001908083835b602083101515613af35780518252602082019150602081019050602083039250613ace565b6001836020036101000a03801982511681845116808217855250505050505090500191505090815260200160405180910390209050806000018160010182600201828054600181600116156101000203166002900480601f016020809104026020016040519081016040528092919081815260200182805460018160011615610100020316600290048015613bc95780601f10613b9e57610100808354040283529160200191613bc9565b820191906000526020600020905b815481529060010190602001808311613bac57829003601f168201915b50505050509250818054600181600116156101000203166002900480601f016020809104026020016040519081016040528092919081815260200182805460018160011615610100020316600290048015613c655780601f10613c3a57610100808354040283529160200191613c65565b820191906000526020600020905b815481529060010190602001808311613c4857829003601f168201915b50505050509150808054600181600116156101000203166002900480601f016020809104026020016040519081016040528092919081815260200182805460018160011615610100020316600290048015613d015780601f10613cd657610100808354040283529160200191613d01565b820191906000526020600020905b815481529060010190602001808311613ce457829003601f168201915b50505050509050935093509350509193909250565b600080613d2161446d565b613d2961446d565b6000806007876040518082805190602001908083835b602083101515613d645780518252602082019150602081019050602083039250613d3f565b6001836020036101000a038019825116818451168082178552505050505050905001915050908152602001604051809103902090508060000160009054906101000a900460ff16816001015482600201836003018460040160009054906101000a900460ff16828054600181600116156101000203166002900480601f016020809104026020016040519081016040528092919081815260200182805460018160011615610100020316600290048015613e5f5780601f10613e3457610100808354040283529160200191613e5f565b820191906000526020600020905b815481529060010190602001808311613e4257829003601f168201915b50505050509250818054600181600116156101000203166002900480601f016020809104026020016040519081016040528092919081815260200182805460018160011615610100020316600290048015613efb5780601f10613ed057610100808354040283529160200191613efb565b820191906000526020600020905b815481529060010190602001808311613ede57829003601f168201915b50505050509150955095509550955095505091939590929450565b600280600001908060010154908060020154908060030154908060040154905085565b613f4161446d565b613f4961446d565b613f5161446d565b60006008856040518082805190602001908083835b602083101515613f8b5780518252602082019150602081019050602083039250613f66565b6001836020036101000a03801982511681845116808217855250505050505090500191505090815260200160405180910390209050806008018160090182600a01828054600181600116156101000203166002900480601f0160208091040260200160405190810160405280929190818152602001828054600181600116156101000203166002900480156140615780601f1061403657610100808354040283529160200191614061565b820191906000526020600020905b81548152906001019060200180831161404457829003601f168201915b50505050509250818054600181600116156101000203166002900480601f0160208091040260200160405190810160405280929190818152602001828054600181600116156101000203166002900480156140fd5780601f106140d2576101008083540402835291602001916140fd565b820191906000526020600020905b8154815290600101906020018083116140e057829003601f168201915b50505050509150808054600181600116156101000203166002900480601f0160208091040260200160405190810160405280929190818152602001828054600181600116156101000203166002900480156141995780601f1061416e57610100808354040283529160200191614199565b820191906000526020600020905b81548152906001019060200180831161417c57829003601f168201915b50505050509050935093509350509193909250565b60018054600181600116156101000203166002900480601f0160208091040260200160405190810160405280929190818152602001828054600181600116156101000203166002900480156142445780601f1061421957610100808354040283529160200191614244565b820191906000526020600020905b81548152906001019060200180831161422757829003601f168201915b505050505081565b6000806008836040518082805190602001908083835b6020831015156142875780518252602082019150602081019050602083039250614262565b6001836020036101000a0380198251168184511680821785525050505050509050019150509081526020016040518091039020905080600b0160009054906101000a900460ff16915050919050565b610180604051908101604052806142eb6144ca565b81526020016142f86144ca565b81526020016143056144ca565b81526020016000815260200160008152602001600081526020016000815260200161432e6144ca565b815260200161433b6144ca565b81526020016143486144ca565b81526020016143556144ca565b81526020016000600781111561436757fe5b81525090565b828054600181600116156101000203166002900490600052602060002090601f016020900481019282601f106143ae57805160ff19168380011785556143dc565b828001600101855582156143dc579182015b828111156143db5782518255916020019190600101906143c0565b5b5090506143e991906144de565b5090565b828054600181600116156101000203166002900490600052602060002090601f016020900481019282601f1061442e57805160ff191683800117855561445c565b8280016001018555821561445c579182015b8281111561445b578251825591602001919060010190614440565b5b50905061446991906144de565b5090565b602060405190810160405280600081525090565b60a060405190810160405280600015158152602001600081526020016144a56144ca565b81526020016144b26144ca565b8152602001600060038111156144c457fe5b81525090565b602060405190810160405280600081525090565b61450091905b808211156144fc5760008160009055506001016144e4565b5090565b905600a165627a7a72305820947e87564c6d08ad76e59e458c8efb0fc3c49072c32ddd6c978214c118c5f2ce0029",
  "source": "pragma solidity ^0.4.18;\ncontract EnlistmentToContract {\n    \n    // instanciated after the enlistment is approved by admins\n    // price and other params omitted from bc enlistment because they are subject to change\n    \n    // compare this with another layer of nesting (all enlistments in one instance)\n    \n    address owner;\n    string public landlord;\n    Enlistment public enlistment;\n    mapping(string => Offer) tenantOfferMap;\n    mapping(string => AgreementDraft) tenantAgreementMap;\n\n    function EnlistmentToContract(\n        string landlordEmail, string streetName, \n        int floorNr, int apartmentNr, int houseNr,\n        int postalCode) public\n            {\n            enlistment = Enlistment(streetName, floorNr, apartmentNr,\n                houseNr, postalCode);\n            landlord = landlordEmail;\n            owner = msg.sender;\n    }\n    \n    enum OfferStatus {\n        PENDING,\n        REJECTED,\n        CANCELLED,\n        ACCEPTED\n    }\n    \n    enum AgreementStatus {\n        UNINITIALIZED, // internal\n        PENDING,\n        REJECTED,\n        CONFIRMED,\n        CANCELLED,\n        LANDLORD_SIGNED,\n        TENANT_SIGNED,\n        COMPLETED\n    }\n    \n    struct Enlistment {\n        string streetName;\n        int floorNr;\n        int apartmentNr;\n        int houseNr;\n        int postalCode;\n    }\n    \n    struct Offer {\n        bool initialized;\n        int amount;\n        string tenantName;\n        string tenantEmail;\n        OfferStatus status;\n    }\n    \n    struct AgreementDraft {\n        string landlordName; // for simplicity, there is only one landlord\n        string tenantName; // for simplicity, there is only one tenant and occupants are omitted\n        string tenantEmail;\n        int amount;\n        uint leaseStart;\n        uint handoverDate;\n        uint leasePeriod;\n        string otherTerms;\n        string hash;\n        string landlordSignedHash;\n        string tenantSignedHash;\n        AgreementStatus status;\n    }\n    \n    modifier noActiveOffer(string tenantEmail) {\n        require(tenantOfferMap[tenantEmail].initialized == false);\n        _;\n    }\n    \n    modifier offerExists(string tenantEmail) {\n        require(tenantOfferMap[tenantEmail].initialized == true);\n        _;\n    }\n    \n    modifier offerInStatus(OfferStatus status, string tenantEmail) {\n        require(tenantOfferMap[tenantEmail].status == status);\n        _;\n    }\n    \n    modifier draftNotPresentOrRejected(string tenantEmail) {\n        require(tenantAgreementMap[tenantEmail].status == AgreementStatus.UNINITIALIZED || tenantAgreementMap[tenantEmail].status == AgreementStatus.REJECTED);\n        _;\n    }\n    \n    modifier agreementInStatus(AgreementStatus status, string tenantEmail) {\n        require(tenantAgreementMap[tenantEmail].status == status);\n        _;\n    }\n    \n    \n    modifier AverspaceOnly() {\n        require(msg.sender == owner); \n        _;\n    }\n    \n    event OfferReceived (Offer offer);\n    \n    event AgreementReceived (AgreementDraft agreement);\n    \n    event OfferUpdated(Offer offer);\n    \n    event AgreementReviewed(AgreementDraft agreement); // vs single updated method? performance vs cost?\n    \n    event AgreementLandlordSigned(AgreementDraft agreement);\n    \n    event AgreementTenantSigned(AgreementDraft agreement);\n    \n    event AgreementCompleted(AgreementDraft agreement);\n    \n    // what if the offer is in status PENDING and the tenant wants to send a new one?\n    function sendOffer(int amount, string tenantName, string tenantEmail) payable public\n    noActiveOffer(tenantEmail)\n        {\n        var offer = Offer({\n            initialized: true,\n            amount: amount,\n            tenantName: tenantName,\n            tenantEmail: tenantEmail,\n            status: OfferStatus.PENDING\n        });\n        tenantOfferMap[tenantEmail] = offer;\n        /* catch events in server and then only transmit them to the associated tenant? (+ always landlord) */\n        OfferReceived(offer); // offer includes the email of the tenant to do event filtering\n    }\n    \n    function getOffer(string tenantEmail) view public returns (bool, int, string, string, OfferStatus) {\n        var o = tenantOfferMap[tenantEmail];\n        return (o.initialized, o.amount, o.tenantName, o.tenantEmail, o.status);\n    }\n    \n    function reviewOffer(bool result, string tenantEmail) payable public\n        offerExists(tenantEmail)\n        offerInStatus(OfferStatus.PENDING, tenantEmail)\n            {\n            tenantOfferMap[tenantEmail].status = result ? OfferStatus.ACCEPTED : OfferStatus.REJECTED;\n            var offer = tenantOfferMap[tenantEmail];\n            var typed = Offer(offer.initialized, offer.amount, offer.tenantName, offer.tenantEmail, offer.status);\n            OfferUpdated(typed);\n    }\n    \n    function submitDraft(string tenantEmail, string landlordName,\n        string agreementTenantName, string agreementTenantEmail,\n        uint leaseStart, uint handoverDate, uint leasePeriod,\n        string otherTerms, string hash) payable public\n            offerExists(tenantEmail)\n            offerInStatus(OfferStatus.ACCEPTED, tenantEmail)\n            draftNotPresentOrRejected(tenantEmail)\n                {\n                var amount = tenantOfferMap[tenantEmail].amount;\n                tenantAgreementMap[tenantEmail] = AgreementDraft(landlordName, \n                    agreementTenantName, agreementTenantEmail,\n                    amount, leaseStart, \n                    handoverDate, leasePeriod,\n                    otherTerms, hash, \"\", \"\", AgreementStatus.PENDING); // CompilerError: stack too deep, try removing local variables. Error only appears in local development, all good with browser one (remix.ethereum.org)\n                AgreementReceived(AgreementDraft(landlordName, \n                    agreementTenantName, agreementTenantEmail,\n                    amount, leaseStart, \n                    handoverDate, leasePeriod,\n                    otherTerms, hash, \"\", \"\", AgreementStatus.PENDING));\n    }\n        \n    // getAgreement functions:\n    // can only return tuple of max 7 elements, otherwise throws \"Stack too geep\"\n    // solution: splitted into multiple functions\n        \n    function getAgreementParticipants(string tenantEmail) view public returns (string, string, string) {\n        var a = tenantAgreementMap[tenantEmail];\n        return (a.landlordName, a.tenantName, a.tenantEmail);\n    }\n    \n    function getAgreementDetails(string tenantEmail) view public returns (int, uint, uint, uint, string) {\n        var a = tenantAgreementMap[tenantEmail];\n        return (a.amount, a.leaseStart, a.handoverDate, a.leasePeriod, a.otherTerms);\n    }\n    \n    function getAgreementHashes(string tenantEmail) view public returns (string, string, string) {\n        var a = tenantAgreementMap[tenantEmail];\n        return (a.hash, a.landlordSignedHash, a.tenantSignedHash);\n    }\n    \n    function getAgreementStatus(string tenantEmail) view public returns (AgreementStatus) {\n        var a = tenantAgreementMap[tenantEmail];\n        return (a.status);\n    }\n    \n    function reviewAgreement(string tenantEmail, bool result) payable public\n        offerExists(tenantEmail)\n        offerInStatus(OfferStatus.ACCEPTED, tenantEmail)\n        agreementInStatus(AgreementStatus.PENDING, tenantEmail)\n            {\n            tenantAgreementMap[tenantEmail].status = result ? AgreementStatus.CONFIRMED : AgreementStatus.REJECTED;\n            var agreement = tenantAgreementMap[tenantEmail];\n            var typed = AgreementDraft(agreement.landlordName, agreement.tenantName,\n                agreement.tenantEmail, agreement.amount, agreement.leaseStart, agreement.handoverDate,\n                agreement.leasePeriod, agreement.otherTerms, agreement.hash,\n                agreement.landlordSignedHash, agreement.tenantSignedHash, agreement.status);\n            AgreementReviewed(typed); // watch out for untyped nested struct\n        }\n    \n\n    function landlordSignAgreement(string tenantEmail, string landlordSignedHash) payable public\n        offerExists(tenantEmail)\n        offerInStatus(OfferStatus.ACCEPTED, tenantEmail)\n        agreementInStatus(AgreementStatus.CONFIRMED, tenantEmail)\n        {\n            tenantAgreementMap[tenantEmail].landlordSignedHash = landlordSignedHash;\n            tenantAgreementMap[tenantEmail].status = AgreementStatus.LANDLORD_SIGNED;\n            var agreement = tenantAgreementMap[tenantEmail];\n            var typed = AgreementDraft(agreement.landlordName, agreement.tenantName,\n                agreement.tenantEmail, agreement.amount, agreement.leaseStart, agreement.handoverDate,\n                agreement.leasePeriod, agreement.otherTerms, agreement.hash,\n                agreement.landlordSignedHash, agreement.tenantSignedHash, agreement.status);\n            AgreementLandlordSigned(typed); // emitting a struct is more expensive\n    }\n    \n    function tenantSignAgreement(string tenantEmail, string tenantSignedHash) payable public\n    offerExists(tenantEmail)\n    offerInStatus(OfferStatus.ACCEPTED, tenantEmail)\n    agreementInStatus(AgreementStatus.LANDLORD_SIGNED, tenantEmail)\n    {\n        tenantAgreementMap[tenantEmail].tenantSignedHash = tenantSignedHash;\n        tenantAgreementMap[tenantEmail].status = AgreementStatus.TENANT_SIGNED;\n        var agreement = tenantAgreementMap[tenantEmail];\n        var typed = AgreementDraft(agreement.landlordName, agreement.tenantName,\n            agreement.tenantEmail, agreement.amount, agreement.leaseStart, agreement.handoverDate,\n            agreement.leasePeriod, agreement.otherTerms, agreement.hash,\n            agreement.landlordSignedHash, agreement.tenantSignedHash, agreement.status);\n        AgreementTenantSigned(typed);\n    }\n    \n    function receiveFirstMonthRent(string tenantEmail) payable public \n    offerExists(tenantEmail)\n    offerInStatus(OfferStatus.ACCEPTED, tenantEmail)\n    agreementInStatus(AgreementStatus.TENANT_SIGNED, tenantEmail)\n        {\n        tenantAgreementMap[tenantEmail].status = AgreementStatus.COMPLETED;\n        var agreement = tenantAgreementMap[tenantEmail];\n        var typed = AgreementDraft(agreement.landlordName, agreement.tenantName,\n            agreement.tenantEmail, agreement.amount, agreement.leaseStart, agreement.handoverDate,\n            agreement.leasePeriod, agreement.otherTerms, agreement.hash,\n            agreement.landlordSignedHash, agreement.tenantSignedHash, agreement.status);\n        AgreementCompleted(typed);\n    }\n    \n}",
  "sourcePath": "/Users/Indrek/Ulikool/Thesis/blockchain-real-estate-v1/ethereum/contracts/EnlistmentToContract.sol",
  "compiler": {
    "name": "solc",
    "version": "0.4.19+commit.c4cbbb05.Emscripten.clang"
  },
  "schemaVersion": "1.0.1",
  "updatedAt": "2018-02-14T18:51:55.674Z"
}