{
  "contractName": "EnlistmentToContract",
  "abi": [
    {
      "constant": true,
      "inputs": [],
      "name": "enlistment",
      "outputs": [
        {
          "name": "streetName",
          "type": "string"
        },
        {
          "name": "floorNr",
          "type": "int256"
        },
        {
          "name": "apartmentNr",
          "type": "int256"
        },
        {
          "name": "houseNr",
          "type": "int256"
        },
        {
          "name": "postalCode",
          "type": "int256"
        }
      ],
      "payable": false,
      "stateMutability": "view",
      "type": "function"
    },
    {
      "constant": true,
      "inputs": [],
      "name": "landlord",
      "outputs": [
        {
          "name": "",
          "type": "string"
        }
      ],
      "payable": false,
      "stateMutability": "view",
      "type": "function"
    },
    {
      "inputs": [
        {
          "name": "landlordEmail",
          "type": "string"
        },
        {
          "name": "streetName",
          "type": "string"
        },
        {
          "name": "floorNr",
          "type": "int256"
        },
        {
          "name": "apartmentNr",
          "type": "int256"
        },
        {
          "name": "houseNr",
          "type": "int256"
        },
        {
          "name": "postalCode",
          "type": "int256"
        }
      ],
      "payable": false,
      "stateMutability": "nonpayable",
      "type": "constructor"
    },
    {
      "anonymous": false,
      "inputs": [
        {
          "components": [
            {
              "name": "initialized",
              "type": "bool"
            },
            {
              "name": "amount",
              "type": "int256"
            },
            {
              "name": "tenantName",
              "type": "string"
            },
            {
              "name": "tenantEmail",
              "type": "string"
            },
            {
              "name": "status",
              "type": "uint8"
            }
          ],
          "indexed": false,
          "name": "offer",
          "type": "tuple"
        }
      ],
      "name": "OfferReceived",
      "type": "event"
    },
    {
      "anonymous": false,
      "inputs": [
        {
          "components": [
            {
              "name": "landlordName",
              "type": "string"
            },
            {
              "name": "tenantName",
              "type": "string"
            },
            {
              "name": "tenantEmail",
              "type": "string"
            },
            {
              "name": "amount",
              "type": "int256"
            },
            {
              "name": "leaseStart",
              "type": "uint256"
            },
            {
              "name": "handoverDate",
              "type": "uint256"
            },
            {
              "name": "leasePeriod",
              "type": "uint256"
            },
            {
              "name": "otherTerms",
              "type": "string"
            },
            {
              "name": "hash",
              "type": "string"
            },
            {
              "name": "landlordSignedHash",
              "type": "string"
            },
            {
              "name": "tenantSignedHash",
              "type": "string"
            },
            {
              "name": "status",
              "type": "uint8"
            }
          ],
          "indexed": false,
          "name": "agreement",
          "type": "tuple"
        }
      ],
      "name": "AgreementReceived",
      "type": "event"
    },
    {
      "anonymous": false,
      "inputs": [
        {
          "components": [
            {
              "name": "initialized",
              "type": "bool"
            },
            {
              "name": "amount",
              "type": "int256"
            },
            {
              "name": "tenantName",
              "type": "string"
            },
            {
              "name": "tenantEmail",
              "type": "string"
            },
            {
              "name": "status",
              "type": "uint8"
            }
          ],
          "indexed": false,
          "name": "offer",
          "type": "tuple"
        }
      ],
      "name": "OfferUpdated",
      "type": "event"
    },
    {
      "anonymous": false,
      "inputs": [
        {
          "components": [
            {
              "name": "landlordName",
              "type": "string"
            },
            {
              "name": "tenantName",
              "type": "string"
            },
            {
              "name": "tenantEmail",
              "type": "string"
            },
            {
              "name": "amount",
              "type": "int256"
            },
            {
              "name": "leaseStart",
              "type": "uint256"
            },
            {
              "name": "handoverDate",
              "type": "uint256"
            },
            {
              "name": "leasePeriod",
              "type": "uint256"
            },
            {
              "name": "otherTerms",
              "type": "string"
            },
            {
              "name": "hash",
              "type": "string"
            },
            {
              "name": "landlordSignedHash",
              "type": "string"
            },
            {
              "name": "tenantSignedHash",
              "type": "string"
            },
            {
              "name": "status",
              "type": "uint8"
            }
          ],
          "indexed": false,
          "name": "agreement",
          "type": "tuple"
        }
      ],
      "name": "AgreementReviewed",
      "type": "event"
    },
    {
      "anonymous": false,
      "inputs": [
        {
          "components": [
            {
              "name": "landlordName",
              "type": "string"
            },
            {
              "name": "tenantName",
              "type": "string"
            },
            {
              "name": "tenantEmail",
              "type": "string"
            },
            {
              "name": "amount",
              "type": "int256"
            },
            {
              "name": "leaseStart",
              "type": "uint256"
            },
            {
              "name": "handoverDate",
              "type": "uint256"
            },
            {
              "name": "leasePeriod",
              "type": "uint256"
            },
            {
              "name": "otherTerms",
              "type": "string"
            },
            {
              "name": "hash",
              "type": "string"
            },
            {
              "name": "landlordSignedHash",
              "type": "string"
            },
            {
              "name": "tenantSignedHash",
              "type": "string"
            },
            {
              "name": "status",
              "type": "uint8"
            }
          ],
          "indexed": false,
          "name": "agreement",
          "type": "tuple"
        }
      ],
      "name": "AgreementLandlordSigned",
      "type": "event"
    },
    {
      "anonymous": false,
      "inputs": [
        {
          "components": [
            {
              "name": "landlordName",
              "type": "string"
            },
            {
              "name": "tenantName",
              "type": "string"
            },
            {
              "name": "tenantEmail",
              "type": "string"
            },
            {
              "name": "amount",
              "type": "int256"
            },
            {
              "name": "leaseStart",
              "type": "uint256"
            },
            {
              "name": "handoverDate",
              "type": "uint256"
            },
            {
              "name": "leasePeriod",
              "type": "uint256"
            },
            {
              "name": "otherTerms",
              "type": "string"
            },
            {
              "name": "hash",
              "type": "string"
            },
            {
              "name": "landlordSignedHash",
              "type": "string"
            },
            {
              "name": "tenantSignedHash",
              "type": "string"
            },
            {
              "name": "status",
              "type": "uint8"
            }
          ],
          "indexed": false,
          "name": "agreement",
          "type": "tuple"
        }
      ],
      "name": "AgreementTenantSigned",
      "type": "event"
    },
    {
      "anonymous": false,
      "inputs": [
        {
          "components": [
            {
              "name": "landlordName",
              "type": "string"
            },
            {
              "name": "tenantName",
              "type": "string"
            },
            {
              "name": "tenantEmail",
              "type": "string"
            },
            {
              "name": "amount",
              "type": "int256"
            },
            {
              "name": "leaseStart",
              "type": "uint256"
            },
            {
              "name": "handoverDate",
              "type": "uint256"
            },
            {
              "name": "leasePeriod",
              "type": "uint256"
            },
            {
              "name": "otherTerms",
              "type": "string"
            },
            {
              "name": "hash",
              "type": "string"
            },
            {
              "name": "landlordSignedHash",
              "type": "string"
            },
            {
              "name": "tenantSignedHash",
              "type": "string"
            },
            {
              "name": "status",
              "type": "uint8"
            }
          ],
          "indexed": false,
          "name": "agreement",
          "type": "tuple"
        }
      ],
      "name": "AgreementCompleted",
      "type": "event"
    },
    {
      "constant": false,
      "inputs": [
        {
          "name": "amount",
          "type": "int256"
        },
        {
          "name": "tenantName",
          "type": "string"
        },
        {
          "name": "tenantEmail",
          "type": "string"
        }
      ],
      "name": "sendOffer",
      "outputs": [],
      "payable": true,
      "stateMutability": "payable",
      "type": "function"
    },
    {
      "constant": false,
      "inputs": [
        {
          "name": "tenantEmail",
          "type": "string"
        }
      ],
      "name": "cancelOffer",
      "outputs": [],
      "payable": true,
      "stateMutability": "payable",
      "type": "function"
    },
    {
      "constant": true,
      "inputs": [
        {
          "name": "tenantEmail",
          "type": "string"
        }
      ],
      "name": "getOffer",
      "outputs": [
        {
          "name": "",
          "type": "bool"
        },
        {
          "name": "",
          "type": "int256"
        },
        {
          "name": "",
          "type": "string"
        },
        {
          "name": "",
          "type": "string"
        },
        {
          "name": "",
          "type": "uint8"
        }
      ],
      "payable": false,
      "stateMutability": "view",
      "type": "function"
    },
    {
      "constant": false,
      "inputs": [
        {
          "name": "result",
          "type": "bool"
        },
        {
          "name": "tenantEmail",
          "type": "string"
        }
      ],
      "name": "reviewOffer",
      "outputs": [],
      "payable": true,
      "stateMutability": "payable",
      "type": "function"
    },
    {
      "constant": false,
      "inputs": [
        {
          "name": "tenantEmail",
          "type": "string"
        },
        {
          "name": "landlordName",
          "type": "string"
        },
        {
          "name": "agreementTenantName",
          "type": "string"
        },
        {
          "name": "agreementTenantEmail",
          "type": "string"
        },
        {
          "name": "leaseStart",
          "type": "uint256"
        },
        {
          "name": "handoverDate",
          "type": "uint256"
        },
        {
          "name": "leasePeriod",
          "type": "uint256"
        },
        {
          "name": "otherTerms",
          "type": "string"
        },
        {
          "name": "hash",
          "type": "string"
        }
      ],
      "name": "submitDraft",
      "outputs": [],
      "payable": true,
      "stateMutability": "payable",
      "type": "function"
    },
    {
      "constant": true,
      "inputs": [
        {
          "name": "tenantEmail",
          "type": "string"
        }
      ],
      "name": "getAgreementParticipants",
      "outputs": [
        {
          "name": "",
          "type": "string"
        },
        {
          "name": "",
          "type": "string"
        },
        {
          "name": "",
          "type": "string"
        }
      ],
      "payable": false,
      "stateMutability": "view",
      "type": "function"
    },
    {
      "constant": true,
      "inputs": [
        {
          "name": "tenantEmail",
          "type": "string"
        }
      ],
      "name": "getAgreementDetails",
      "outputs": [
        {
          "name": "",
          "type": "int256"
        },
        {
          "name": "",
          "type": "uint256"
        },
        {
          "name": "",
          "type": "uint256"
        },
        {
          "name": "",
          "type": "uint256"
        },
        {
          "name": "",
          "type": "string"
        }
      ],
      "payable": false,
      "stateMutability": "view",
      "type": "function"
    },
    {
      "constant": true,
      "inputs": [
        {
          "name": "tenantEmail",
          "type": "string"
        }
      ],
      "name": "getAgreementHashes",
      "outputs": [
        {
          "name": "",
          "type": "string"
        },
        {
          "name": "",
          "type": "string"
        },
        {
          "name": "",
          "type": "string"
        }
      ],
      "payable": false,
      "stateMutability": "view",
      "type": "function"
    },
    {
      "constant": true,
      "inputs": [
        {
          "name": "tenantEmail",
          "type": "string"
        }
      ],
      "name": "getAgreementStatus",
      "outputs": [
        {
          "name": "",
          "type": "uint8"
        }
      ],
      "payable": false,
      "stateMutability": "view",
      "type": "function"
    },
    {
      "constant": false,
      "inputs": [
        {
          "name": "tenantEmail",
          "type": "string"
        },
        {
          "name": "result",
          "type": "bool"
        }
      ],
      "name": "reviewAgreement",
      "outputs": [],
      "payable": true,
      "stateMutability": "payable",
      "type": "function"
    },
    {
      "constant": false,
      "inputs": [
        {
          "name": "tenantEmail",
          "type": "string"
        },
        {
          "name": "landlordSignedHash",
          "type": "string"
        }
      ],
      "name": "landlordSignAgreement",
      "outputs": [],
      "payable": true,
      "stateMutability": "payable",
      "type": "function"
    },
    {
      "constant": false,
      "inputs": [
        {
          "name": "tenantEmail",
          "type": "string"
        },
        {
          "name": "tenantSignedHash",
          "type": "string"
        }
      ],
      "name": "tenantSignAgreement",
      "outputs": [],
      "payable": true,
      "stateMutability": "payable",
      "type": "function"
    },
    {
      "constant": false,
      "inputs": [
        {
          "name": "tenantEmail",
          "type": "string"
        }
      ],
      "name": "receiveFirstMonthRent",
      "outputs": [],
      "payable": true,
      "stateMutability": "payable",
      "type": "function"
    }
  ],
  "bytecode": "0x606060405234156200001057600080fd5b60405162004f8438038062004f848339810160405280805182019190602001805182019190602001805190602001909190805190602001909190805190602001909190805190602001909190505060a0604051908101604052808681526020018581526020018481526020018381526020018281525060026000820151816000019080519060200190620000a692919062000137565b50602082015181600101556040820151816002015560608201518160030155608082015181600401559050508560019080519060200190620000ea929190620001be565b50336000806101000a81548173ffffffffffffffffffffffffffffffffffffffff021916908373ffffffffffffffffffffffffffffffffffffffff1602179055505050505050506200026d565b828054600181600116156101000203166002900490600052602060002090601f016020900481019282601f106200017a57805160ff1916838001178555620001ab565b82800160010185558215620001ab579182015b82811115620001aa5782518255916020019190600101906200018d565b5b509050620001ba919062000245565b5090565b828054600181600116156101000203166002900490600052602060002090601f016020900481019282601f106200020157805160ff191683800117855562000232565b8280016001018555821562000232579182015b828111156200023157825182559160200191906001019062000214565b5b50905062000241919062000245565b5090565b6200026a91905b80821115620002665760008160009055506001016200024c565b5090565b90565b614d07806200027d6000396000f3006060604052600436106100da576000357c0100000000000000000000000000000000000000000000000000000000900463ffffffff168062ff22c6146100df57806303746e0614610174578063222a7af914610209578063265adc33146103c55780632c863d84146104b75780632d63ce27146105555780632fcc176d146105a75780634d45780e14610604578063673a95ef1461065657806371ca1587146106b35780637a5101161461086157806382e1d381146109ca578063d441a15214610a91578063dc1997ea14610c3f578063ec2b2a1214610ccd575b600080fd5b610172600480803590602001908201803590602001908080601f0160208091040260200160405190810160405280939291908181526020018383808284378201915050505050509190803590602001908201803590602001908080601f01602080910402602001604051908101604052809392919081815260200183838082843782019150505050505091905050610d4c565b005b610207600480803590602001908201803590602001908080601f0160208091040260200160405190810160405280939291908181526020018383808284378201915050505050509190803590602001908201803590602001908080601f016020809104026020016040519081016040528093929190818152602001838380828437820191505050505050919050506115b0565b005b6103c3600480803590602001908201803590602001908080601f0160208091040260200160405190810160405280939291908181526020018383808284378201915050505050509190803590602001908201803590602001908080601f0160208091040260200160405190810160405280939291908181526020018383808284378201915050505050509190803590602001908201803590602001908080601f0160208091040260200160405190810160405280939291908181526020018383808284378201915050505050509190803590602001908201803590602001908080601f0160208091040260200160405190810160405280939291908181526020018383808284378201915050505050509190803590602001909190803590602001909190803590602001909190803590602001908201803590602001908080601f0160208091040260200160405190810160405280939291908181526020018383808284378201915050505050509190803590602001908201803590602001908080601f01602080910402602001604051908101604052809392919081815260200183838082843782019150505050505091905050611e14565b005b34156103d057600080fd5b610420600480803590602001908201803590602001908080601f016020809104026020016040519081016040528093929190818152602001838380828437820191505050505050919050506123c7565b6040518086815260200185815260200184815260200183815260200180602001828103825283818151815260200191508051906020019080838360005b8381101561047857808201518184015260208101905061045d565b50505050905090810190601f1680156104a55780820380516001836020036101000a031916815260200191505b50965050505050505060405180910390f35b610553600480803590602001909190803590602001908201803590602001908080601f0160208091040260200160405190810160405280939291908181526020018383808284378201915050505050509190803590602001908201803590602001908080601f0160208091040260200160405190810160405280939291908181526020018383808284378201915050505050509190505061250c565b005b6105a5600480803590602001908201803590602001908080601f0160208091040260200160405190810160405280939291908181526020018383808284378201915050505050509190505061284e565b005b6106026004808035151590602001909190803590602001908201803590602001908080601f01602080910402602001604051908101604052809392919081815260200183838082843782019150505050505091905050612e91565b005b610654600480803590602001908201803590602001908080601f016020809104026020016040519081016040528093929190818152602001838380828437820191505050505050919050506132ab565b005b6106b1600480803590602001908201803590602001908080601f016020809104026020016040519081016040528093929190818152602001838380828437820191505050505050919080351515906020019091905050613a8b565b005b34156106be57600080fd5b61070e600480803590602001908201803590602001908080601f01602080910402602001604051908101604052809392919081815260200183838082843782019150505050505091905050614279565b60405180806020018060200180602001848103845287818151815260200191508051906020019080838360005b8381101561075657808201518184015260208101905061073b565b50505050905090810190601f1680156107835780820380516001836020036101000a031916815260200191505b50848103835286818151815260200191508051906020019080838360005b838110156107bc5780820151818401526020810190506107a1565b50505050905090810190601f1680156107e95780820380516001836020036101000a031916815260200191505b50848103825285818151815260200191508051906020019080838360005b83811015610822578082015181840152602081019050610807565b50505050905090810190601f16801561084f5780820380516001836020036101000a031916815260200191505b50965050505050505060405180910390f35b341561086c57600080fd5b6108bc600480803590602001908201803590602001908080601f016020809104026020016040519081016040528093929190818152602001838380828437820191505050505050919050506144ee565b604051808615151515815260200185815260200180602001806020018460038111156108e457fe5b60ff168152602001838103835286818151815260200191508051906020019080838360005b83811015610924578082015181840152602081019050610909565b50505050905090810190601f1680156109515780820380516001836020036101000a031916815260200191505b50838103825285818151815260200191508051906020019080838360005b8381101561098a57808201518184015260208101905061096f565b50505050905090810190601f1680156109b75780820380516001836020036101000a031916815260200191505b5097505050505050505060405180910390f35b34156109d557600080fd5b6109dd6146ee565b6040518080602001868152602001858152602001848152602001838152602001828103825287818154600181600116156101000203166002900481526020019150805460018160011615610100020316600290048015610a7e5780601f10610a5357610100808354040283529160200191610a7e565b820191906000526020600020905b815481529060010190602001808311610a6157829003601f168201915b5050965050505050505060405180910390f35b3415610a9c57600080fd5b610aec600480803590602001908201803590602001908080601f01602080910402602001604051908101604052809392919081815260200183838082843782019150505050505091905050614711565b60405180806020018060200180602001848103845287818151815260200191508051906020019080838360005b83811015610b34578082015181840152602081019050610b19565b50505050905090810190601f168015610b615780820380516001836020036101000a031916815260200191505b50848103835286818151815260200191508051906020019080838360005b83811015610b9a578082015181840152602081019050610b7f565b50505050905090810190601f168015610bc75780820380516001836020036101000a031916815260200191505b50848103825285818151815260200191508051906020019080838360005b83811015610c00578082015181840152602081019050610be5565b50505050905090810190601f168015610c2d5780820380516001836020036101000a031916815260200191505b50965050505050505060405180910390f35b3415610c4a57600080fd5b610c52614986565b6040518080602001828103825283818151815260200191508051906020019080838360005b83811015610c92578082015181840152602081019050610c77565b50505050905090810190601f168015610cbf5780820380516001836020036101000a031916815260200191505b509250505060405180910390f35b3415610cd857600080fd5b610d28600480803590602001908201803590602001908080601f01602080910402602001604051908101604052809392919081815260200183838082843782019150505050505091905050614a24565b60405180826007811115610d3857fe5b60ff16815260200191505060405180910390f35b6000610d56614aae565b83600115156007826040518082805190602001908083835b602083101515610d935780518252602082019150602081019050602083039250610d6e565b6001836020036101000a038019825116818451168082178552505050505050905001915050908152602001604051809103902060000160009054906101000a900460ff161515141515610de557600080fd5b600385816003811115610df457fe5b6007826040518082805190602001908083835b602083101515610e2c5780518252602082019150602081019050602083039250610e07565b6001836020036101000a038019825116818451168082178552505050505050905001915050908152602001604051809103902060040160009054906101000a900460ff166003811115610e7b57fe5b141515610e8757600080fd5b600587816007811115610e9657fe5b6008826040518082805190602001908083835b602083101515610ece5780518252602082019150602081019050602083039250610ea9565b6001836020036101000a0380198251168184511680821785525050505050509050019150509081526020016040518091039020600b0160009054906101000a900460ff166007811115610f1d57fe5b141515610f2957600080fd5b8760088a6040518082805190602001908083835b602083101515610f625780518252602082019150602081019050602083039250610f3d565b6001836020036101000a0380198251168184511680821785525050505050509050019150509081526020016040518091039020600a019080519060200190610fab929190614b45565b50600660088a6040518082805190602001908083835b602083101515610fe65780518252602082019150602081019050602083039250610fc1565b6001836020036101000a0380198251168184511680821785525050505050509050019150509081526020016040518091039020600b0160006101000a81548160ff0219169083600781111561103757fe5b02179055506008896040518082805190602001908083835b602083101515611074578051825260208201915060208101905060208303925061104f565b6001836020036101000a0380198251168184511680821785525050505050509050019150509081526020016040518091039020965061018060405190810160405280886000018054600181600116156101000203166002900480601f01602080910402602001604051908101604052809291908181526020018280546001816001161561010002031660029004801561114e5780601f106111235761010080835404028352916020019161114e565b820191906000526020600020905b81548152906001019060200180831161113157829003601f168201915b50505050508152602001886001018054600181600116156101000203166002900480601f0160208091040260200160405190810160405280929190818152602001828054600181600116156101000203166002900480156111f05780601f106111c5576101008083540402835291602001916111f0565b820191906000526020600020905b8154815290600101906020018083116111d357829003601f168201915b50505050508152602001886002018054600181600116156101000203166002900480601f0160208091040260200160405190810160405280929190818152602001828054600181600116156101000203166002900480156112925780601f1061126757610100808354040283529160200191611292565b820191906000526020600020905b81548152906001019060200180831161127557829003601f168201915b5050505050815260200188600301548152602001886004015481526020018860050154815260200188600601548152602001886007018054600181600116156101000203166002900480601f01602080910402602001604051908101604052809291908181526020018280546001816001161561010002031660029004801561135c5780601f106113315761010080835404028352916020019161135c565b820191906000526020600020905b81548152906001019060200180831161133f57829003601f168201915b50505050508152602001886008018054600181600116156101000203166002900480601f0160208091040260200160405190810160405280929190818152602001828054600181600116156101000203166002900480156113fe5780601f106113d3576101008083540402835291602001916113fe565b820191906000526020600020905b8154815290600101906020018083116113e157829003601f168201915b50505050508152602001886009018054600181600116156101000203166002900480601f0160208091040260200160405190810160405280929190818152602001828054600181600116156101000203166002900480156114a05780601f10611475576101008083540402835291602001916114a0565b820191906000526020600020905b81548152906001019060200180831161148357829003601f168201915b5050505050815260200188600a018054600181600116156101000203166002900480601f0160208091040260200160405190810160405280929190818152602001828054600181600116156101000203166002900480156115425780601f1061151757610100808354040283529160200191611542565b820191906000526020600020905b81548152906001019060200180831161152557829003601f168201915b5050505050815260200188600b0160009054906101000a900460ff16600781111561156957fe5b81525095507f4e1b89552d19258ac8149b571e4f45a50fe09a287b38a77f832a047c6bcc68d5866040518082815260200191505060405180910390a1505050505050505050565b60006115ba614aae565b83600115156007826040518082805190602001908083835b6020831015156115f757805182526020820191506020810190506020830392506115d2565b6001836020036101000a038019825116818451168082178552505050505050905001915050908152602001604051809103902060000160009054906101000a900460ff16151514151561164957600080fd5b60038581600381111561165857fe5b6007826040518082805190602001908083835b602083101515611690578051825260208201915060208101905060208303925061166b565b6001836020036101000a038019825116818451168082178552505050505050905001915050908152602001604051809103902060040160009054906101000a900460ff1660038111156116df57fe5b1415156116eb57600080fd5b6003878160078111156116fa57fe5b6008826040518082805190602001908083835b602083101515611732578051825260208201915060208101905060208303925061170d565b6001836020036101000a0380198251168184511680821785525050505050509050019150509081526020016040518091039020600b0160009054906101000a900460ff16600781111561178157fe5b14151561178d57600080fd5b8760088a6040518082805190602001908083835b6020831015156117c657805182526020820191506020810190506020830392506117a1565b6001836020036101000a0380198251168184511680821785525050505050509050019150509081526020016040518091039020600901908051906020019061180f929190614b45565b50600560088a6040518082805190602001908083835b60208310151561184a5780518252602082019150602081019050602083039250611825565b6001836020036101000a0380198251168184511680821785525050505050509050019150509081526020016040518091039020600b0160006101000a81548160ff0219169083600781111561189b57fe5b02179055506008896040518082805190602001908083835b6020831015156118d857805182526020820191506020810190506020830392506118b3565b6001836020036101000a0380198251168184511680821785525050505050509050019150509081526020016040518091039020965061018060405190810160405280886000018054600181600116156101000203166002900480601f0160208091040260200160405190810160405280929190818152602001828054600181600116156101000203166002900480156119b25780601f10611987576101008083540402835291602001916119b2565b820191906000526020600020905b81548152906001019060200180831161199557829003601f168201915b50505050508152602001886001018054600181600116156101000203166002900480601f016020809104026020016040519081016040528092919081815260200182805460018160011615610100020316600290048015611a545780601f10611a2957610100808354040283529160200191611a54565b820191906000526020600020905b815481529060010190602001808311611a3757829003601f168201915b50505050508152602001886002018054600181600116156101000203166002900480601f016020809104026020016040519081016040528092919081815260200182805460018160011615610100020316600290048015611af65780601f10611acb57610100808354040283529160200191611af6565b820191906000526020600020905b815481529060010190602001808311611ad957829003601f168201915b5050505050815260200188600301548152602001886004015481526020018860050154815260200188600601548152602001886007018054600181600116156101000203166002900480601f016020809104026020016040519081016040528092919081815260200182805460018160011615610100020316600290048015611bc05780601f10611b9557610100808354040283529160200191611bc0565b820191906000526020600020905b815481529060010190602001808311611ba357829003601f168201915b50505050508152602001886008018054600181600116156101000203166002900480601f016020809104026020016040519081016040528092919081815260200182805460018160011615610100020316600290048015611c625780601f10611c3757610100808354040283529160200191611c62565b820191906000526020600020905b815481529060010190602001808311611c4557829003601f168201915b50505050508152602001886009018054600181600116156101000203166002900480601f016020809104026020016040519081016040528092919081815260200182805460018160011615610100020316600290048015611d045780601f10611cd957610100808354040283529160200191611d04565b820191906000526020600020905b815481529060010190602001808311611ce757829003601f168201915b5050505050815260200188600a018054600181600116156101000203166002900480601f016020809104026020016040519081016040528092919081815260200182805460018160011615610100020316600290048015611da65780601f10611d7b57610100808354040283529160200191611da6565b820191906000526020600020905b815481529060010190602001808311611d8957829003601f168201915b5050505050815260200188600b0160009054906101000a900460ff166007811115611dcd57fe5b81525095507f10cdb42fdf76ad0b5346e1b5a8377b063a1414721180ce02e75ad89baf742155866040518082815260200191505060405180910390a1505050505050505050565b600089600115156007826040518082805190602001908083835b602083101515611e535780518252602082019150602081019050602083039250611e2e565b6001836020036101000a038019825116818451168082178552505050505050905001915050908152602001604051809103902060000160009054906101000a900460ff161515141515611ea557600080fd5b60038b816003811115611eb457fe5b6007826040518082805190602001908083835b602083101515611eec5780518252602082019150602081019050602083039250611ec7565b6001836020036101000a038019825116818451168082178552505050505050905001915050908152602001604051809103902060040160009054906101000a900460ff166003811115611f3b57fe5b141515611f4757600080fd5b8c60006007811115611f5557fe5b6008826040518082805190602001908083835b602083101515611f8d5780518252602082019150602081019050602083039250611f68565b6001836020036101000a0380198251168184511680821785525050505050509050019150509081526020016040518091039020600b0160009054906101000a900460ff166007811115611fdc57fe5b1480612079575060026007811115611ff057fe5b6008826040518082805190602001908083835b6020831015156120285780518252602082019150602081019050602083039250612003565b6001836020036101000a0380198251168184511680821785525050505050509050019150509081526020016040518091039020600b0160009054906101000a900460ff16600781111561207757fe5b145b151561208457600080fd5b60078e6040518082805190602001908083835b6020831015156120bc5780518252602082019150602081019050602083039250612097565b6001836020036101000a0380198251168184511680821785525050505050509050019150509081526020016040518091039020600101549450610180604051908101604052808e81526020018d81526020018c81526020018681526020018b81526020018a815260200189815260200188815260200187815260200160206040519081016040528060008152508152602001602060405190810160405280600081525081526020016001600781111561217157fe5b81525060088f6040518082805190602001908083835b6020831015156121ac5780518252602082019150602081019050602083039250612187565b6001836020036101000a038019825116818451168082178552505050505050905001915050908152602001604051809103902060008201518160000190805190602001906121fb929190614bc5565b506020820151816001019080519060200190612218929190614bc5565b506040820151816002019080519060200190612235929190614bc5565b50606082015181600301556080820151816004015560a0820151816005015560c0820151816006015560e082015181600701908051906020019061227a929190614bc5565b50610100820151816008019080519060200190612298929190614bc5565b506101208201518160090190805190602001906122b6929190614bc5565b5061014082015181600a0190805190602001906122d4929190614bc5565b5061016082015181600b0160006101000a81548160ff021916908360078111156122fa57fe5b02179055509050507fe6f59a77070e9893091d18e67f6954731239059d44d8b79f5a10bb818110ef58610180604051908101604052808f81526020018e81526020018d81526020018781526020018c81526020018b81526020018a815260200189815260200188815260200160206040519081016040528060008152508152602001602060405190810160405280600081525081526020016001600781111561239f57fe5b8152506040518082815260200191505060405180910390a15050505050505050505050505050565b6000806000806123d5614c45565b60006008876040518082805190602001908083835b60208310151561240f57805182526020820191506020810190506020830392506123ea565b6001836020036101000a03801982511681845116808217855250505050505090500191505090815260200160405180910390209050806003015481600401548260050154836006015484600701808054600181600116156101000203166002900480601f0160208091040260200160405190810160405280929190818152602001828054600181600116156101000203166002900480156124f15780601f106124c6576101008083540402835291602001916124f1565b820191906000526020600020905b8154815290600101906020018083116124d457829003601f168201915b50505050509050955095509550955095505091939590929450565b612514614c59565b81600015156007826040518082805190602001908083835b602083101515612551578051825260208201915060208101905060208303925061252c565b6001836020036101000a038019825116818451168082178552505050505050905001915050908152602001604051809103902060000160009054906101000a900460ff16151514806126345750600160038111156125ab57fe5b6007826040518082805190602001908083835b6020831015156125e357805182526020820191506020810190506020830392506125be565b6001836020036101000a038019825116818451168082178552505050505050905001915050908152602001604051809103902060040160009054906101000a900460ff16600381111561263257fe5b145b806126d057506002600381111561264757fe5b6007826040518082805190602001908083835b60208310151561267f578051825260208201915060208101905060208303925061265a565b6001836020036101000a038019825116818451168082178552505050505050905001915050908152602001604051809103902060040160009054906101000a900460ff1660038111156126ce57fe5b145b15156126db57600080fd5b60a0604051908101604052806001151581526020018681526020018581526020018481526020016000600381111561270f57fe5b8152509150816007846040518082805190602001908083835b60208310151561274d5780518252602082019150602081019050602083039250612728565b6001836020036101000a038019825116818451168082178552505050505050905001915050908152602001604051809103902060008201518160000160006101000a81548160ff0219169083151502179055506020820151816001015560408201518160020190805190602001906127c6929190614bc5565b5060608201518160030190805190602001906127e3929190614bc5565b5060808201518160040160006101000a81548160ff0219169083600381111561280857fe5b02179055509050507f22fd37b1fe46286ffd22c0d41ae3c05e1fdcbc2cb9d88bb64f71e2275fd9852b826040518082815260200191505060405180910390a15050505050565b6000612858614c59565b82600115156007826040518082805190602001908083835b6020831015156128955780518252602082019150602081019050602083039250612870565b6001836020036101000a038019825116818451168082178552505050505050905001915050908152602001604051809103902060000160009054906101000a900460ff1615151415156128e757600080fd5b836000806007836040518082805190602001908083835b60208310151561292357805182526020820191506020810190506020830392506128fe565b6001836020036101000a038019825116818451168082178552505050505050905001915050908152602001604051809103902060040160009054906101000a900460ff1691506000600381111561297657fe5b82600381111561298257fe5b14806129a3575060038081111561299557fe5b8260038111156129a157fe5b145b15156129ae57600080fd5b6008836040518082805190602001908083835b6020831015156129e657805182526020820191506020810190506020830392506129c1565b6001836020036101000a0380198251168184511680821785525050505050509050019150509081526020016040518091039020600b0160009054906101000a900460ff16905060046007811115612a3957fe5b816007811115612a4557fe5b1480612a67575060066007811115612a5957fe5b816007811115612a6557fe5b145b80612a875750600780811115612a7957fe5b816007811115612a8557fe5b145b151515612a9357600080fd5b60026007886040518082805190602001908083835b602083101515612acd5780518252602082019150602081019050602083039250612aa8565b6001836020036101000a038019825116818451168082178552505050505050905001915050908152602001604051809103902060040160006101000a81548160ff02191690836003811115612b1e57fe5b021790555060006007811115612b3057fe5b6008886040518082805190602001908083835b602083101515612b685780518252602082019150602081019050602083039250612b43565b6001836020036101000a0380198251168184511680821785525050505050509050019150509081526020016040518091039020600b0160009054906101000a900460ff166007811115612bb757fe5b141515612c4f5760046008886040518082805190602001908083835b602083101515612bf85780518252602082019150602081019050602083039250612bd3565b6001836020036101000a0380198251168184511680821785525050505050509050019150509081526020016040518091039020600b0160006101000a81548160ff02191690836007811115612c4957fe5b02179055505b6007876040518082805190602001908083835b602083101515612c875780518252602082019150602081019050602083039250612c62565b6001836020036101000a0380198251168184511680821785525050505050509050019150509081526020016040518091039020955060a0604051908101604052808760000160009054906101000a900460ff161515815260200187600101548152602001876002018054600181600116156101000203166002900480601f016020809104026020016040519081016040528092919081815260200182805460018160011615610100020316600290048015612d835780601f10612d5857610100808354040283529160200191612d83565b820191906000526020600020905b815481529060010190602001808311612d6657829003601f168201915b50505050508152602001876003018054600181600116156101000203166002900480601f016020809104026020016040519081016040528092919081815260200182805460018160011615610100020316600290048015612e255780601f10612dfa57610100808354040283529160200191612e25565b820191906000526020600020905b815481529060010190602001808311612e0857829003601f168201915b505050505081526020018760040160009054906101000a900460ff166003811115612e4c57fe5b81525094507fa4630ff3cecd92e1e262df0c2301ac6ac7ea65fc9557ef8034e2ea58f7e42970856040518082815260200191505060405180910390a150505050505050565b6000612e9b614c59565b82600115156007826040518082805190602001908083835b602083101515612ed85780518252602082019150602081019050602083039250612eb3565b6001836020036101000a038019825116818451168082178552505050505050905001915050908152602001604051809103902060000160009054906101000a900460ff161515141515612f2a57600080fd5b600084816003811115612f3957fe5b6007826040518082805190602001908083835b602083101515612f715780518252602082019150602081019050602083039250612f4c565b6001836020036101000a038019825116818451168082178552505050505050905001915050908152602001604051809103902060040160009054906101000a900460ff166003811115612fc057fe5b141515612fcc57600080fd5b86612fd8576001612fdb565b60035b6007876040518082805190602001908083835b6020831015156130135780518252602082019150602081019050602083039250612fee565b6001836020036101000a038019825116818451168082178552505050505050905001915050908152602001604051809103902060040160006101000a81548160ff0219169083600381111561306457fe5b02179055506007866040518082805190602001908083835b6020831015156130a1578051825260208201915060208101905060208303925061307c565b6001836020036101000a0380198251168184511680821785525050505050509050019150509081526020016040518091039020945060a0604051908101604052808660000160009054906101000a900460ff161515815260200186600101548152602001866002018054600181600116156101000203166002900480601f01602080910402602001604051908101604052809291908181526020018280546001816001161561010002031660029004801561319d5780601f106131725761010080835404028352916020019161319d565b820191906000526020600020905b81548152906001019060200180831161318057829003601f168201915b50505050508152602001866003018054600181600116156101000203166002900480601f01602080910402602001604051908101604052809291908181526020018280546001816001161561010002031660029004801561323f5780601f106132145761010080835404028352916020019161323f565b820191906000526020600020905b81548152906001019060200180831161322257829003601f168201915b505050505081526020018660040160009054906101000a900460ff16600381111561326657fe5b81525093507fa4630ff3cecd92e1e262df0c2301ac6ac7ea65fc9557ef8034e2ea58f7e42970846040518082815260200191505060405180910390a150505050505050565b60006132b5614aae565b82600115156007826040518082805190602001908083835b6020831015156132f257805182526020820191506020810190506020830392506132cd565b6001836020036101000a038019825116818451168082178552505050505050905001915050908152602001604051809103902060000160009054906101000a900460ff16151514151561334457600080fd5b60038481600381111561335357fe5b6007826040518082805190602001908083835b60208310151561338b5780518252602082019150602081019050602083039250613366565b6001836020036101000a038019825116818451168082178552505050505050905001915050908152602001604051809103902060040160009054906101000a900460ff1660038111156133da57fe5b1415156133e657600080fd5b6006868160078111156133f557fe5b6008826040518082805190602001908083835b60208310151561342d5780518252602082019150602081019050602083039250613408565b6001836020036101000a0380198251168184511680821785525050505050509050019150509081526020016040518091039020600b0160009054906101000a900460ff16600781111561347c57fe5b14151561348857600080fd5b60076008896040518082805190602001908083835b6020831015156134c2578051825260208201915060208101905060208303925061349d565b6001836020036101000a0380198251168184511680821785525050505050509050019150509081526020016040518091039020600b0160006101000a81548160ff0219169083600781111561351357fe5b02179055506008886040518082805190602001908083835b602083101515613550578051825260208201915060208101905060208303925061352b565b6001836020036101000a0380198251168184511680821785525050505050509050019150509081526020016040518091039020965061018060405190810160405280886000018054600181600116156101000203166002900480601f01602080910402602001604051908101604052809291908181526020018280546001816001161561010002031660029004801561362a5780601f106135ff5761010080835404028352916020019161362a565b820191906000526020600020905b81548152906001019060200180831161360d57829003601f168201915b50505050508152602001886001018054600181600116156101000203166002900480601f0160208091040260200160405190810160405280929190818152602001828054600181600116156101000203166002900480156136cc5780601f106136a1576101008083540402835291602001916136cc565b820191906000526020600020905b8154815290600101906020018083116136af57829003601f168201915b50505050508152602001886002018054600181600116156101000203166002900480601f01602080910402602001604051908101604052809291908181526020018280546001816001161561010002031660029004801561376e5780601f106137435761010080835404028352916020019161376e565b820191906000526020600020905b81548152906001019060200180831161375157829003601f168201915b5050505050815260200188600301548152602001886004015481526020018860050154815260200188600601548152602001886007018054600181600116156101000203166002900480601f0160208091040260200160405190810160405280929190818152602001828054600181600116156101000203166002900480156138385780601f1061380d57610100808354040283529160200191613838565b820191906000526020600020905b81548152906001019060200180831161381b57829003601f168201915b50505050508152602001886008018054600181600116156101000203166002900480601f0160208091040260200160405190810160405280929190818152602001828054600181600116156101000203166002900480156138da5780601f106138af576101008083540402835291602001916138da565b820191906000526020600020905b8154815290600101906020018083116138bd57829003601f168201915b50505050508152602001886009018054600181600116156101000203166002900480601f01602080910402602001604051908101604052809291908181526020018280546001816001161561010002031660029004801561397c5780601f106139515761010080835404028352916020019161397c565b820191906000526020600020905b81548152906001019060200180831161395f57829003601f168201915b5050505050815260200188600a018054600181600116156101000203166002900480601f016020809104026020016040519081016040528092919081815260200182805460018160011615610100020316600290048015613a1e5780601f106139f357610100808354040283529160200191613a1e565b820191906000526020600020905b815481529060010190602001808311613a0157829003601f168201915b5050505050815260200188600b0160009054906101000a900460ff166007811115613a4557fe5b81525095507fa25cc4ca5e46d30f936f164ca512e7428f526e42689424e00ea728cde73a3418866040518082815260200191505060405180910390a15050505050505050565b6000613a95614aae565b83600115156007826040518082805190602001908083835b602083101515613ad25780518252602082019150602081019050602083039250613aad565b6001836020036101000a038019825116818451168082178552505050505050905001915050908152602001604051809103902060000160009054906101000a900460ff161515141515613b2457600080fd5b600385816003811115613b3357fe5b6007826040518082805190602001908083835b602083101515613b6b5780518252602082019150602081019050602083039250613b46565b6001836020036101000a038019825116818451168082178552505050505050905001915050908152602001604051809103902060040160009054906101000a900460ff166003811115613bba57fe5b141515613bc657600080fd5b600187816007811115613bd557fe5b6008826040518082805190602001908083835b602083101515613c0d5780518252602082019150602081019050602083039250613be8565b6001836020036101000a0380198251168184511680821785525050505050509050019150509081526020016040518091039020600b0160009054906101000a900460ff166007811115613c5c57fe5b141515613c6857600080fd5b87613c74576002613c77565b60035b60088a6040518082805190602001908083835b602083101515613caf5780518252602082019150602081019050602083039250613c8a565b6001836020036101000a0380198251168184511680821785525050505050509050019150509081526020016040518091039020600b0160006101000a81548160ff02191690836007811115613d0057fe5b02179055506008896040518082805190602001908083835b602083101515613d3d5780518252602082019150602081019050602083039250613d18565b6001836020036101000a0380198251168184511680821785525050505050509050019150509081526020016040518091039020965061018060405190810160405280886000018054600181600116156101000203166002900480601f016020809104026020016040519081016040528092919081815260200182805460018160011615610100020316600290048015613e175780601f10613dec57610100808354040283529160200191613e17565b820191906000526020600020905b815481529060010190602001808311613dfa57829003601f168201915b50505050508152602001886001018054600181600116156101000203166002900480601f016020809104026020016040519081016040528092919081815260200182805460018160011615610100020316600290048015613eb95780601f10613e8e57610100808354040283529160200191613eb9565b820191906000526020600020905b815481529060010190602001808311613e9c57829003601f168201915b50505050508152602001886002018054600181600116156101000203166002900480601f016020809104026020016040519081016040528092919081815260200182805460018160011615610100020316600290048015613f5b5780601f10613f3057610100808354040283529160200191613f5b565b820191906000526020600020905b815481529060010190602001808311613f3e57829003601f168201915b5050505050815260200188600301548152602001886004015481526020018860050154815260200188600601548152602001886007018054600181600116156101000203166002900480601f0160208091040260200160405190810160405280929190818152602001828054600181600116156101000203166002900480156140255780601f10613ffa57610100808354040283529160200191614025565b820191906000526020600020905b81548152906001019060200180831161400857829003601f168201915b50505050508152602001886008018054600181600116156101000203166002900480601f0160208091040260200160405190810160405280929190818152602001828054600181600116156101000203166002900480156140c75780601f1061409c576101008083540402835291602001916140c7565b820191906000526020600020905b8154815290600101906020018083116140aa57829003601f168201915b50505050508152602001886009018054600181600116156101000203166002900480601f0160208091040260200160405190810160405280929190818152602001828054600181600116156101000203166002900480156141695780601f1061413e57610100808354040283529160200191614169565b820191906000526020600020905b81548152906001019060200180831161414c57829003601f168201915b5050505050815260200188600a018054600181600116156101000203166002900480601f01602080910402602001604051908101604052809291908181526020018280546001816001161561010002031660029004801561420b5780601f106141e05761010080835404028352916020019161420b565b820191906000526020600020905b8154815290600101906020018083116141ee57829003601f168201915b5050505050815260200188600b0160009054906101000a900460ff16600781111561423257fe5b81525095507f44754d76561d0684cae6d57963a682ea8a3fc035c4b54cc0456ccd9f72215779866040518082815260200191505060405180910390a1505050505050505050565b614281614c45565b614289614c45565b614291614c45565b60006008856040518082805190602001908083835b6020831015156142cb57805182526020820191506020810190506020830392506142a6565b6001836020036101000a03801982511681845116808217855250505050505090500191505090815260200160405180910390209050806000018160010182600201828054600181600116156101000203166002900480601f0160208091040260200160405190810160405280929190818152602001828054600181600116156101000203166002900480156143a15780601f10614376576101008083540402835291602001916143a1565b820191906000526020600020905b81548152906001019060200180831161438457829003601f168201915b50505050509250818054600181600116156101000203166002900480601f01602080910402602001604051908101604052809291908181526020018280546001816001161561010002031660029004801561443d5780601f106144125761010080835404028352916020019161443d565b820191906000526020600020905b81548152906001019060200180831161442057829003601f168201915b50505050509150808054600181600116156101000203166002900480601f0160208091040260200160405190810160405280929190818152602001828054600181600116156101000203166002900480156144d95780601f106144ae576101008083540402835291602001916144d9565b820191906000526020600020905b8154815290600101906020018083116144bc57829003601f168201915b50505050509050935093509350509193909250565b6000806144f9614c45565b614501614c45565b6000806007876040518082805190602001908083835b60208310151561453c5780518252602082019150602081019050602083039250614517565b6001836020036101000a038019825116818451168082178552505050505050905001915050908152602001604051809103902090508060000160009054906101000a900460ff16816001015482600201836003018460040160009054906101000a900460ff16828054600181600116156101000203166002900480601f0160208091040260200160405190810160405280929190818152602001828054600181600116156101000203166002900480156146375780601f1061460c57610100808354040283529160200191614637565b820191906000526020600020905b81548152906001019060200180831161461a57829003601f168201915b50505050509250818054600181600116156101000203166002900480601f0160208091040260200160405190810160405280929190818152602001828054600181600116156101000203166002900480156146d35780601f106146a8576101008083540402835291602001916146d3565b820191906000526020600020905b8154815290600101906020018083116146b657829003601f168201915b50505050509150955095509550955095505091939590929450565b600280600001908060010154908060020154908060030154908060040154905085565b614719614c45565b614721614c45565b614729614c45565b60006008856040518082805190602001908083835b602083101515614763578051825260208201915060208101905060208303925061473e565b6001836020036101000a03801982511681845116808217855250505050505090500191505090815260200160405180910390209050806008018160090182600a01828054600181600116156101000203166002900480601f0160208091040260200160405190810160405280929190818152602001828054600181600116156101000203166002900480156148395780601f1061480e57610100808354040283529160200191614839565b820191906000526020600020905b81548152906001019060200180831161481c57829003601f168201915b50505050509250818054600181600116156101000203166002900480601f0160208091040260200160405190810160405280929190818152602001828054600181600116156101000203166002900480156148d55780601f106148aa576101008083540402835291602001916148d5565b820191906000526020600020905b8154815290600101906020018083116148b857829003601f168201915b50505050509150808054600181600116156101000203166002900480601f0160208091040260200160405190810160405280929190818152602001828054600181600116156101000203166002900480156149715780601f1061494657610100808354040283529160200191614971565b820191906000526020600020905b81548152906001019060200180831161495457829003601f168201915b50505050509050935093509350509193909250565b60018054600181600116156101000203166002900480601f016020809104026020016040519081016040528092919081815260200182805460018160011615610100020316600290048015614a1c5780601f106149f157610100808354040283529160200191614a1c565b820191906000526020600020905b8154815290600101906020018083116149ff57829003601f168201915b505050505081565b6000806008836040518082805190602001908083835b602083101515614a5f5780518252602082019150602081019050602083039250614a3a565b6001836020036101000a0380198251168184511680821785525050505050509050019150509081526020016040518091039020905080600b0160009054906101000a900460ff16915050919050565b61018060405190810160405280614ac3614ca2565b8152602001614ad0614ca2565b8152602001614add614ca2565b815260200160008152602001600081526020016000815260200160008152602001614b06614ca2565b8152602001614b13614ca2565b8152602001614b20614ca2565b8152602001614b2d614ca2565b815260200160006007811115614b3f57fe5b81525090565b828054600181600116156101000203166002900490600052602060002090601f016020900481019282601f10614b8657805160ff1916838001178555614bb4565b82800160010185558215614bb4579182015b82811115614bb3578251825591602001919060010190614b98565b5b509050614bc19190614cb6565b5090565b828054600181600116156101000203166002900490600052602060002090601f016020900481019282601f10614c0657805160ff1916838001178555614c34565b82800160010185558215614c34579182015b82811115614c33578251825591602001919060010190614c18565b5b509050614c419190614cb6565b5090565b602060405190810160405280600081525090565b60a06040519081016040528060001515815260200160008152602001614c7d614ca2565b8152602001614c8a614ca2565b815260200160006003811115614c9c57fe5b81525090565b602060405190810160405280600081525090565b614cd891905b80821115614cd4576000816000905550600101614cbc565b5090565b905600a165627a7a72305820211aaecdb0b8bf7ea5d8ad18c8e8152671d197ffd775aa63192584b2d72e3d360029",
  "source": "pragma solidity ^0.4.18;\ncontract EnlistmentToContract {\n    \n    // instanciated after the enlistment is approved by admins\n    // price and other params omitted from bc enlistment because they are subject to change\n    \n    // compare this with another layer of nesting (all enlistments in one instance)\n    \n    address owner;\n    string public landlord;\n    Enlistment public enlistment;\n    mapping(string => Offer) tenantOfferMap;\n    mapping(string => AgreementDraft) tenantAgreementMap;\n\n    function EnlistmentToContract(\n        string landlordEmail, string streetName, \n        int floorNr, int apartmentNr, int houseNr,\n        int postalCode) public\n            {\n            enlistment = Enlistment(streetName, floorNr, apartmentNr,\n                houseNr, postalCode);\n            landlord = landlordEmail;\n            owner = msg.sender;\n    }\n    \n    enum OfferStatus {\n        PENDING,\n        REJECTED,\n        CANCELLED,\n        ACCEPTED\n    }\n    \n    enum AgreementStatus {\n        UNINITIALIZED, // internal\n        PENDING,\n        REJECTED,\n        CONFIRMED,\n        CANCELLED,\n        LANDLORD_SIGNED,\n        TENANT_SIGNED,\n        COMPLETED\n    }\n    \n    struct Enlistment {\n        string streetName;\n        int floorNr;\n        int apartmentNr;\n        int houseNr;\n        int postalCode;\n    }\n    \n    struct Offer {\n        bool initialized;\n        int amount;\n        string tenantName;\n        string tenantEmail;\n        OfferStatus status;\n    }\n    \n    struct AgreementDraft {\n        string landlordName; // for simplicity, there is only one landlord\n        string tenantName; // for simplicity, there is only one tenant and occupants are omitted\n        string tenantEmail;\n        int amount;\n        uint leaseStart;\n        uint handoverDate;\n        uint leasePeriod;\n        string otherTerms;\n        string hash;\n        string landlordSignedHash;\n        string tenantSignedHash;\n        AgreementStatus status;\n    }\n    \n    modifier noActiveOffer(string tenantEmail) {\n        require(tenantOfferMap[tenantEmail].initialized == false || tenantOfferMap[tenantEmail].status == OfferStatus.REJECTED || tenantOfferMap[tenantEmail].status == OfferStatus.CANCELLED);\n        _;\n    }\n    \n    modifier offerExists(string tenantEmail) {\n        require(tenantOfferMap[tenantEmail].initialized == true);\n        _;\n    }\n    \n    modifier offerInStatus(OfferStatus status, string tenantEmail) {\n        require(tenantOfferMap[tenantEmail].status == status);\n        _;\n    }\n\n    modifier offerCancellable(string tenantEmail) {\n        var offerStatus = tenantOfferMap[tenantEmail].status;\n        require(offerStatus == OfferStatus.PENDING || offerStatus == OfferStatus.ACCEPTED);\n        var agreementStatus = tenantAgreementMap[tenantEmail].status;\n        require(!(agreementStatus == AgreementStatus.CANCELLED || agreementStatus == AgreementStatus.TENANT_SIGNED || agreementStatus == AgreementStatus.COMPLETED));\n        _;\n    }\n    \n    modifier draftNotPresentOrRejected(string tenantEmail) {\n        require(tenantAgreementMap[tenantEmail].status == AgreementStatus.UNINITIALIZED || tenantAgreementMap[tenantEmail].status == AgreementStatus.REJECTED);\n        _;\n    }\n    \n    modifier agreementInStatus(AgreementStatus status, string tenantEmail) {\n        require(tenantAgreementMap[tenantEmail].status == status);\n        _;\n    }\n    \n    \n    modifier maintainerOnly() {\n        require(msg.sender == owner); \n        _;\n    }\n    \n    event OfferReceived (Offer offer);\n    \n    event AgreementReceived (AgreementDraft agreement);\n    \n    event OfferUpdated(Offer offer);\n    \n    event AgreementReviewed(AgreementDraft agreement); // vs single updated method? performance vs cost?\n    \n    event AgreementLandlordSigned(AgreementDraft agreement);\n    \n    event AgreementTenantSigned(AgreementDraft agreement);\n    \n    event AgreementCompleted(AgreementDraft agreement);\n    \n    // what if the offer is in status PENDING and the tenant wants to send a new one?\n    function sendOffer(int amount, string tenantName, string tenantEmail) payable public\n    noActiveOffer(tenantEmail)\n        {\n        var offer = Offer({\n            initialized: true,\n            amount: amount,\n            tenantName: tenantName,\n            tenantEmail: tenantEmail,\n            status: OfferStatus.PENDING\n        });\n        tenantOfferMap[tenantEmail] = offer;\n        OfferReceived(offer); // offer includes the email of the tenant to do event filtering\n    }\n\n    function cancelOffer(string tenantEmail) payable public \n        offerExists(tenantEmail)\n        offerCancellable(tenantEmail)\n        {\n            tenantOfferMap[tenantEmail].status = OfferStatus.CANCELLED;\n            if (tenantAgreementMap[tenantEmail].status != AgreementStatus.UNINITIALIZED) {\n                tenantAgreementMap[tenantEmail].status = AgreementStatus.CANCELLED;\n            }\n            var offer = tenantOfferMap[tenantEmail];\n                var typed = Offer(offer.initialized, offer.amount, offer.tenantName, offer.tenantEmail, offer.status);\n                OfferUpdated(typed);\n    }\n\n\n\n\n    \n    function getOffer(string tenantEmail) view public returns (bool, int, string, string, OfferStatus) {\n        var o = tenantOfferMap[tenantEmail];\n        return (o.initialized, o.amount, o.tenantName, o.tenantEmail, o.status);\n    }\n    \n    function reviewOffer(bool result, string tenantEmail) payable public\n        offerExists(tenantEmail)\n        offerInStatus(OfferStatus.PENDING, tenantEmail)\n            {\n            tenantOfferMap[tenantEmail].status = result ? OfferStatus.ACCEPTED : OfferStatus.REJECTED;\n            var offer = tenantOfferMap[tenantEmail];\n            var typed = Offer(offer.initialized, offer.amount, offer.tenantName, offer.tenantEmail, offer.status);\n            OfferUpdated(typed);\n    }\n    \n    function submitDraft(string tenantEmail, string landlordName,\n        string agreementTenantName, string agreementTenantEmail,\n        uint leaseStart, uint handoverDate, uint leasePeriod,\n        string otherTerms, string hash) payable public\n            offerExists(tenantEmail)\n            offerInStatus(OfferStatus.ACCEPTED, tenantEmail)\n            draftNotPresentOrRejected(tenantEmail)\n                {\n                var amount = tenantOfferMap[tenantEmail].amount;\n                tenantAgreementMap[tenantEmail] = AgreementDraft(landlordName, \n                    agreementTenantName, agreementTenantEmail,\n                    amount, leaseStart, \n                    handoverDate, leasePeriod,\n                    otherTerms, hash, \"\", \"\", AgreementStatus.PENDING); // CompilerError: stack too deep, try removing local variables. Error only appears in local development, all good with browser one (remix.ethereum.org)\n                AgreementReceived(AgreementDraft(landlordName, \n                    agreementTenantName, agreementTenantEmail,\n                    amount, leaseStart, \n                    handoverDate, leasePeriod,\n                    otherTerms, hash, \"\", \"\", AgreementStatus.PENDING));\n    }\n        \n    // getAgreement functions:\n    // can only return tuple of max 7 elements, otherwise throws \"Stack too geep\"\n    // solution: splitted into multiple functions\n        \n    function getAgreementParticipants(string tenantEmail) view public returns (string, string, string) {\n        var a = tenantAgreementMap[tenantEmail];\n        return (a.landlordName, a.tenantName, a.tenantEmail);\n    }\n    \n    function getAgreementDetails(string tenantEmail) view public returns (int, uint, uint, uint, string) {\n        var a = tenantAgreementMap[tenantEmail];\n        return (a.amount, a.leaseStart, a.handoverDate, a.leasePeriod, a.otherTerms);\n    }\n    \n    function getAgreementHashes(string tenantEmail) view public returns (string, string, string) {\n        var a = tenantAgreementMap[tenantEmail];\n        return (a.hash, a.landlordSignedHash, a.tenantSignedHash);\n    }\n    \n    function getAgreementStatus(string tenantEmail) view public returns (AgreementStatus) {\n        var a = tenantAgreementMap[tenantEmail];\n        return (a.status);\n    }\n    \n    function reviewAgreement(string tenantEmail, bool result) payable public\n        offerExists(tenantEmail)\n        offerInStatus(OfferStatus.ACCEPTED, tenantEmail)\n        agreementInStatus(AgreementStatus.PENDING, tenantEmail)\n            {\n            tenantAgreementMap[tenantEmail].status = result ? AgreementStatus.CONFIRMED : AgreementStatus.REJECTED;\n            var agreement = tenantAgreementMap[tenantEmail];\n            var typed = AgreementDraft(agreement.landlordName, agreement.tenantName,\n                agreement.tenantEmail, agreement.amount, agreement.leaseStart, agreement.handoverDate,\n                agreement.leasePeriod, agreement.otherTerms, agreement.hash,\n                agreement.landlordSignedHash, agreement.tenantSignedHash, agreement.status);\n            AgreementReviewed(typed); // watch out for untyped nested struct\n        }\n    \n\n    function landlordSignAgreement(string tenantEmail, string landlordSignedHash) payable public\n        offerExists(tenantEmail)\n        offerInStatus(OfferStatus.ACCEPTED, tenantEmail)\n        agreementInStatus(AgreementStatus.CONFIRMED, tenantEmail)\n        {\n            tenantAgreementMap[tenantEmail].landlordSignedHash = landlordSignedHash;\n            tenantAgreementMap[tenantEmail].status = AgreementStatus.LANDLORD_SIGNED;\n            var agreement = tenantAgreementMap[tenantEmail];\n            var typed = AgreementDraft(agreement.landlordName, agreement.tenantName,\n                agreement.tenantEmail, agreement.amount, agreement.leaseStart, agreement.handoverDate,\n                agreement.leasePeriod, agreement.otherTerms, agreement.hash,\n                agreement.landlordSignedHash, agreement.tenantSignedHash, agreement.status);\n            AgreementLandlordSigned(typed); // emitting a struct is more expensive\n    }\n    \n    function tenantSignAgreement(string tenantEmail, string tenantSignedHash) payable public\n    offerExists(tenantEmail)\n    offerInStatus(OfferStatus.ACCEPTED, tenantEmail)\n    agreementInStatus(AgreementStatus.LANDLORD_SIGNED, tenantEmail)\n    {\n        tenantAgreementMap[tenantEmail].tenantSignedHash = tenantSignedHash;\n        tenantAgreementMap[tenantEmail].status = AgreementStatus.TENANT_SIGNED;\n        var agreement = tenantAgreementMap[tenantEmail];\n        var typed = AgreementDraft(agreement.landlordName, agreement.tenantName,\n            agreement.tenantEmail, agreement.amount, agreement.leaseStart, agreement.handoverDate,\n            agreement.leasePeriod, agreement.otherTerms, agreement.hash,\n            agreement.landlordSignedHash, agreement.tenantSignedHash, agreement.status);\n        AgreementTenantSigned(typed);\n    }\n    \n    function receiveFirstMonthRent(string tenantEmail) payable public \n    offerExists(tenantEmail)\n    offerInStatus(OfferStatus.ACCEPTED, tenantEmail)\n    agreementInStatus(AgreementStatus.TENANT_SIGNED, tenantEmail)\n        {\n        tenantAgreementMap[tenantEmail].status = AgreementStatus.COMPLETED;\n        var agreement = tenantAgreementMap[tenantEmail];\n        var typed = AgreementDraft(agreement.landlordName, agreement.tenantName,\n            agreement.tenantEmail, agreement.amount, agreement.leaseStart, agreement.handoverDate,\n            agreement.leasePeriod, agreement.otherTerms, agreement.hash,\n            agreement.landlordSignedHash, agreement.tenantSignedHash, agreement.status);\n        AgreementCompleted(typed);\n    }\n    \n}",
  "sourcePath": "/Users/Indrek/Ulikool/Thesis/blockchain-real-estate-v1/ethereum/contracts/EnlistmentToContract.sol",
  "compiler": {
    "name": "solc",
    "version": "0.4.19+commit.c4cbbb05.Emscripten.clang"
  },
  "schemaVersion": "1.0.1",
  "updatedAt": "2018-02-26T20:38:00.862Z"
}