{
  "contractName": "PropertyEnlistment",
  "abi": [
    {
      "constant": true,
      "inputs": [
        {
          "name": "",
          "type": "uint256"
        }
      ],
      "name": "offers",
      "outputs": [
        {
          "name": "amount",
          "type": "int256"
        },
        {
          "name": "tenantName",
          "type": "string"
        },
        {
          "name": "tenantEmail",
          "type": "string"
        },
        {
          "name": "status",
          "type": "uint8"
        }
      ],
      "payable": false,
      "stateMutability": "view",
      "type": "function"
    },
    {
      "constant": true,
      "inputs": [],
      "name": "landlordName",
      "outputs": [
        {
          "name": "",
          "type": "string"
        }
      ],
      "payable": false,
      "stateMutability": "view",
      "type": "function"
    },
    {
      "constant": true,
      "inputs": [],
      "name": "price",
      "outputs": [
        {
          "name": "",
          "type": "int256"
        }
      ],
      "payable": false,
      "stateMutability": "view",
      "type": "function"
    },
    {
      "inputs": [
        {
          "name": "_landlordName",
          "type": "string"
        },
        {
          "name": "_price",
          "type": "int256"
        }
      ],
      "payable": false,
      "stateMutability": "nonpayable",
      "type": "constructor"
    },
    {
      "anonymous": false,
      "inputs": [],
      "name": "OfferReceived",
      "type": "event"
    },
    {
      "constant": false,
      "inputs": [
        {
          "name": "amount",
          "type": "int256"
        },
        {
          "name": "tenantName",
          "type": "string"
        },
        {
          "name": "tenantEmail",
          "type": "string"
        }
      ],
      "name": "receiveOffer",
      "outputs": [],
      "payable": false,
      "stateMutability": "nonpayable",
      "type": "function"
    },
    {
      "constant": true,
      "inputs": [],
      "name": "getNumberOfOffers",
      "outputs": [
        {
          "name": "",
          "type": "int256"
        }
      ],
      "payable": false,
      "stateMutability": "view",
      "type": "function"
    }
  ],
  "bytecode": "0x6060604052341561000f57600080fd5b60405161086238038061086283398101604052808051820191906020018051906020019091905050816000908051906020019061004d92919061005c565b50806001819055505050610101565b828054600181600116156101000203166002900490600052602060002090601f016020900481019282601f1061009d57805160ff19168380011785556100cb565b828001600101855582156100cb579182015b828111156100ca5782518255916020019190600101906100af565b5b5090506100d891906100dc565b5090565b6100fe91905b808211156100fa5760008160009055506001016100e2565b5090565b90565b610752806101106000396000f30060606040526004361061006d576000357c0100000000000000000000000000000000000000000000000000000000900463ffffffff1680638a72ea6a146100725780639419bc29146101d0578063a035b1fe1461025e578063dd70afd214610287578063fae2544414610330575b600080fd5b341561007d57600080fd5b6100936004808035906020019091905050610359565b6040518085815260200180602001806020018460028111156100b157fe5b60ff16815260200183810383528681815460018160011615610100020316600290048152602001915080546001816001161561010002031660029004801561013a5780601f1061010f5761010080835404028352916020019161013a565b820191906000526020600020905b81548152906001019060200180831161011d57829003601f168201915b50508381038252858181546001816001161561010002031660029004815260200191508054600181600116156101000203166002900480156101bd5780601f10610192576101008083540402835291602001916101bd565b820191906000526020600020905b8154815290600101906020018083116101a057829003601f168201915b5050965050505050505060405180910390f35b34156101db57600080fd5b6101e36103a3565b6040518080602001828103825283818151815260200191508051906020019080838360005b83811015610223578082015181840152602081019050610208565b50505050905090810190601f1680156102505780820380516001836020036101000a031916815260200191505b509250505060405180910390f35b341561026957600080fd5b610271610441565b6040518082815260200191505060405180910390f35b341561029257600080fd5b61032e600480803590602001909190803590602001908201803590602001908080601f0160208091040260200160405190810160405280939291908181526020018383808284378201915050505050509190803590602001908201803590602001908080601f01602080910402602001604051908101604052809392919081815260200183838082843782019150505050505091905050610447565b005b341561033b57600080fd5b61034361054b565b6040518082815260200191505060405180910390f35b60028181548110151561036857fe5b9060005260206000209060040201600091509050806000015490806001019080600201908060030160009054906101000a900460ff16905084565b60008054600181600116156101000203166002900480601f0160208091040260200160405190810160405280929190818152602001828054600181600116156101000203166002900480156104395780601f1061040e57610100808354040283529160200191610439565b820191906000526020600020905b81548152906001019060200180831161041c57829003601f168201915b505050505081565b60015481565b61044f610558565b6080604051908101604052808581526020018481526020018381526020016000600281111561047a57fe5b8152509050600280548060010182816104939190610598565b916000526020600020906004020160008390919091506000820151816000015560208201518160010190805190602001906104cf9291906105ca565b5060408201518160020190805190602001906104ec9291906105ca565b5060608201518160030160006101000a81548160ff0219169083600281111561051157fe5b02179055505050507ff28a87171960d5ec8445fd295ed77f78a8ad4b1c4399e65135f30b6b1879aa3460405160405180910390a150505050565b6000600280549050905090565b6080604051908101604052806000815260200161057361064a565b815260200161058061064a565b81526020016000600281111561059257fe5b81525090565b8154818355818115116105c5576004028160040283600052602060002091820191016105c4919061065e565b5b505050565b828054600181600116156101000203166002900490600052602060002090601f016020900481019282601f1061060b57805160ff1916838001178555610639565b82800160010185558215610639579182015b8281111561063857825182559160200191906001019061061d565b5b50905061064691906106b9565b5090565b602060405190810160405280600081525090565b6106b691905b808211156106b25760008082016000905560018201600061068591906106de565b60028201600061069591906106de565b6003820160006101000a81549060ff021916905550600401610664565b5090565b90565b6106db91905b808211156106d75760008160009055506001016106bf565b5090565b90565b50805460018160011615610100020316600290046000825580601f106107045750610723565b601f01602090049060005260206000209081019061072291906106b9565b5b505600a165627a7a72305820d48139c42e2bcce70fb60f0b57c7451307d487f0ca82c65b0a182eb8e6bab1b30029",
  "source": "pragma solidity ^0.4.18;\n\ncontract PropertyEnlistment {\n  string public landlordName;\n  int public price;\n\n  enum OfferStatus { PENDING, ACCEPTED, REJECTED }\n  struct Offer {\n    int amount;\n    string tenantName;\n    string tenantEmail;\n    OfferStatus status;\n  }\n\n  Offer[] public offers;\n\n  event OfferReceived();\n\n  function PropertyEnlistment(string _landlordName, int _price) public {\n    landlordName = _landlordName;\n    price = _price;\n  }\n\n  function receiveOffer(int amount, string tenantName, string tenantEmail) public {\n    var lastOffer = Offer(amount, tenantName, tenantEmail, OfferStatus.PENDING);\n    offers.push(lastOffer);\n\n    OfferReceived();\n  }\n\n  function getNumberOfOffers() public view returns(int) {\n    return int(offers.length);\n  }\n}\n",
  "sourcePath": "C:\\Users\\vkop\\Documents\\study\\master-thesis\\blockchain-real-estate-v1\\ethereum\\contracts\\PropertyEnlistment.sol",
  "compiler": {
    "name": "solc",
    "version": "0.4.19+commit.c4cbbb05.Emscripten.clang"
  },
  "schemaVersion": "1.0.1",
  "updatedAt": "2018-02-06T20:00:23.243Z"
}